:020000040800F2
:10000000582A0120155000089D0400089F0400088C
:10001000A3040008A7040008AB04000800000000C7
:10002000000000000000000000000000AF04000815
:10003000B10400080000000071680008B304000863
:100040002F5000082F5000082F5000082F50000894
:100050002F5000082F500008C30400082F5000083C
:100060002F5000082F5000082F5000082F50000874
:100070002F5000082F5000082F5000082F50000864
:100080002F5000082F5000082F5000082F50000854
:100090002F5000082F5000082F5000082F50000844
:1000A0002F5000082F5000082F5000082F50000834
:1000B0002F5000082F5000082F5000082F50000824
:1000C0002F5000082F5000082F5000082F50000814
:1000D0002F500008290D00082F5000082F5000084D
:1000E0002F5000082F5000082F5000082F500008F4
:1000F0002F5000082F5000082F5000082F500008E4
:100100002F5000082F5000082F5000082F500008D3
:100110002F5000082F5000082F5000082F500008C3
:100120002F5000082F5000082F5000082F500008B3
:100130002F5000082F5000082F5000082F500008A3
:100140002F5000082F5000082F5000082F50000893
:100150002F5000082F5000082F5000082F50000883
:100160002F5000082F5000082F5000082F50000873
:100170002F5000082F5000082F5000082F50000863
:100180002F5000082F50000800F002F800F0B2F8DD
:100190000AA090E8000C82448344AAF10107DA45E2
:1001A00001D100F0A7F8AFF2090EBAE80F0013F082
:1001B000010F18BFFB1A43F001031847B88C010068
:1001C000D88C01000A444FF0000C10F8013B13F0EA
:1001D000070408BF10F8014B1D1108BF10F8015BA0
:1001E000641E05D010F8016B641E01F8016BF9D193
:1001F00013F0080F1EBF10F8014BAD1C0C1B09D1EA
:100200006D1E58BF01F801CBFAD505E014F8016B5B
:1002100001F8016B6D1EF9D59142D6D370470000ED
:100220000023002400250026103A28BF78C1FBD8FF
:10023000520728BF30C148BF0B6070476E2908F0D5
:10024000B585702908F0F586662913F0D8826529EE
:1002500013F0D582672913F0D2826129AFF30080B1
:1002600003681B0A28BF41F08001692908F06485F2
:10027000642908F06185752908F05E856F2908F00A
:100280008386782908F0C186E92908F01F86E429C9
:1002900008F01C86F52908F01986EF2908F08086F9
:1002A000F82908F0C0860368DB0928BF41F0800107
:1002B000632909F09F82732909F0A482E32909F0D8
:1002C000AF82F32909F0B482002070471FB513F004
:1002D00091FA09F0FFFA04000020002113F074FAEB
:1002E000401C60600020002113F058FAE0601FBD40
:1002F00010B510BD09F0C0FA1146FFF7E7FF00F096
:1003000051F809F097FB03B4FFF7F2FF03BC09F0C3
:10031000DBFB000030B5314800686422B0FBF2F12D
:10032000481EB0F1807F00D31BE0481E4FF0E02252
:10033000506150170F22002807DA13071D0E284BB3
:1003400000F00F04241F1D5503E013071C0E254B5E
:100350001C5400BF00204FF0E02290610720106184
:1003600000BF30BD70B50546FFF7D4FF4FF4E13054
:1003700000F09EFC00F046FD00F0A8FD04F0F3FD47
:1003800000F050FB00F0AFFB00F071FA00F04AFC07
:1003900000F0DFF800F0A7F907F05BFD044607F076
:1003A00020FC70BD00B585B004F0C2FE06F06AFE08
:1003B0000120AFF24F0102020B4BCDE90132CDE932
:1003C000031000200123024608A100900A4807F00C
:1003D00043F906F080FE002005B000BD600000205B
:1003E00018ED00E000E400E0F4020020496E6974BA
:1003F0005F5461736B000000F4060020F0B50C46FA
:10040000134605462646102B1BD304F00307C7B935
:1004100000F00307AFB92946324608E080CA80C120
:1004200080CA80C180CA80C180CA80C1103B102BA5
:10043000F4D202E080CA80C11B1F042BFAD20D4601
:10044000164603E016F8017B05F8017B1F00A3F1B7
:100450000103F7D1F0BDF0B50C460546042A15D3CB
:1004600000F0030696B9014644EA042343EA034335
:1004700004E008C108C108C108C1103A102AF8D226
:1004800001E008C1121F042AFBD20D4601E005F865
:10049000014B1600A2F10102F9D1F0BD704700BF77
:1004A000FEE700BFFEE700BFFEE700BFFEE77047C4
:1004B000704710B507F026F807F019F806F0E4FFCA
:1004C00010BD704710B504460BF098FD012010BD1B
:1004D0007CB54FF47F000BF067FC41480BF068FCE3
:1004E0000220012128236422CDE90010A0216E20E2
:1004F00009F01AFF04460220052128236422CDE9D1
:100500000010FA216E2009F00FFF054635A12046A4
:1005100009F061FF35A1284609F05DFF0BF0A8FF47
:10052000012804D100F0A1FC022000F09EFC0BF099
:100530009FFF052805D1012000F082FC022000F079
:100540007FFC7CBD04E0FFF7C3FF142007F078F9BF
:10055000F9E770B586B00121080305F01BFD0AF02C
:1005600067FF24480BF024FC23480BF01BFC4FF4DE
:100570007F000BF019FC0AF0E3FB0DF023F80646B0
:1005800000EBD67044100DF029F8064600EBD6704B
:100590004510A5F1A002214618A00AF03FFD012058
:1005A00002210A220023CDE900210290AFF2EB02E2
:1005B00017A11A4807F0D0FD0120AFF2770102021F
:1005C000174BCDE90132CDE9031000200A23024682
:1005D00014A10090164807F03FF806B070BD000067
:1005E000745B01084C4544204F4E00004C454420AC
:1005F0004F4646002C6E0108808080005241572DE6
:100600004F53205354656D57696E2044656D6F00DC
:10061000546F7563685F54696D657200A40B0020A8
:100620004C0700206775695F7461736B0000000000
:100630004C0B002010B50D2000F08AFB0A2000F0C2
:1006400087FB10BD08B532A64CE00024304600F010
:1006500094FB2BE0684600F05BFB9DF800000D2842
:1006600003D100202C49085521E09DF800000828FE
:1006700010D1002C1ADD601EC4B200202649085596
:10068000082000F065FB202000F062FB082000F04D
:100690005FFB0BE09DF8000042B22046611CCCB22B
:1006A0001D490A549DF8000000F052FBD2E700BF3C
:1006B000FFF7C0FF18480078A0B14FF48062002116
:1006C0001648FFF7C8FE00BF4FF480621349124876
:1006D00007F064FEC5B2114800F04FFBFFF7AAFF18
:1006E000002DF1D0B1E700B585B00120AFF2AB012C
:1006F00002020B4BCDE90132CDE90310002011239A
:10070000024608A100900A4806F0A6FF05B000BD09
:100710007261772D6F7323002810002028110020AC
:10072000D00B00205368656C6C205461736B000023
:10073000D00F0020F0B587B005460F4614460020C4
:1007400004900590069003AA0121204607F0B7FE09
:100750000646314604A8039AFFF750FE002004A97C
:10076000039A885402A904A800F0F2F803AA02210F
:10077000204607F0A4FE0646314604A8039AFFF778
:100780003DFE002004A9039A885401A904A800F0A2
:10079000DFF80298012802D0022826D111E0019842
:1007A00020B1012806D100F060FB08E0012000F034
:1007B00047FB04E037A1284607F023FF00BF00BF36
:1007C00018E0019810B1012808D103E0022000F0E0
:1007D00037FB08E0022000F048FB04E02DA128468A
:1007E00007F00FFF00BF00BF04E030A1284607F06C
:1007F00008FF00BF00BF012007B0F0BD0BE00120E3
:1008000000F048FB322007F01BF8022000F042FB0A
:10081000322007F015F8F2E770B586B004460D46B1
:1008200016460120AFF22B018022264BCDE9013282
:10083000CDE9031000201023024623A10090254893
:1008400006F00AFF012006B070BD70B504460D46E3
:100850001646204807F0C8F8012070BD70B5044660
:100860000D4616461B4807F031F9012070BD10B542
:1008700019491A4807F064FD19491A4807F060FD44
:1008800019491A4807F05CFD19491A4807F058FD44
:1008900010BD000070617261322069732065727250
:1008A0006F722830206F72203129090070617261E7
:1008B00031206973206572726F7228312C322909D8
:1008C00000000000281500204C45445F5461736B04
:1008D0000000000028170020000000200438010854
:1008E00008000020143801081000002024380108F6
:1008F0001800002034380108F0B5034614460020E3
:1009000000220DE0B3FBF4F604FB1636184F17F87F
:1009100006C00646471CF8B201F806C0B3FBF4F364
:10092000002BEFD100260E5400B90E70002209E012
:100930008D5C861A761E8E5D8E54861A761E8D55B7
:10094000561CF2B200EBD077B2EB670FF0DBF0BDD4
:1009500010B5002207E010F8014B02EB820304EB14
:100960004303A3F130020378002BF4D10A6010BDD9
:10097000200000207CB504460D461646002000905D
:1009800001902FA1204607F03CFE31208DF8000099
:100990002E208DF8010030208DF8020035208DF8D2
:1009A000030036208DF8040000208DF8050069460C
:1009B000204607F026FE01207CBDFEB505460E460A
:1009C00017462448006800902248001F00680190E4
:1009D00020480838006802901E480A3004881EA08B
:1009E000009900F0E4F921A0019900F0E0F921A0BC
:1009F000029900F0DCF9214620A000F0D8F901208E
:100A0000FEBD00BFBFF34F8F2148006800F4E060D7
:100A100020490843001D1E490860BFF34F8F00BFE7
:100A200000BFFEE710B51C491C4807F089FC1C49B3
:100A30001C4807F085FC1C491C4807F081FC10BDD0
:100A40005241572D4F532056657273696F6E3A208D
:100A500000000000187AFF1F636869702069643A1B
:100A60002020202030582530385820002530385894
:100A70002000000025303858200D0A00466C6173B4
:100A8000682053697A653A202564204B420D0A009C
:100A90000CED00E00000FA053000002044380108A9
:100AA0003800002054380108400000206438010854
:100AB0002DE9F8430746884691460E4804680CE045
:100AC0002668A4F120056946284606F060FEE96C18
:100AD00009A0009A00F06BF9344606488442EFD131
:100AE0000120BDE8F88310B51049114807F028FC33
:100AF00010BD0000C00000207461736B206E616D3A
:100B0000652069732025313573202A2A2A207461D3
:100B1000736B206672656520737461636B20736903
:100B20007A652069732025640D0A000048000020C2
:100B300074380108014606E0002000E0401C42F243
:100B400010729042FAD30A00A1F10101F4D170476A
:100B50007CB504460D46164600F0ADFE4FF47A70A3
:100B6000FFF7E8FF4FF6E07000F07BFD4FF47A707E
:100B7000FFF7E0FF4FF4784000F073FD4FF47A7018
:100B8000FFF7D8FF1F2000F06CFD4FF47A70FFF7DD
:100B9000D1FF4FF4FC6000F064FD4FF47A70FFF772
:100BA000C9FF002000F05DFD4FF47A70FFF7C2FF2F
:100BB0004FF6FF7000F055FD4FF47A70FFF7BAFF63
:100BC0004FF2DE7000F04DFD4FF47A70FFF7B2FF88
:100BD00040F21F5000F045FD4FF47A70FFF7AAFF76
:100BE0004FF61F0000F03DFD4FF4784064231A4695
:100BF00014210090084603F07FFE4FF6E070642356
:100C0000DC2214210090782003F026FF08A0102198
:100C10000B46C822CDE90010B421142004F021F8BD
:100C200001207CBD10B50849084807F089FB10BDBC
:100C300048656C6C6F2054686973206973204C435D
:100C4000442054657374000050000020843801086B
:100C50001CB50121084605F09DF9072209216348CA
:100C600004F085FF07220A21604804F080FF4FF45A
:100C7000C060009002208DF804008DF805006946E0
:100C80005A4804F0E9FE1CBD08B54FF4407004F06A
:100C9000E9FA25208DF8000000208DF801008DF87C
:100CA000020001208DF80300684604F0E0FA08BD58
:100CB0001FB50446FFF7CCFF0121102005F0C4F951
:100CC00000940020ADF80400ADF80600ADF808006F
:100CD000ADF80C000C20ADF80A006946444805F058
:100CE00000FB40F22771424805F06BFC012240F204
:100CF00025513F4805F033FCFFF7C6FF01213C4872
:100D000005F077FB00223BA13D4806F067FA1FBDC6
:100D100010B504464FF0FF31394806F001FB344866
:100D200005F096FB207010BD10B506F0EBFB40F20D
:100D300025512F4805F04EFC38B140F225512C4882
:100D400005F083FC2E4806F0AAFA06F09DFB10BDC4
:100D500010B5044600BF4021254805F025FC0028B9
:100D6000F9D02146224805F06FFB00BF4021204802
:100D700005F01AFC0028F9D010BD10B5044600BFDC
:100D800040211B4805F010FC0028F9D00BE014F8B6
:100D9000011B174805F058FB00BF4021144805F01F
:100DA00003FC0028F9D020780028F0D110BD0FB442
:100DB00000B5ADF5017D83A880906846809A829940
:100DC00007F00AFE002080906846FFF7D6FF0DF579
:100DD000017D5DF814FB00BF054A128802F0400255
:100DE000002AF9D0C2B2024B9A807047000002403C
:100DF000001001405553415254315F53454D00009E
:100E0000801700201CB50121202005F0C3F84FF405
:100E1000C060009001208DF8040000208DF80600CD
:100E200001208DF8070002208DF80500694626484C
:100E300004F012FE4FF4C061234804F089FE1CBD8B
:100E400010B50446012C02D0022C0CD105E04FF461
:100E500000711D4804F07CFE05E04FF480611A48E3
:100E600004F076FE00BF00BF10BD10B50446012C93
:100E700002D0022C0CD105E04FF40071124804F0AE
:100E800069FE05E04FF480610F4804F063FE00BF87
:100E900000BF10BD012802D0022812D108E00A4983
:100EA0001431096881F40071074A1432116008E0B6
:100EB00005491431096881F48061034A14321160D4
:100EC00000BF00BF70470000001402401CB50121A4
:100ED000084605F05FF80121102005F05BF80121BC
:100EE000880305F0B1F80120009000208DF804007F
:100EF0008DF8070069461D4804F0AEFD1C200090E7
:100F000000208DF8040001208DF80700694618487C
:100F100004F0A2FD1CBD10B504461648006870B16F
:100F20000421134804F0FAFD0821114804F0F6FDED
:100F300010210F4804F0F2FD00200E4908600D4812
:100F4000006888B904210A4804F0E8FD48B1082186
:100F5000074804F0E3FD20B11021054804F0DEFD50
:100F600010B9012003490860002010BD00000240B4
:100F70000010024058000020014606E0002000E07A
:100F8000401C42F210729042FAD30A00A1F1010112
:100F9000F4D17047FE4A10804FF0D842A2F880107A
:100FA000704710B50446FA4804800120FFF7E4FFBB
:100FB0004FF0D840B0F8800010BD00B5F5488088EB
:100FC00049F2413188420BD0F248808846F604014C
:100FD000884205D0EF48808845F21031884203D11D
:100FE0002920EB4908800FE0EA48808845F210513B
:100FF000884204D14FF42450E549088004E040F2CF
:1010000073110720FFF7C6FF00BD00B5E1488088D7
:1010100049F2413188420BD0DE48808846F604010F
:10102000884205D0DB48808845F21031884203D1E0
:101030002820D74908800EE0D648808845F2105114
:10104000884204D14FF42050D149088003E00021A8
:101050000720FFF79FFF00BD2DE9F0410446002364
:101060009846CC48807901281ED1CA48808846F627
:101070000401884218D0082C15D2DFE804F00406D9
:10108000080A0C0E101206240DE007240BE00424BD
:1010900009E0052407E0012405E0002403E003241F
:1010A00001E0022400BF00BFBA48808849F2413104
:1010B000884211D0B748808846F6040188420BD098
:1010C000B448808845F21031884205D0B148808804
:1010D00045F21051884274D1082C1CD2DFE804F08C
:1010E0000406090C0F12151800BF14E043F080032A
:1010F00011E043F040030EE043F0C0030BE043F087
:10110000200308E043F0600305E043F0A00302E0A1
:1011100043F0E00300BF00BF9E48808845F21051B5
:10112000884202D14FF4585801E04FF036089948F0
:10113000808845F21031884207D09648808845F271
:101140001051884201D043F008039248808846F647
:101150000401884201D143F0020319464046FFF7DB
:1011600019FF03F0200018B98A48807901280DD1B1
:101170008848008887494988884214DA8548078862
:10118000408884490880084647800CE081480088F0
:1011900080494988884206DD7E48078840887D4925
:1011A0000880084647807B48807901280AD1794821
:1011B000808846F60401884204D07648458806882F
:1011C00003E081E07348058846887248808845F2CC
:1011D000105188424CD16F4840896D4908800020E9
:1011E0004FF0D841A1F880006A484089401C684906
:1011F000088000204FF0D841A1F880006548408960
:10120000801CA1F87E00681EC0F30F20A1F88000AA
:1012100060484089C01CA1F87E00681EC0B2A1F8D9
:1012200080005C4880895A49088000204FF0D841EE
:10123000A1F8800057488089401C5549088000204B
:101240004FF0D841A1F8800052488089801CA1F855
:101250007E00701EC0F30F20A1F880004D488089E9
:10126000C01CA1F87E00701EC0B2A1F880005FE033
:10127000484840894649088000204FF0D841A1F8ED
:1012800080004349891C0880681EC0F30F204FF07E
:10129000D841A1F88000681EC0B2A1F880003D4886
:1012A00080893B4908800020891C08804FF0D84184
:1012B000A1F88000701EC0F30F20A1F88000701EFE
:1012C000C0B2A1F8800033E0082C1CD2DFE804F0A3
:1012D00004070A0D0F12151843F0300313E043F012
:1012E000100310E043F020030DE000BF0BE043F0DB
:1012F000380308E043F0280305E043F0180302E058
:1013000043F0080300BF00BF2248808848F68911D7
:10131000884205D14FF0110846F24000034303E034
:101320004FF0030843F4805319464046FFF732FE5E
:10133000BDE8F08110B50446002C58D115498871DC
:10134000F02008804FF4A07048800846808849F259
:10135000413188420BD00F48808846F6040188420C
:1013600005D00C48808845F21031884220D12C20CD
:10137000084908812A2048812B20888108468088D6
:1013800046F6040188420BD00248808804E0000041
:101390007E00006C9817002045F21031884206D17B
:1013A0004FF4A070FE4908804FF4F070488079E057
:1013B000FB48808845F21051884210D14FF43050DC
:1013C000F74908814FF4285048814FF42C50888108
:1013D0004FF4F07008804FF44870488062E022209B
:1013E000EF49088120204881212088815AE001208E
:1013F000EB4988714FF4A0700880F02048800846BF
:10140000808849F24131884205D0E548808845F21C
:101410001031884207D12C20E14908812A204881D7
:101420002B2088812BE0DE48808846F60401884224
:1014300007D12C20DA4908812B2048812A20888175
:101440001DE0D748808845F21051884210D14FF4F2
:101450003050D34908814FF4285048814FF42C5024
:1014600088814FF4487008804FF4F070488006E09F
:101470002220CB4908812120488120208881C8482A
:10148000808846F60401884205D0C548808845F228
:101490001031884206D14FF4F070C14908804FF4F2
:1014A000A07048800020FFF7D7FD10BD2DE9FF5F39
:1014B00004460D4616461F46A019401E86B2E8197E
:1014C000401E87B2B648808849F2413188420BD02D
:1014D000B348808845F21031884205D0B0488088F2
:1014E00046F60401884224D1AD484089AD490880C0
:1014F00020124FF0D841A1F88000E0B2A949891C20
:10150000088030120880F0B24FF0D841A1F8800076
:10151000A3488089A34908802812891C0880E8B262
:10152000088038120880F8B24FF0D841A1F8800046
:1015300087E09B48808845F2105188424ED19848F8
:1015400040899849088020124FF0D841A1F88000C6
:1015500093484089401C93490880E0B24FF0D8413D
:10156000A1F880008E484089801C8E490880301286
:101570004FF0D841A1F8800089484089C01C8949B2
:101580000880F0B24FF0D841A1F8800084488089EB
:101590008449088028124FF0D841A1F88000804883
:1015A0008089401C7F490880E8B24FF0D841A1F8FB
:1015B00080007B488089801C7A49088038124FF06F
:1015C000D841A1F8800076488089C01C7549088000
:1015D000F8B24FF0D841A1F8800032E0704880792D
:1015E00001280ED1A846B9466D480088801B401ED0
:1015F0001FFA80FA6A480088001B401E1FFA80FB11
:1016000003E0A046B146AA46BB46502003905120B5
:101610000290522001905320009041460398FFF71A
:10162000B9FC49460298FFF7B5FC51460198FFF70F
:10163000B1FC59460098FFF7ADFC294620460CF056
:10164000AFF9BDE8FF9F70B505460E46144631461A
:1016500028460CF0A5F90CF081FA5248801C048051
:1016600070BD70B5044600264D4805884088454346
:101670004B48808846F60401884216D14848807954
:10168000012812D10020464988712A2048812B2048
:101690008881002108460CF083F9012040498871B7
:1016A0002B2048812A20888103E0002108460CF085
:1016B00077F90CF053FA002603E03A48801C0480C6
:1016C000761CAE42F9D370BD10B504462CB14FF470
:1016D0000041354804F03CFA04E04FF40041324840
:1016E00004F038FA10BD00B597B00121084604F0A7
:1016F00089FC012001900020029009200390002025
:101700000490059006904FF08050079006200890B6
:10171000002009900A9010200B9000200C900D9052
:101720000E900F9010904FF4805011900020129066
:101730001390149001A81590169008A803F01DFEB0
:101740000121062003F0C5FE17B000BD1CB5012124
:10175000022004F01FFC4FF40040009001208DF89F
:10176000040000208DF8060001208DF807000320FA
:101770008DF8050069460C4804F06EF94FF40041FD
:10178000094804F0E7F90121782004F003FC4CF249
:101790003370009002208DF80400032006E0000062
:1017A000981700207E00006C000402408DF80500B0
:1017B00000208DF806008DF807006946FE4804F009
:1017C0004BF90C220021FC4804F0D1F90C22012134
:1017D000F94804F0CCF90C220421F74804F0C7F9C9
:1017E0000C220521F44804F0C2F90C220821F24829
:1017F00004F0BDF90C220921EF4804F0B8F90C22DD
:101800000A21ED4804F0B3F90C220E21EA4804F055
:10181000AEF90C220F21E84804F0A9F94FF68070C8
:1018200000906946E54804F017F90C220721E348C7
:1018300004F09DF90C220821E04804F098F90C22EC
:101840000921DE4804F093F90C220A21DB4804F058
:101850008EF90C220B21D94804F089F90C2211468B
:10186000D64804F084F90C220D21D44804F07FF905
:101870000C220E21D14804F07AF90C220F21CF4816
:1018800004F075F94FF4805000906946CC4804F09C
:10189000E3F80C221146CA4804F069F94FF480506D
:1018A00000906946C74804F0D7F80C221146C54895
:1018B00004F05DF91CBD10B5FFF748FFFFF713FFFB
:1018C00001210020FFF766FB3220FFF755FB0020C7
:1018D000FFF767FBBC49888008468088FF280ADB41
:1018E000084680884FF6FF71884204D0B648808849
:1018F000B0F5134F7ED1D320B4490880881C0088EE
:10190000B1498880B148801C00888880AF48801C1D
:1019100000888880084680884FF6FF7101EA002021
:10192000A9498880084680884FF0D841B1F88010D6
:101930000843A54988800846808849F24131884299
:1019400058D0BF20A1490880881C00889E49888003
:101950009E48801C008888809C48801C0088888065
:101960009A48801C00888880084680884FF6FF715E
:1019700001EA002094498880084680884FF0D841C9
:10198000B1F880100843904988800846808846F660
:101990000401884256D0D4208C490880881C0088D5
:1019A000894988808948801C008888808748801CF5
:1019B00000888880084680884FF6FF7101EA002081
:1019C00081498880084680884FF0D841B1F880105E
:1019D00008437D4988800846808845F21031884256
:1019E00030D04FF45A4079490880881C00887649E5
:1019F000888000E026E04FF45B408104A1F87E007F
:101A00007248801C008870498880084680884FF69C
:101A1000FF7101EA00206C4988804FF45C404FF070
:101A2000D841A1F87E0068488088B1F8801008434A
:101A30006549888008468088B0F5004F02D145F29C
:101A4000105088806048808849F2413188420BD02C
:101A50005D48808845F21031884205D05A48808818
:101A600045F2105188421DD15948006820F00F00FE
:101A70004FF02041C1F81C010846D0F81C0120F4A9
:101A80007060C1F81C010846D0F81C0140F003004A
:101A9000C1F81C010846D0F81C0140F40070C1F8E0
:101AA0001C0128E04848808846F60401884205D099
:101AB000454880884CF2055188421CD14448006852
:101AC00020F00F004FF02041C1F81C010846D0F86B
:101AD0001C0120F47060C1F81C010846D0F81C01FC
:101AE00040F00A00C1F81C010846D0F81C0140F47F
:101AF0004060C1F81C013448808849F24131884275
:101B000068D1CF203149088000204FF0D841A1F89A
:101B10008000641CC1202D49891C08803020088069
:101B2000ED20891E08806420891C0880032008801D
:101B30001220088081200880E820891E08808520E6
:101B4000891C0880102008807A200880CB20891EFC
:101B500008803920891C08802C20088000200880FB
:101B60003420088002200880F720891E0880202069
:101B7000891C0880EA20891E08800020891C0880B2
:101B80000880C020891E08801B20891C0880C12075
:101B9000891E08800120891C0880C520891E0880B4
:101BA0003020891C08800880C720891E0880B72043
:101BB000891C088036200EE0000C02400010024014
:101BC0000014024000180240981700207E00006CAC
:101BD0001C0100A089E0891E08804820891C08801B
:101BE0003A20891E08805520891C0880B120891E52
:101BF00008800020891C08801A200880B620891ED1
:101C000008800A20891C0880A2200880F220891EF2
:101C100008800020891C08802620891E0880012059
:101C2000891C0880E020891E08800F20891C0880FC
:101C30002A20088028200880082008800E2008809C
:101C40000820088054200880A920088043200880AC
:101C50000A2008800F200880002008800880088063
:101C60000880E120891E08800020891C088015203A
:101C7000088017200880072008801120088006208F
:101C800008802B200880562008803C2008800520F2
:101C90000880102008800F2008803F2008800880DE
:101CA0000F2008802B20891E08800020891C0880B6
:101CB0000880012008803F2008802A20891E088093
:101CC0000020891C088008800880EF2008801120EF
:101CD0004FF0D841A1F87E004FF49660FFF74CF921
:101CE0002920FE49088002F0FCBDFD48808846F6A8
:101CF000040188427ED11120F84908801420FFF7A2
:101D00003BF9D0204FF0D841A1F87E000720F349DD
:101D1000891C0880422008801D200880D120891E4F
:101D200008800020891C08801A200880092008806B
:101D3000D220891E08800120891C0880222008806A
:101D4000C020891E08801020891C08803B20088044
:101D5000002008800220088011200880C520891EEC
:101D600008800320891C0880C820891E0880002064
:101D7000891C0880252008802120088005200880F3
:101D8000002008800A20088065200880252008801F
:101D900077200880502008800F20088000200880CD
:101DA000F820891E08800120891C0880FE20891ED9
:101DB00008800020891C0880022008802020891EBD
:101DC0000880362008800820891C08803A20891E57
:101DD00008805520891C08802B20891E088000203F
:101DE000891C08800880012008803F2008802A2064
:101DF000891E00E014E008800020891C088008800B
:101E000001200880DF204FF0D841A1F88000782021
:101E1000FFF7B2F829204FF0D841A1F87E0062E721
:101E2000AF48808845F21031884240F02C85ED2083
:101E3000AA49088001204FF0D841A1F88000FE2077
:101E4000A649891C0880EE20891E0880DE20891C96
:101E5000088021200880F120891E08800120891C2B
:101E60000880DF20891E08801020891C0880C4207B
:101E7000891E08808F20891C0880C620891E088042
:101E80000020891C0880E220088008800880BF208C
:101E9000891E0880AA20891C0880B020891E08801D
:101EA0000D20891C0880002008800D20088000205B
:101EB0000880112008800020088019200880002058
:101EC000088021200880002008802D200880002024
:101ED00008803D200880002008805D2008800020C8
:101EE00008805D20088000200880B120891E0880BD
:101EF0008020891C0880002008808B20088000201A
:101F000008809620088000200880B220891E088062
:101F10000020891C0880088002200880002008809A
:101F20000320088000200880B320891E088000203C
:101F3000891C088008800880088008800880088044
:101F40000880088008800880088008800880088051
:101F50000880088008800880088008800880088041
:101F60000880B420891E08808B20891C08800020EE
:101F700008809620088000200880A120088000208A
:101F80000880B520891E08800220891C0880002056
:101F9000088003200880002008800420088000209A
:101FA0000880B620891E08800020891C08800880CF
:101FB000B720891E08800020891C088008803F20E7
:101FC0000880002008805E200880002008806420AF
:101FD0000880002008808C20088000200880AC2029
:101FE000088000200880DC20088000200880702005
:101FF0000880002008809020088000200880EB20C6
:10200000088000200880DC20088000200880B8209C
:10201000891E08800020891C0880088008800880AC
:102020000880088008800880BA20891E0880242043
:102030004FF0D841A1F8800000202849891C088071
:102040004FF0D841A1F880002449891C0880C120A4
:10205000891E08802020891C0880002008805420C8
:10206000088000200880FF20088000200880C2200F
:10207000891E08800A20891C08800020088004200E
:10208000088000200880C320891E08803C20891C0D
:102090000880002008803A2008800020088039202D
:1020A00008800020088037200880002008803C201D
:1020B0000880002008803620088000200880322018
:1020C0000880002008802F200880002008802C2015
:1020D0000880002008802920088003E07E00006C32
:1020E0009817002000200880262008800020088003
:1020F00024200880002008802420088000200880F8
:1021000023200880002008803C20088000200880D0
:1021100036200880002008803220088000200880B7
:102120002F200880002008802C20088000200880B4
:1021300029200880002008802620088000200880B0
:1021400024200880002008802420088000200880A7
:102150002320088000200880C420891E0880622077
:10216000891C088000200880052008800020088045
:102170008420088000200880F0200880002008804B
:102180001820088000200880A420088000200880F3
:102190001820088000200880502008800020088037
:1021A0000C2008800020088017200880002008806C
:1021B0009520088000200880F320088000200880F7
:1021C000E620088000200880C520891E0880322073
:1021D000891C088000200880442008800020088096
:1021E0006520088000200880762008800020088074
:1021F0008820088000200880C620891E08802020B2
:10220000891C088000200880172008800020088092
:102210000120088000200880C720891E0880002037
:10222000891C0880088008800880C820891E0880D2
:102230000020891C0880088008800880C920891E29
:1022400008800020891C0880088008800880088099
:10225000088008800880088008804FF0D841A1F8E5
:102260008000FE4908800880088008800880E020FF
:10227000891E08801620891C0880002008801C20E8
:102280000880002008802120088000200880362057
:102290000880002008804620088000200880522006
:1022A00008800020088064200880002008807A20B0
:1022B0000880002008808B2008800020088099205A
:1022C000088000200880A820088000200880B9200D
:1022D000088000200880C420088000200880CA20D0
:1022E000088000200880D220088000200880D920A3
:1022F000088000200880E020088000200880F3206B
:10230000088000200880E120891E08801620891C92
:102310000880002008801C200880002008802220DF
:102320000880002008803620088000200880452092
:102330000880002008805220088000200880642047
:102340000880002008807A200880002008808B20E8
:102350000880002008809920088000200880A8209C
:10236000088000200880B920088000200880C42050
:10237000088000200880CA20088000200880D22021
:10238000088000200880D820088000200880E020F5
:10239000088000200880F320088000200880E220C8
:1023A000891E08800520891C0880002008800B20D9
:1023B0000880002008801B2008800020088034202E
:1023C00008800020088044200880002008804F20DA
:1023D0000880002008806120088000200880792083
:1023E000088000200880882008800020088097202E
:1023F000088000200880A620088000200880B720E0
:10240000088000200880C220088000200880C720A3
:10241000088000200880D120088000200880D62075
:10242000088000200880DD20088000200880F3203C
:10243000088000200880E320891E08800520891C70
:102440000880002008800A200880002008801C20C6
:102450000880002008803320088000200880442065
:102460000880002008805020088000204FF0D841CC
:10247000A1F8800062207949088000200880782037
:10248000088000200880882008800020088097208D
:10249000088000200880A620088000200880B7203F
:1024A000088000200880C220088000200880C72003
:1024B000088000200880D120088000200880D520D6
:1024C000088000200880DD20088000200880F3209C
:1024D000088000200880E420891E08800120891CD3
:1024E0000880002008800120088000200880022049
:1024F0000880002008802A200880002008803C20D6
:102500000880002008804B200880002008805D2083
:102510000880002008807420088000200880842023
:102520000880002008809320088000200880A220D6
:10253000088000200880B320088000200880BE208A
:10254000088000200880C420088000200880CD205A
:10255000088000200880D320088000200880DD202B
:10256000088000200880F320088000200880E520F3
:10257000891E08800020891C088008800880088047
:102580000220088000200880292008800020088080
:102590003C200880002008804B2008800020088014
:1025A0005D200880002008807420088000200880BA
:1025B0008420088000200880932008800020088064
:1025C000A220088000200880B32008800020088016
:1025D000BE20088000200880C420088000200880D9
:1025E000CD20088000200880D320088000200880AB
:1025F000DC20088000200880F3200880002008806C
:10260000E620891E08801120891C0880002008808F
:102610003420088000200880562008800020088090
:10262000762008800020088077200880002008801D
:10263000662008800020088088200880002008800C
:102640009920088000200880BB2008800020088096
:102650009920088000200880662001E08000006C3E
:102660000880002008805520088000200880552020
:102670000880002008804520088000200880432032
:10268000088000204FF0D841A1F880004420FE4986
:10269000088000200880E720891E08803220891CDD
:1026A00008800020088055200880002008807620BF
:1026B00008800020088066200880002008806720AD
:1026C000088000200880672008800020088087207C
:1026D0000880002008809920088000200880BB2006
:1026E000088000200880992008800020088077203A
:1026F00008800020088044200880002008805620A0
:1027000008800020088023200880002008803320D3
:102710000880002008804520088000200880E820EC
:10272000891E08800020891C088008809920088064
:1027300000200880872008800020088088200880EA
:10274000002008807720088000200880662008800C
:10275000002008808820088000200880AA200880A7
:1027600000200880BB200880002008809920088075
:1027700000200880662008800020088055200880FE
:102780000020088055200880002008804420088010
:102790000020088044200880002008805520088000
:1027A00000200880E920891E0880AA20891C088052
:1027B0000020088008800880891E0880AA20891CC3
:1027C0000880CF20891E08800020891C088008808E
:1027D00008800880088008800880088008800880B9
:1027E0000880088008800880088008800880F02021
:1027F000891E08800020891C088050200880002045
:10280000088008800880F320891E08800020891C29
:102810000880F920891E08800620891C0880102065
:10282000088029200880002008803A20891E08801E
:102830005520891C088011204FF0D841A1F87E0056
:102840006420FEF799FB29208F49891E08803520D6
:1028500008800020891C08805120891E0880FF20E4
:10286000891C08805320891E08802C20891C088020
:102870005520891E08808220891C08802C20891EF2
:10288000088002F02EB88148808845F210518842B5
:102890007ED155214FF47040FEF77CFBAA214FF208
:1028A0000100FEF777FB52214FF20200FEF772FBA8
:1028B00008214FF20300FEF76DFB01214FF20400E7
:1028C000FEF768FB0D214FF43040FEF763FB0D214E
:1028D0004BF20100FEF75EFB0D214BF20200FEF70A
:1028E00059FB34214FF43640FEF754FB34214BF2B0
:1028F0000160FEF74FFB34214BF20260FEF74AFB0A
:102900000D214FF43140FEF745FB0D214BF2011034
:10291000FEF740FB0D214BF20210FEF73BFB34218A
:102920004FF43740FEF736FB34214BF20170FEF7CF
:1029300031FB34214BF20270FEF72CFB00214FF4E7
:102940003240FEF727FB00214BF20120FEF722FB6D
:1029500000214BF20220FEF71DFB24214FF43840EA
:10296000FEF718FB24214BF60100FEF713FB242190
:102970004BF60200FEF70EFB01214FF43F40FEF73D
:1029800009FB0F214FF43340FEF704FB0F2100E059
:10299000FEE34BF20130FEF7FDFA0F214BF202305D
:1029A000FEF7F8FA34214FF43940FEF7F3FA3421F8
:1029B0004BF60110FEF7EEFA34214BF60210FEF74B
:1029C000E9FA08214FF43540FEF7E4FA08214BF20A
:1029D0000150FEF7DFFA08214BF20250FEF7DAFA57
:1029E00003214FF44240FEF7D5FA24214FF43A4038
:1029F000FEF7D0FA24214BF60120FEF7CBFA242172
:102A00004BF60220FEF7C6FA00214FF43C40FEF7D9
:102A1000C1FA78214BF60140FEF7BCFA00214BF6D3
:102A20000240FEF7B7FA00214FF43D40FEF7B2FA3C
:102A300078214BF60150FEF7ADFA00214BF602501B
:102A4000FEF7A8FA00214FF43E40FEF7A3FA6421F6
:102A50004BF60160FEF79EFA00214FF45140FEF75D
:102A600099FA33214DF20110FEF794FA00214DF24C
:102A70000210FEF78FFA34214DF20310FEF78AFAA6
:102A800000214DF2041003E08000006C9817002034
:102A9000FEF780FA3A214DF20510FEF77BFA00218D
:102AA0004DF20610FEF776FA4A214DF20710FEF7B6
:102AB00071FA00214DF20810FEF76CFA5C214DF21C
:102AC0000910FEF767FA00214DF20A10FEF762FACC
:102AD00081214DF20B10FEF75DFA00214DF20C1032
:102AE000FEF758FAA6214DF20D10FEF753FA002119
:102AF0004DF20E10FEF74EFAE5214DF20F10FEF7E3
:102B000049FA01214DF21010FEF744FA13214DF25B
:102B10001110FEF73FFA01214DF21210FEF73AFABA
:102B200054214DF21310FEF735FA01214DF2141025
:102B3000FEF730FA82214DF21510FEF72BFA012133
:102B40004DF21610FEF726FACA214DF21710FEF7C5
:102B500021FA02214DF21810FEF71CFA00214DF265
:102B60001910FEF717FA02214DF21A10FEF712FAA9
:102B700001214DF21B10FEF70DFA02214DF21C103F
:102B8000FEF708FA34214DF21D10FEF703FA022178
:102B90004DF21E10FEF7FEF967214DF21F10FEF7F1
:102BA000F9F902214DF22010FEF7F4F984214DF2DB
:102BB0002110FEF7EFF902214DF22210FEF7EAF99B
:102BC000A4214DF22310FEF7E5F902214DF2241065
:102BD000FEF7E0F9B7214DF22510FEF7DBF90221EF
:102BE0004DF22610FEF7D6F9CF214DF22710FEF751
:102BF000D1F902214DF22810FEF7CCF9DE214DF279
:102C00002910FEF7C7F902214DF22A10FEF7C2F98A
:102C1000F2214DF22B10FEF7BDF902214DF22C10DE
:102C2000FEF7B8F9FE214DF22D10FEF7B3F903219E
:102C30004DF22E10FEF7AEF910214DF22F10FEF7D7
:102C4000A9F903214DF23010FEF7A4F933214DF21A
:102C50003110FEF79FF903214DF23210FEF79AF979
:102C60006D214DF23310FEF795F900214FF45240DB
:102C7000FEF790F933214DF20120FEF78BF9002188
:102C80004DF20220FEF786F934214DF20320FEF7C3
:102C900081F900214DF20420FEF77CF93A214DF232
:102CA0000520FEF777F900214DF20620FEF772F9B4
:102CB0004A214DF20720FEF76DF900214DF2082060
:102CC000FEF768F95C214DF20920FEF763F9002157
:102CD0004DF20A20FEF75EF981214DF20B20FEF73E
:102CE00059F900214DF20C20FEF754F9A6214DF2BE
:102CF0000D20FEF74FF900214DF20E20FEF74AF9A4
:102D0000E5214DF20F20FEF745F901214DF210208B
:102D1000FEF740F913214DF21120FEF73BF9012196
:102D20004DF21220FEF736F954214DF21320FEF732
:102D300031F901214DF21420FEF72CF982214DF2D8
:102D40001520FEF727F901214DF21620FEF722F992
:102D5000CA214DF21720FEF71DF902214DF218206D
:102D6000FEF718F900214DF21920FEF713F90221A0
:102D70004DF21A20FEF70EF901214DF21B20FEF74D
:102D800009F902214DF21C20FEF704F934214DF21D
:102D90001D20FEF7FFF802214DF21E20FEF7FAF883
:102DA00067214DF21F20FEF7F5F802214DF2202099
:102DB000FEF7F0F884214DF22120FEF7EBF8022116
:102DC0004DF22220FEF7E6F8A4214DF22320FEF773
:102DD000E1F802214DF22420FEF7DCF8B7214DF294
:102DE0002520FEF7D7F802214DF22620FEF7D2F873
:102DF000CF214DF22720FEF7CDF802214DF22820F9
:102E0000FEF7C8F8DE214DF22920FEF7C3F80221B3
:102E10004DF22A20FEF7BEF8F2214DF22B20FEF7EC
:102E2000B9F802214DF22C20FEF7B4F8FE214DF244
:102E30002D20FEF7AFF803214DF22E20FEF7AAF861
:102E400010214DF22F20FEF7A5F803214DF230207E
:102E5000FEF7A0F833214DF23120FEF79BF8032155
:102E60004DF23220FEF796F86D214DF23320FEF739
:102E700091F800214FF45340FEF78CF833214DF2C6
:102E80000130FEF787F800214DF20230FEF782F89C
:102E900034214DF20330FEF77DF800214DF204306D
:102EA000FEF778F83A214DF20530FEF773F800216D
:102EB0004DF20630FEF76EF84A214DF20730FEF76C
:102EC00069F800214DF20830FEF764F85C214DF2FC
:102ED0000930FEF75FF800214DF20A30FEF75AF88C
:102EE00081214DF20B30FEF755F800214DF20C30E8
:102EF000FEF750F8A6214DF20D30FEF74BF80021F9
:102F00004DF20E30FEF746F8E5214DF20F30FEF798
:102F100041F801214DF21030FEF73CF813214DF23B
:102F20001130FEF737F801214DF21230FEF732F87A
:102F300054214DF21330FEF72DF801214DF21430DB
:102F4000FEF728F882214DF21530FEF723F8012113
:102F50004DF21630FEF71EF8CA214DF21730FEF77B
:102F600019F802214DF21830FEF714F800214DF245
:102F70001930FEF70FF802214DF21A30FEF70AF869
:102F800001214DF21B30FEF705F802214DF21C30F5
:102F9000FEF700F834214DF21D30FDF7FBFF022152
:102FA0004DF21E30FDF7F6FF67214DF21F30FDF7A1
:102FB000F1FF02214DF22030FDF7ECFF84214DF2AC
:102FC0002130FDF7E7FF02214DF22230FDF7E2FF4D
:102FD000A4214DF22330FDF7DDFF02214DF2243014
:102FE000FDF7D8FFB7214DF22530FDF7D3FF0221C1
:102FF0004DF22630FDF7CEFFCF214DF22730FDF701
:10300000C9FF02214DF22830FDF7C4FFDE214DF249
:103010002930FDF7BFFF02214DF22A30FDF7BAFF3C
:10302000F2214DF22B30FDF7B5FF02214DF22C308D
:10303000FDF7B0FFFE214DF22D30FDF7ABFF032170
:103040004DF22E30FDF7A6FF10214DF22F30FDF787
:10305000A1FF03214DF23030FDF79CFF33214DF2EB
:103060003130FDF797FF03214DF23230FDF792FF2B
:103070006D214DF23330FDF78DFF00214FF45440A8
:10308000FDF788FF33214DF20140FDF783FF00215A
:103090004DF20240FDF77EFF34214DF20340FDF773
:1030A00079FF00214DF20440FDF774FF3A214DF203
:1030B0000540FDF76FFF00214DF20640FDF76AFF66
:1030C0004A214DF20740FDF765FF00214DF208400F
:1030D000FDF760FF5C214DF20940FDF75BFF002129
:1030E0004DF20A40FDF756FF81214DF20B40FDF7EE
:1030F00051FF00214DF20C40FDF74CFFA6214DF28F
:103100000D40FDF747FF00214DF20E40FDF742FF55
:10311000E5214DF20F40FDF73DFF01214DF210403A
:10312000FDF738FF13214DF21140FDF733FF012168
:103130004DF21240FDF72EFF54214DF21340FDF7E2
:1031400029FF01214DF21440FDF724FF82214DF2A9
:103150001540FDF71FFF01214DF21640FDF71AFF44
:10316000CA214DF21740FDF715FF02214DF218401C
:10317000FDF710FF00214DF21940FDF70BFF022172
:103180004DF21A40FDF706FF01214DF21B4000E011
:1031900008E3FDF7FFFE02214DF21C40FDF7FAFEA9
:1031A00034214DF21D40FDF7F5FE02214DF21E4087
:1031B000FDF7F0FE67214DF21F40FDF7EBFE022107
:1031C0004DF22040FDF7E6FE84214DF22140FDF74F
:1031D000E1FE02214DF22240FDF7DCFEA4214DF27A
:1031E0002340FDF7D7FE02214DF22440FDF7D2FE29
:1031F000B7214DF22540FDF7CDFE02214DF22640CC
:10320000FDF7C8FECF214DF22740FDF7C3FE022196
:103210004DF22840FDF7BEFEDE214DF22940FDF7BC
:10322000B9FE02214DF22A40FDF7B4FEF2214DF223
:103230002B40FDF7AFFE02214DF22C40FDF7AAFE18
:10324000FE214DF22D40FDF7A5FE03214DF22E404B
:10325000FDF7A0FE10214DF22F40FDF79BFE03214C
:103260004DF23040FDF796FE33214DF23140FDF72F
:1032700091FE03214DF23240FDF78CFE6D214DF29F
:103280003340FDF787FE00214FF45540FDF782FEE5
:1032900033214DF20150FDF77DFE00214DF2025029
:1032A000FDF778FE34214DF20350FDF773FE002147
:1032B0004DF20450FDF76EFE3A214DF20550FDF738
:1032C00069FE00214DF20650FDF764FE4A214DF2E1
:1032D0000750FDF75FFE00214DF20850FDF75AFE42
:1032E0005C214DF20950FDF755FE00214DF20A50C8
:1032F000FDF750FE81214DF20B50FDF74BFE0021F2
:103300004DF20C50FDF746FEA6214DF20D50FDF793
:1033100041FE00214DF20E50FDF73CFEE5214DF23D
:103320000F50FDF737FE01214DF21050FDF732FE30
:1033300013214DF21150FDF72DFE01214DF21250D7
:10334000FDF728FE54214DF21350FDF723FE012115
:103350004DF21450FDF71EFE82214DF21550FDF77F
:1033600019FE01214DF21650FDF714FECA214DF24F
:103370001750FDF70FFE02214DF21850FDF70AFE1F
:1033800000214DF21950FDF705FE02214DF21A50B1
:10339000FDF700FE01214DF21B50FDF7FBFD022160
:1033A0004DF21C50FDF7F6FD34214DF21D50FDF796
:1033B000F1FD02214DF21E50FDF7ECFD67214DF2AB
:1033C0001F50FDF7E7FD02214DF22050FDF7E2FD11
:1033D00084214DF22150FDF7DDFD02214DF22250F6
:1033E000FDF7D8FDA4214DF22350FDF7D3FD0221B6
:1033F0004DF22450FDF7CEFDB7214DF22550FDF7DB
:10340000C9FD02214DF22650FDF7C4FDCF214DF23A
:103410002750FDF7BFFD02214DF22850FDF7BAFD00
:10342000DE214DF22950FDF7B5FD02214DF22A5063
:10343000FDF7B0FDF2214DF22B50FDF7ABFD02215F
:103440004DF22C50FDF7A6FDFE214DF22D50FDF75B
:10345000A1FD03214DF22E50FDF79CFD10214DF2F0
:103460002F50FDF797FD03214DF23050FDF792FDEF
:1034700033214DF23150FDF78DFD03214DF23250D5
:10348000FDF788FD6D214DF23350FDF783FD0021DE
:103490004FF45640FDF77EFD33214DF20160FDF7FC
:1034A00079FD00214DF20260FDF774FD34214DF2EB
:1034B0000360FDF76FFD00214DF20460FDF76AFD2A
:1034C0003A214DF20560FDF765FD00214DF20660E1
:1034D000FDF760FD4A214DF20760FDF75BFD00211D
:1034E0004DF20860FDF756FD5C214DF20960FDF7D5
:1034F00051FD00214DF20A60FDF74CFD81214DF296
:103500000B60FDF747FD00214DF20C60FDF742FD19
:10351000A6214DF20D60FDF73DFD00214DF20E603C
:10352000FDF738FDE5214DF20F60FDF733FD012178
:103530004DF21060FDF72EFD13214DF21160FDF7E5
:1035400029FD01214DF21260FDF724FD54214DF2B9
:103550001360FDF71FFD01214DF21460FDF71AFD08
:1035600082214DF21560FDF715FD01214DF2166027
:10357000FDF710FDCA214DF21760FDF70BFD02218A
:103580004DF21860FDF706FD00214DF21960FDF7C0
:1035900001FD02214DF21A60FDF7FCFC01214DF204
:1035A0001B60FDF7F7FC02214DF21C60FDF7F2FCF9
:1035B00034214DF21D60FDF7EDFC02214DF21E603D
:1035C000FDF7E8FC67214DF21F60FDF7E3FC0221E7
:1035D0004DF22060FDF7DEFC84214DF22160FDF705
:1035E000D9FC02214DF22260FDF7D4FCA4214DF25A
:1035F0002360FDF7CFFC02214DF22460FDF7CAFCE9
:10360000B7214DF22560FDF7C5FC02214DF2266081
:10361000FDF7C0FCCF214DF22760FDF7BBFC022176
:103620004DF22860FDF7B6FCDE214DF22960FDF772
:10363000B1FC02214DF22A60FDF7ACFCF2214DF203
:103640002B60FDF7A7FC02214DF22C60FDF7A2FCD8
:10365000FE214DF22D60FDF79DFC03214DF22E6001
:10366000FDF798FC10214DF22F60FDF793FC03212C
:103670004DF23060FDF78EFC33214DF23160FDF7E5
:1036800089FC03214DF23260FDF784FC6D214DF27F
:103690003360FDF77FFC55214FF47040FDF77AFC55
:1036A000AA214FF20100FDF775FC52214FF20200F2
:1036B000FDF770FC08214FF20300FDF76BFC0021C1
:1036C0004FF20400FDF766FCCC214FF43140FDF7CA
:1036D00061FC00214BF20110FDF75CFC05214FF469
:1036E0003640FDF757FC70214FF43740FDF752FC90
:1036F00070214BF20170FDF74DFC01214FF4384071
:10370000FDF748FC03214BF60100FDF743FC0321C4
:103710004BF60200FDF73EFC03214BF60300FDF7DC
:1037200039FC02214FF43C40FDF734FC00214BF6FC
:103730000140FDF72FFC00214BF60240FDF72AFC6B
:10374000D0214FF44940FDF725FC02214CF6011031
:10375000FDF720FC50214CF60210FDF71BFC502118
:103760004CF60310FDF716FC50214CF60410FDF743
:1037700011FC00214FF45450FDF70CFC55214FF47F
:103780006850FDF707FC4FF48850FE49088005207B
:10379000FDF7F2FB4FF424504FF0D841A1F87E0022
:1037A00001F09FB8F848808849F2253188427DD1E0
:1037B00047F6F001E520FDF7EDFB4FF480710120A5
:1037C000FDF7E8FB4FF4E0610220FDF7E3FB41F277
:1037D00030010320FDF7DEFB00210420FDF7DAFBBA
:1037E00040F202210820FDF7D5FB00210920FDF75A
:1037F000D1FB00210A20FDF7CDFB00210C20FDF7B5
:10380000C9FB00210D20FDF7C5FB00210F20FDF7AE
:10381000C1FB00211020FDF7BDFB07211120FDF7A2
:10382000B9FB00211220FDF7B5FB00211320FDF7A5
:10383000B1FB00210720FDF7ADFB41F290611020A4
:10384000FDF7A8FB40F227211120FDF7A3FB9D21E6
:103850001220FDF79FFB4FF4C8511320FDF79AFB90
:1038600025212920FDF796FB0D212B20FDF792FB4A
:1038700007213020FDF78EFB40F203313120FDF7A8
:1038800089FB03213220FDF785FB40F2062135201C
:10389000FDF780FB08213620FDF77CFB40F2064156
:1038A0003720FDF777FB4FF4417100E058E03820F6
:1038B000FDF770FB07213920FDF76CFB40F2026138
:1038C0003C20FDF767FB08213D20FDF763FB00214D
:1038D0005020FDF75FFBEF215120FDF75BFB00213E
:1038E0005220FDF757FB40F23F115320FDF752FBEA
:1038F0004FF427416020FDF74DFB01216120FDF7CA
:1039000049FB00216A20FDF745FB00218020FDF7DF
:1039100041FB00218120FDF73DFB00218220FDF7C6
:1039200039FB00218320FDF735FB00218420FDF7C2
:1039300031FB00218520FDF72DFB10219020FDF7A4
:1039400029FB4FF4C0619220FDF724FB40F23311B4
:103950000720FDF71FFB22210020FDF71BFB1FE7BF
:103960008948808849F2283188427DD141F28F010F
:10397000EC20FDF70FFB41F23421EF20FDF70AFBAD
:103980004FF480710120FDF705FB4FF4E061022048
:10399000FDF700FB41F230010320FDF7FBFA0021A7
:1039A0000420FDF7F7FA40F202210820FDF7F2FAB1
:1039B00000210920FDF7EEFA00210A20FDF7EAFABE
:1039C00001210C20FDF7E6FA00210D20FDF7E2FAB7
:1039D00000210F20FDF7DEFA00211020FDF7DAFAB2
:1039E00007211120FDF7D6FA00211220FDF7D2FAA7
:1039F00000211320FDF7CEFA01210720FDF7CAFAB6
:103A00003220FDF7B9FA41F290411020FDF7C2FAD9
:103A100040F227211120FDF7BDFA3220FDF7ACFA64
:103A20008A211220FDF7B6FA3220FDF7A5FA4FF4ED
:103A3000D0511320FDF7AEFA06212920FDF7AAFA8E
:103A40000D212B20FDF7A6FA3220FDF795FA002173
:103A50002020FDF79FFA00212120FDF79BFA32205C
:103A6000FDF78AFA002100E075E03020FDF792FAB8
:103A700040F204613120FDF78DFA40F20531322029
:103A8000FDF788FA00213520FDF784FA40F6094158
:103A90003620FDF77FFA4FF401713720FDF77AFAEF
:103AA00040F201313820FDF775FA40F207713920F4
:103AB000FDF770FA00213C20FDF76CFA40F60A2170
:103AC0003D20FDF767FA3220FDF756FA002150201D
:103AD000FDF760FAEF215120FDF75CFA002152203A
:103AE000FDF758FA40F23F115320FDF753FA4FF417
:103AF00027416020FDF74EFA01216120FDF74AFAC7
:103B000000216A20FDF746FA00218020FDF742FAE5
:103B100000218120FDF73EFA00218220FDF73AFACC
:103B200000218320FDF736FA00218420FDF732FAC8
:103B300000218520FDF72EFA10219020FDF72AFAAA
:103B40004FF4C0619220FDF725FA40F233110720AF
:103B5000FDF720FA24E60C48808849F2203188429B
:103B60007ED100210846FDF715FA4FF4807101203F
:103B7000FDF710FA4FF4E0610220FDF70BFA41F275
:103B8000300103E07E00006C981700200320FDF751
:103B900001FA00210420FDF7FDF940F2022108207E
:103BA000FDF7F8F900210920FDF7F4F900210A20BA
:103BB000FDF7F0F901210C20FDF7ECF900210D20B3
:103BC000FDF7E8F900210F20FDF7E4F93220FDF7B9
:103BD000D3F940F201110720FDF7DCF93220FDF79F
:103BE000CBF94FF486511020FDF7D4F907211120AD
:103BF000FDF7D0F94FF488711220FDF7CBF94FF49F
:103C000030611320FDF7C6F900212920FDF7C2F924
:103C100044F210012B20FDF7BDF900215020FDF7E3
:103C2000B9F9EF215120FDF7B5F900215220FDF738
:103C3000B1F940F23F115320FDF7ACF94FF41C519C
:103C40006020FDF7A7F901216120FDF7A3F900210C
:103C50006A20FDF79FF900218020FDF79BF900E025
:103C600032E000218120FDF795F900218220FDF747
:103C700091F900218320FDF78DF900218420FDF7C3
:103C800089F900218520FDF785F910219020FDF7A5
:103C900081F900219220FDF77DF901219320FDF7A4
:103CA00079F94FF488719520FDF774F90021972078
:103CB000FDF770F900219820FDF76CF940F27311BF
:103CC0000720FDF767F96BE5FE48808849F231313E
:103CD00088427DD141F21401E720FDF75BF94FF4F2
:103CE00080710120FDF756F94FF400710220FDF7B5
:103CF00051F941F238010320FDF74CF940F202215D
:103D00000820FDF747F900210920FDF743F90021BC
:103D10000A20FDF73FF900210C20FDF73BF90021B7
:103D20000D20FDF737F900210F20FDF733F90021B1
:103D30001020FDF72FF907211120FDF72BF90021A5
:103D40001220FDF727F900211320FDF723F9C820E1
:103D5000FDF712F941F290611020FDF71BF940F2D6
:103D600027211120FDF716F93220FDF705F90C2166
:103D70001220FDF70FF93220FDF7FEF84FF4006135
:103D80001320FDF707F911212920FDF703F90B2175
:103D90002B20FDF7FFF83220FDF7EEF80021202060
:103DA000FDF7F8F840F23F112120FDF7F3F800216C
:103DB0003020FDF7EFF84FF483713120FDF7EAF87A
:103DC00000213220FDF7E6F84FF40171352000E0C4
:103DD00064E0FDF7DFF841F20A613620FDF7DAF81A
:103DE00040F207713720FDF7D5F84FF48371382082
:103DF000FDF7D0F840F207713920FDF7CBF840F21B
:103E000002413C20FDF7C6F840F60F413D20FDF78A
:103E1000C1F800215020FDF7BDF8EF215120FDF73A
:103E2000B9F800215220FDF7B5F840F23F115320B8
:103E3000FDF7B0F84FF41C516020FDF7ABF80121FD
:103E40006120FDF7A7F800216A20FDF7A3F8002103
:103E50008020FDF79FF800218120FDF79BF80021CD
:103E60008220FDF797F800218320FDF793F80021C9
:103E70008420FDF78FF800218520FDF78BF81021B5
:103E80009020FDF787F84FF4C0619220FDF782F88B
:103E900040F233110720FDF77DF881E489488088DE
:103EA00045F2084188427DD14FF480710120FDF731
:103EB00071F84FF4E0610220FDF76CF841F2300137
:103EC0000320FDF767F800210420FDF763F840F2B6
:103ED00007210820FDF75EF800210920FDF75AF8B8
:103EE00000210A20FDF756F800210C20FDF752F8BA
:103EF00000210D20FDF74EF800210F20FDF74AF8B4
:103F00001420FDF739F841F2B0611020FDF742F8B6
:103F100001211120FDF73EF801211720FDF73AF8A5
:103F20004FF49C711220FDF735F84FF40061132017
:103F3000FDF730F809212920FDF72CF809212A2066
:103F4000FDF728F80021A420FDF724F800215020D7
:103F5000FDF720F8EF215120FDF71CF80021522039
:103F6000FDF718F840F23F115320FDF713F84FF416
:103F70001C516020FDF70EF801216120FDF70AF8C1
:103F800000216A20FDF706F800218020FDF702F8E5
:103F900000218120FCF7FEFF00218220FCF7FAFFC0
:103FA000002100E024E08320FCF7F4FF00218420BE
:103FB000FCF7F0FF00218520FCF7ECFF1321902097
:103FC000FCF7E8FF00219220FCF7E4FF0321932097
:103FD000FCF7E0FF4FF488719520FCF7DBFF40F21F
:103FE00073110720FCF7D6FF3220FCF7C5FFB6E4BB
:103FF0003448808841F2055188427DD10021072054
:10400000FCF7C8FF3220FCF7B7FF4FF48E71122087
:10401000FCF7C0FF0121A420FCF7BCFF0F21082002
:10402000FCF7B8FF08210A20FCF7B4FF08210D2097
:10403000FCF7B0FF40F207713020FCF7ABFF07211F
:104040003120FCF7A7FF40F203613220FCF7A2FF0A
:104050004FF4E0613320FCF79DFF40F20221342051
:10406000FCF798FF02213520FCF794FF41F60F7111
:104070003620FCF78FFF40F207713720FCF78AFFEC
:1040800000213820FCF786FF00213920FCF782FF51
:1040900040F207713A20FCF77DFF00213B20FCF73E
:1040A00079FF07213C20FCF775FF00213D20FCF73C
:1040B00071FF3220FCF760FF01210720FCF76AFF47
:1040C000012101E0981700201720FCF763FF322040
:1040D000FCF752FF4FF4BD511020FCF75BFF40F29C
:1040E00017211120FCF756FF4FF48F711220FCF7B7
:1040F00051FF4FF4706100E098E01320FCF74AFF95
:1041000000212A20FCF746FF0A212920FCF742FF64
:104110004FF49F711220FCF73DFF00215020FCF767
:1041200039FFEF215120FCF735FF00215220FCF729
:1041300031FF40F23F115320FCF72CFF4FF41C518C
:104140006020FCF727FF01216120FCF723FF0021FD
:104150006A20FCF71FFF00218020FCF71BFF0021D5
:104160008120FCF717FF00218220FCF713FF0021BC
:104170008320FCF70FFF00218420FCF70BFF0021B8
:104180008520FCF707FF13219020FCF703FF4FF475
:1041900040719220FCF7FEFE05219320FCF7FAFE09
:1041A00000219520FCF7F6FE00219720FCF7F2FE97
:1041B00000219820FCF7EEFE4FF480710120FCF7FF
:1041C000E9FE4FF4E0610220FCF7E4FE41F2380121
:1041D0000320FCF7DFFE00210420FCF7DBFE0021BA
:1041E0000C20FCF7D7FE00210F20FCF7D3FE0021A6
:1041F0002020FCF7CFFE00212120FCF7CBFE21215F
:104200000720FCF7C7FE1420FCF7B6FE612107204B
:10421000FCF7C0FE1420FCF7AFFE40F2731107203C
:10422000FCF7B8FE1420FCF7A7FE5AE3FE4880888E
:104230004BF2055188427CD100210846FCF7AAFECA
:1042400000210846FCF7A6FE00210846FCF7A2FE66
:1042500000210846FCF79EFE0121A420FCF79AFEEF
:104260001420FCF789FE4FF41C516020FCF792FEED
:1042700040F202210820FCF78DFE4FF4057130203A
:10428000FCF788FE43F215713120FCF783FE40F203
:1042900004613220FCF77EFE40F616613320FCF705
:1042A00079FE42F211213420FCF774FE4FF4A8513C
:1042B0003520FCF76FFE48F207513620FCF76AFE06
:1042C00041F207413720FCF765FE41F203413820F7
:1042D000FCF760FE20213920FCF75CFE1A219020BB
:1042E000FCF758FE00211020FCF754FE0721112096
:1042F000FCF750FE00211220FCF74CFE0021132099
:10430000FCF748FE1420FCF737FE4FF4E66110205E
:10431000FCF740FE40F237111120FCF73BFE142061
:10432000FCF72AFE4FF4DC711220FCF733FE142058
:1043300000E085E0FCF720FE4FF470611320FCF7ED
:1043400029FE80212A20FCF725FE48212920FCF7A0
:1043500021FE1420FCF710FE4FF480710120FCF7C1
:1043600019FE4FF4E0610220FCF714FE41F238011F
:104370000320FCF70FFE40F202210820FCF70AFEA2
:1043800000210A20FCF706FE00210C20FCF702FEAB
:1043900000210D20FCF7FEFD30210E20FCF7FAFD78
:1043A00000215020FCF7F6FDEF215120FCF7F2FD33
:1043B00000215220FCF7EEFD40F23F115320FCF7A4
:1043C000E9FD4FF41C516020FCF7E4FD0121612060
:1043D000FCF7E0FD00216A20FCF7DCFD11219020B4
:1043E000FCF7D8FD4FF4C0619220FCF7D3FD40F2FA
:1043F00002419320FCF7CEFD02219420FCF7CAFD78
:104400001420FCF7B9FD01210720FCF7C3FD14209F
:10441000FCF7B2FD61210720FCF7BCFD40F27311EF
:104420000720FCF7B7FD00212020FCF7B3FD002199
:104430002120FCF7AFFD22210020FCF7ABFD50E26C
:10444000794880884CF2055188427CD10021084689
:10445000FCF7A0FD00210846FCF79CFD1420FCF7AA
:104460008BFD00210846FCF795FD00210846FCF76E
:1044700091FD00210846FCF78DFD00210846FCF760
:1044800089FD0121A420FCF785FD1420FCF774FDB3
:104490004FF41C516020FCF77DFD40F6060108201A
:1044A000FCF778FD40F203713020FCF773FD012129
:1044B0003120FCF76FFD04213220FCF76BFD4FF437
:1044C00081713320FCF766FD4FF440713420FCF716
:1044D00061FD40F203113520FCF75CFD1F21362001
:1044E000FCF758FD40F203713720FCF753FD012122
:1044F0003820FCF74FFD04213920FCF74BFD152136
:104500009020FCF747FD4FF482611020FCF742FD3C
:1045100040F247211120FCF73DFD4FF4DE711220DF
:10452000FCF738FD4FF460611320FCF733FD782071
:10453000FCF722FD4FF480710120FCF72BFD4FF4B6
:104540000071022000E052E0FCF724FD41F230014E
:104550000320FCF71FFD08210A20FCF71BFD0021AA
:104560000C20FCF717FD20210E20FCF713FD002185
:104570000F20FCF70FFD00212020FCF70BFD002190
:104580002120FCF707FD3D212A20FCF703FD142024
:10459000FCF7F2FC2D212920FCF7FCFC0021502027
:1045A000FCF7F8FC4DF2EF015120FCF7F3FC002181
:1045B0005220FCF7EFFC40F23F115320FCF7EAFCDD
:1045C00000216120FCF7E6FC00216A20FCF7E2FCF8
:1045D0004FF440719220FCF7DDFC05219320FCF79D
:1045E000D9FC4FF480710720FCF7D4FC79E10E4828
:1045F000808844F2315188427ED101210020FCF7AD
:10460000C9FC0A20FCF7B8FC41F228611020FCF735
:10461000C1FC0E211220FCF7BDFC40F6392113200D
:10462000FCF7B8FC0A2001E098170020FCF7A4FC76
:1046300040211120FCF7AEFC50211520FCF7AAFC0C
:104640000A20FCF799FC1E211220FCF7A3FC0A208B
:10465000FCF792FC4FF4B1511020FCF79BFC42F6A2
:1046600039211320FCF796FC0A20FCF785FC4FF457
:1046700080710120FCF78EFC4FF440710220FCF7A2
:1046800089FC41F238010320FCF784FC40F202214E
:104690000820FCF77FFC08210A20FCF77BFC0021A6
:1046A0003020FCF777FC40F202413120FCF772FC2D
:1046B0004FF483713220FCF76DFC40F2035133203C
:1046C000FCF768FC4FF482713420FCF763FC40F285
:1046D00001313520FCF75EFC40F207713620FCF713
:1046E00059FC40F205313720FCF754FC4FF40271BD
:1046F0003820FCF74FFC00E03EE040F60B7139201B
:10470000FCF748FC02214120FCF744FC4FF41C510B
:104710006020FCF73FFC01216120FCF73BFC4FF4DB
:1047200004719020FCF736FC4FF485719220FCF761
:1047300031FC04219320FCF72DFC4FF48071A02064
:10474000FCF728FC01210720FCF724FC212107208D
:10475000FCF720FC23210720FCF71CFC3321072059
:10476000FCF718FC40F233110720FCF713FC002182
:10477000A020FCF70FFCB4E0FE48808844F23551DD
:104780008842F8D130211520FCF704FC10219A2032
:10479000FCF700FC20211120FCF7FCFB43F2284130
:1047A0001020FCF7F7FB02211220FCF7F3FB41F28B
:1047B00038011320FCF7EEFB2820FCF7DDFB12216B
:1047C0000846FCF7E7FB2820FCF7D6FB43F2204124
:1047D0001020FCF7DFFB43F238011320FCF7DAFB73
:1047E0004620FCF7C9FB00213020FCF7D3FB40F248
:1047F00002413120FCF7CEFB40F207313220FCF7BA
:10480000C9FB4FF441713320FCF7C4FB0421342071
:10481000FCF7C0FB40F201413520FCF7BBFB40F246
:1048200007713620FCF7B6FB40F205313720FCF764
:10483000B1FB4FF4C2613820FCF7ACFB4FF4C2610E
:104840003920FCF7A7FB4FF480710120FCF7A2FB95
:104850004FF440710220FCF79DFB41F23001032030
:10486000FCF798FB40F608010820FCF793FB0821B1
:104870000A20FCF78FFB4FF41C516020FCF78AFBE9
:1048800001216120FCF786FB4FF49F719020FCF71B
:1048900081FB4FF480719220FCF77CFB4FF4807118
:1048A0009320FCF777FB4FF44051A020FCF772FBFC
:1048B0001021A320FCF76EFB01210720FCF76AFB07
:1048C00021210720FCF766FB23210720FCF762FB70
:1048D00033210720FCF75EFB40F233110720FCF781
:1048E00059FB0020FCF726FD0120FCF7EDFE4FF6FA
:1048F000FF70FCF7B6FE10BD2DE9FC5F05460E46C5
:1049000017469846DDF8309000200190994880883D
:1049100046F60401884229D196488079012825D19C
:10492000AB46354693480088C01B401E86B24746BA
:1049300090480088A0EB0B00401E1FFA80F8002072
:104940008C4988712A2048812B20888143463A4629
:1049500031462846CDF80090FFF7CEFF012085496B
:1049600088712B2048812A2088811DE0781B401CFB
:1049700080B20190344615E02146284609F010F82F
:1049800009F0ECF84FF0000A07E04FF0D840A0F82B
:1049900080900AF101001FFA80FA01988245F4DB49
:1049A000601C84B24445E7DDBDE8FC9F2DE9FF4F64
:1049B00085B081468A460020039083460798A0EB85
:1049C00009050898A0EB0A06CDF80890CDF804A0D8
:1049D000002D01DD012705E00DB9002702E04FF0B1
:1049E000FF376D42002E02DD4FF0010806E016B9D8
:1049F0004FF0000802E04FF0FF387642B54201DD8B
:104A00002C4600E03446002004901EE0019A91B24A
:104A1000029A90B2129AFCF716FE0398284403906B
:104A2000B3440398A04205DD0398001B039002984D
:104A300038440290A34504DDABEB040B01984044DD
:104A400001900498401C80B20490611C0498884234
:104A5000DCDD09B0BDE8F08F2DE9F84305460E46D0
:104A600017469846089C33463A46314628460094F5
:104A7000FFF79CFF43462A46314628460094FFF73D
:104A800095FF43463A46414628460094FFF78EFF7D
:104A900043463A46314638460094FFF787FFBDE863
:104AA000F8832DE9F04706460F4690469A460024C3
:104AB00045460320A0EB480944E07A1B91B2321925
:104AC00090B25246FCF7BFFD3A1B91B2721990B2F8
:104AD0005246FCF7B8FD3A1991B2721990B252469B
:104AE000FCF7B1FD7A1991B2321990B25246FCF737
:104AF000AAFD7A1991B2321B90B25246FCF7A3FD7F
:104B00003A1991B2721B90B25246FCF79CFD7A1B87
:104B100091B2321B90B25246FCF795FD3A1B91B20E
:104B2000721B90B25246FCF78EFD641CB9F1000F67
:104B300003DAA000801D814404E0601B80000A307D
:104B400081446D1EAC42B8DDBDE8F0872DE9F84F19
:104B500080460E4617461C46B3462046E31704EB34
:104B60005373DB1021464FEAE47C04EB5C7C4FEA94
:104B7000EC0C01E098170020A4EBCC0CBCF1000F6A
:104B800002D04FF0010C01E04FF0000C63442246CC
:104B900004EBD27C4FEA6C0C03FB0CF3DBB200930A
:104BA000A7F12000C7B2002556E00C2C07D107EB77
:104BB0004700454901EB800010F8059013E0102CE8
:104BC00005D1424800EB071010F805900BE0182CB7
:104BD00007D107EBC7003E4901EB800010F80590B4
:104BE00001E0BDE8F88F4FF0000A2FE009F08000E7
:104BF00030B13848028831464046FCF724FD07E0D2
:104C00000A9828B93448028831464046FCF71BFD13
:104C10004FEA49604FEA1069701C86B22F484088FD
:104C2000B04200DCDDE7A6EB0B00A0420AD15E46F5
:104C300008F101001FFA80F828480088404500DC90
:104C4000CFE706E00AF1010000F0FF0ABAF1080F11
:104C5000CCDB00BF681CC5B200988542A5DB00BF55
:104C6000BFE72DE9F84F04460D4690469946DDE929
:104C70000A6704F0FF0A08EB04001FFA80F809EB4A
:104C800005001FFA80F916E0444502DB5446A819D6
:104C900085B24D4500DB14E0002000903A783346A1
:104CA00029462046FFF752FF304606EBD07104EB51
:104CB00061018CB27F1C38787E2802DC387820288D
:104CC000E2DA00BFBDE8F88F94380108083D01081A
:104CD000F84201085C0000205E00002098170020C8
:104CE000014604E0002000E0401CA828FCD30A0094
:104CF000A1F10101F6D1704770B5044600250121EC
:104D0000C14800F027FF0120FFF7EAFF00BF1FE0C6
:104D100004F0800028B14FF40061BC4800F018FF97
:104D200004E04FF40061B94800F014FF6006040E7F
:104D30000121B54800F00EFF0120FFF7D1FF01214E
:104D4000B14800F005FF0120FFF7CAFF681CC5B29B
:104D5000082DDDDB70BD70B50646002500244FF43C
:104D60000051AB4800F0F6FE3046FFF7C5FF0520C6
:104D7000FFF7B6FF0121A44800F0ECFE0120FFF789
:104D8000AFFF0121A04800F0E3FE0120FFF7A8FFDC
:104D900001219D4800F0DEFE00BF1AE04FF6FF70D3
:104DA00000EA44040121984800F0D4FE0120FFF7F6
:104DB00097FF0121944800F0CBFE0120FFF790FF00
:104DC0000421914800F0AAFE08B1601C84B2681C5E
:104DD000C5B2102DE2DB241101218B4800F0B8FE92
:104DE000204670BD2DE9F04186B0804600260024A3
:104DF00007E04046FFF7AFFF01A921F81400601C4F
:104E000084B20A2CF5DB00241BE0601C85B214E0A0
:104E100001A830F8140001A931F8151088420ADD04
:104E200001A830F8147030F8150001A921F8140019
:104E300001A820F81570681C85B20A2DE8DB601CFB
:104E400084B2092CE1DB0026042406E001A830F836
:104E50001400304486B2601C84B2062CF6DB304667
:104E600006EBD071C1F34F07384606B0BDE8F081BC
:104E700010B5D020FFF7B6FF10BD10B59020FFF79A
:104E8000B1FF10BD2DE9F04104460D46D020FFF7DB
:104E9000A9FF06469020FFF7A5FF074626802F8032
:104EA0000120BDE8F0817FB504460D4602A903A8A4
:104EB000FFF7E8FF064616B9002004B070BD69464A
:104EC00001A8FFF7DFFF06460EB90020F5E7BDF8A1
:104ED0000400BDF80C10884206DCBDF80C10BDF8CB
:104EE0000400323081420CDBBDF80C00BDF8041028
:104EF000884236DCBDF80410BDF80C003230814227
:104F00002FDABDF80000BDF80810884206DCBDF8B5
:104F10000810BDF80000323081420CDBBDF80800FB
:104F2000BDF8001088421CDCBDF80010BDF8080078
:104F30003230814215DABDF80C10BDF80420881813
:104F400000EBD071C1F34F012180BDF80810BDF80E
:104F50000020881800EBD071C1F34F012980012097
:104F6000ABE70020A9E71CB50121262001F012F8CB
:104F70000121880301F068F84FF4005000900120EF
:104F80008DF8040000208DF8060001208DF8070040
:104F900002208DF8050069461D4800F05DFD4FF4C4
:104FA00000511B4800F0D4FD0120009069461648CE
:104FB00000F052FD0121144800F0CAFD4FF40060DA
:104FC00000906946114800F047FD4FF400610F481A
:104FD00000F0BEFD0420009000208DF804000120A8
:104FE0008DF807006946084800F036FD0220009061
:104FF00000208DF8040001208DF807006946024862
:1050000000F02AFD1CBD0000000402400014024014
:10501000000802400948804709480047FEE7FEE7CC
:10502000FEE7FEE7FEE7FEE7FEE7FEE7FEE7FEE758
:1050300004480549054A064B7047000031510008F5
:105040008901000858E80020582A012058EA002069
:1050500058EA00200CB500200190009076480068C6
:1050600040F480307449086000BF7348006800F461
:10507000003000900198401C0190009818B90198E8
:10508000B0F5A04FF1D16C48006800F4003010B1C9
:105090000120009001E0002000900098012846D1F6
:1050A00065484030006840F08050634940310860F6
:1050B0006248006840F44040604908605E4808303B
:1050C00000685D49083108600846006840F4004007
:1050D00008600846006840F4A05008605848091F5E
:1050E0000860081F006840F08070091F086000BF5A
:1050F0005148006800F000700028F9D040F20560C7
:10510000504908604C480830006820F003004A49C4
:10511000083108600846006840F00200086000BFDF
:1051200045480830006800F00C000828F8D10CBD94
:1051300010B54548006840F47000434908603E4897
:10514000006840F001003C49086000203A490831FD
:105150000860394800683D490840374908603C48C4
:10516000091D0860081F006820F48020091F0860DE
:10517000002031490C310860FFF76CFF4FF00060F0
:1051800031498039086010BD70B50020002202232B
:1051900000240221284D08352D6805F00C0020B1AF
:1051A000042806D0082834D107E02A4D2A4E35605D
:1051B00033E02A4D284E35602FE01F4D2D1D2D6800
:1051C000C5F380541C4D2D1D2D6805F03F0154B1D1
:1051D000224DB5FBF1F5184E361D3668C6F388161C
:1051E00005FB06F209E01B4DB5FBF1F5124E361D2D
:1051F0003668C6F3881605FB06F20F4D2D1D2D6887
:10520000C5F301456D1C6B00B2FBF3F5124E356022
:1052100003E0104D104E356000BF00BF064D08354D
:105220002D68C5F303150E4E705D0B4D2D68C540FE
:10523000094E356070BD000000380240007000402B
:1052400008544007003C024088ED00E0FFFFF6FEF6
:10525000103000240024F4006000002000127A00C6
:105260006400002032490143324A1160704770B532
:10527000002100230F22C4781CB32E4C246804F4B0
:10528000E064C4F5E064C4F30721C1F10404E3B2AF
:105290000A4144789C40E1B28478144021430C07D1
:1052A000210E254C05786155047804F01F05012472
:1052B000AC4005786D11AD0005F1E025C5F8004161
:1052C00009E0047804F01F050124AC401B4D06786A
:1052D000761145F8264070BD194A0A400243154B25
:1052E0001B1F1A60704739B1124A121D126802431F
:1052F000104B1B1D1A6006E00E4A121D12688243F5
:105300000C4B1B1D1A607047042808D14FF0E02198
:10531000096941F004014FF0E022116107E04FF00C
:10532000E021096921F004014FF0E022116170478A
:105330000000FA050CED00E000E400E080E100E090
:1053400080FFFF1F30B943F2DB028100A1F1C041B1
:105350000A6005E043F2D2028100A1F1C0410A6077
:105360006FF07042411C8900A1F1C0410A608100C8
:10537000A1F1C041C1F804217047D0E901121143E5
:10538000C2681143026911434269114382691143A2
:10539000C2691143026A1143426A1143826A11438E
:1053A000C26A1143026B114302689200A2F1C0422B
:1053B0001160816808290BD101688900A1F1C04101
:1053C000096841F0400201688900A1F1C0410A600A
:1053D000416B0968426B526841EA0211426B926864
:1053E00041EA0221426B928941EA0241426B128AF0
:1053F00041EA0251426B127D41EA0261426B9269BD
:1054000011430268521C9200A2F1C0421160C16AAD
:10541000B1F5804F1BD1816B0968826B526841EAFC
:105420000211826B926841EA0221826B128A41EA80
:105430000251826B127D41EA0261826B92691143D3
:1054400002689200A2F1C042C2F8041107E06FF0B6
:10545000704201688900A1F1C041C1F80421704780
:10546000002101600221416000218160C160016171
:1054700041618161C16101624FF480514162490023
:1054800081620021C16201630F21426B1160426B96
:105490005160FF21426B91600F21426BD160426BE2
:1054A0001161426B51610021426B91610F21826B4E
:1054B0001160826B5160FF21826B91600F21826BC2
:1054C000D160826B1161826B51610021826B9161AD
:1054D000704751B18200A2F1C042126842F001034C
:1054E0008200A2F1C042136009E08200A2F1C04232
:1054F0001268F94B1A408300A3F1C0431A60704749
:1055000010280AD118214FF020421166402151661F
:105510004FF0FC319166D16610E01821EF4A11601E
:1055200040214FF02042C2F884104FF0FC31EB4A8A
:10553000083211604FF02042C2F88C10704730B52D
:10554000002100220023446844F0080485682C43AD
:10555000C5682C4305692C43456944EA452485699F
:1055600044EA4531C4692468C5696D6844EA052484
:10557000C5692D8944EA0544C5692D7B44EA056265
:10558000046A2468056A6D6844EA0524056A2D8961
:1055900044EA0544056A2D7B44EA05630468102C3F
:1055A00005D14FF020442166A266E36608E0CB4CAB
:1055B00021604FF02044C4F88820C84C0C3423608C
:1055C00030BD10210160002141608160C160016136
:1055D00041618161FC21C2691160C2695160C26987
:1055E0009160C269D160026A1160026A5160026A08
:1055F0009160026AD160704799B1102808D14FF0CC
:105600002042126E42F004024FF020431A661DE061
:10561000B24A126842F004024FF02043C3F88020DF
:1056200014E0102809D14FF02042126EAA4BDB1E65
:105630001A404FF020431A6608E0A84A1268A64BA9
:10564000DB1E1A404FF02043C3F88020704799B109
:10565000102808D14FF02042126E42F040024FF065
:1056600020431A661DE09D4A126842F040024FF046
:105670002043C3F8802014E0102809D14FF02042C5
:10568000126E954B3F3B1A404FF020431A6608E0DC
:10569000924A1268904B3F3B1A404FF02043C3F8A8
:1056A0008020704701460020102903D14FF020428E
:1056B000506F02E0894A14321068704718208749F9
:1056C0002031086000200906C1F8A4004FF0FC302A
:1056D000824928310860091D0860091D086070476B
:1056E000016841F01001426841EA4221826841EAC2
:1056F00042317A4A20321160C1680968C268526832
:1057000041EA0221C268128941EA0241C268127B61
:1057100041EA0261714A283211600169096802692F
:10572000526841EA02210269128941EA0241026992
:10573000127B41EA0261694A2C32116041690968B1
:105740004269526841EA02214269128941EA0241F2
:105750004269127B41EA02614FF02042C2F8B01068
:1057600070470021016041608160FC21C2681160C6
:10577000C2685160C2689160C268D16002691160FC
:1057800002695160026991600269D16042691160E9
:1057900042695160426991604269D160704748B185
:1057A0004E492031096841F004014FF02042C2F80F
:1057B000A01009E0494920310968474AD21E11402A
:1057C0004FF02042C2F8A010704710B5F2B1102877
:1057D00007D14FF020435B6E0B434FF020446366CC
:1057E00032E0B0F5807F08D13C4B1B1D1B680B439A
:1057F0004FF02044C4F8843026E0384B24331B6833
:105800000B434FF02044C4F8A4301DE0102807D10A
:105810004FF020435B6E8B434FF02044636613E0F0
:10582000B0F5807F08D12D4B1B1D1B688B434FF0BB
:105830002044C4F8843007E0284B24331B688B4392
:105840004FF02044C4F8A43010BD10B5024600202B
:105850000023102A03D14FF02044636E09E0B2F513
:10586000807F03D11D4C241D236802E01B4C24348F
:10587000236803EA01040CB1012000E0002010BD00
:10588000102807D14FF02042526E8A434FF0204338
:105890005A6613E0B0F5807F08D1104A121D1268D5
:1058A0008A434FF02043C3F8842007E00B4A243298
:1058B00012688A434FF02043C3F8A420704770B5A4
:1058C00002460020002300240025102A08D14FF0B2
:1058D0002046736E0DE00000FEFF0F00800000A068
:1058E000B2F5807F02D1184E336802E0164E2036A2
:1058F000336803EA010403EAD10514B10DB10120B4
:1059000000E0002070BD102808D14FF02042526EF8
:1059100022EAD1024FF020435A6614E0B0F5807FAE
:1059200008D1094A126822EAD1024FF02043C3F895
:10593000842008E0044A2032126822EAD1024FF0A3
:105940002043C3F8A4207047840000A010B504468B
:105950009848844208D10121084600F086FB0021C6
:10596000012000F082FB76E09348844208D10121B7
:10597000022000F07AFB0021022000F076FB6AE0B2
:105980008E48844208D10121042000F06EFB0021E2
:10599000042000F06AFB5EE08948844208D10121BE
:1059A000082000F062FB0021082000F05EFB52E0BE
:1059B0008448844208D10121102000F056FB0021C8
:1059C000102000F052FB46E07F48844208D10121BC
:1059D000202000F04AFB0021202000F046FB3AE0A6
:1059E0007A48844208D10121402000F03EFB00218A
:1059F000402000F03AFB2EE07548844208D1012196
:105A0000802000F032FB0021802000F02EFB22E0FD
:105A10007048844208D10121801500F026FB002146
:105A2000A01500F022FB16E06B48844208D101214A
:105A3000401500F01AFB0021601500F016FB0AE08B
:105A40006648844207D10121001500F00EFB0021B9
:105A5000201500F00AFB10BDF0B50A460021002316
:105A6000002400BF3DE0012505FA01F3156805EAB1
:105A700003049C4234D105684F000326BE40B54361
:105A8000056015794E00B540066835430560157907
:105A9000012D02D01579022D16D185684F000326FD
:105AA000BE40B543856055794E00B54086683543A4
:105AB0008560456801268E40B54345604568967906
:105AC0008E40B6B235434560C5684F000326BE40E0
:105AD000B543C560D5794E00B540C6683543C5604D
:105AE000491C1029BFD3F0BD4FF6FF7101600021A2
:105AF000017141718171C171704708B54FF48032F5
:105B00000092009A0A430092009AC261C161009A11
:105B1000C261C2690092C269009208BD02460020BB
:105B200013690B400BB1012000E0002070470146D3
:105B3000086980B270470246002053690B400BB1E0
:105B4000012000E0002070470146486980B270479C
:105B500001837047418370470AB1018300E04183AC
:105B600070474161704742694A4042617047F0B5F1
:105B7000002300244D07ED0E02FA05F3CE1000F1CC
:105B8000200555F826504E07F70E0F26BE40B543A8
:105B9000CF1000F1200646F82750CE1000F1200566
:105BA00055F8265045EA0304CE1000F1200545F8CB
:105BB0002640F0BD00000240000402400008024000
:105BC000000C024000100240001402400018024085
:105BD000001C024000200240002402400028024035
:105BE000F948006840F00100F74908600020F649D4
:105BF00008310860F4480068F4490840F249086038
:105C0000F348091D0860F348EF4984310860F04803
:105C10001038091D0860EC48006820F48020EA492B
:105C200008600020E8490C310860E7498C310860C1
:105C300070470021E44A921C1170114608707047A9
:105C400010B501460022002300204A11012A02D18A
:105C5000DD4C236808E0022A03D1DB4C7034236852
:105C600002E0D94C7434236801F01F0201249440EF
:105C70001C400CB1012000E0002010BD38B5002010
:105C800000900024002500BF3120FFF7D9FF054612
:105C90000098401C00900098B0F5A04F01D0002D56
:105CA000F2D03120FFF7CCFF08B1012400E000243E
:105CB000204638BD01460020C34A106820F0F80095
:105CC00040EAC10010607047C34908607047002176
:105CD000BD4A703211701170012802D004280AD117
:105CE00004E00121B84A7032117005E00521B64A7E
:105CF0007032117000E000BF00BF7047B749086004
:105D0000704770B5049C41EA82150126C6EB530624
:105D100045EA0645054345EA0465AB4E361D356048
:105D200070BDAD4908667047820142EA0172A64B18
:105D300084331A607047A8498866704710B583019C
:105D400043EA016343EA02739F4C8834236010BD29
:105D5000A14908677047A049C864704702460020FF
:105D6000994B0833186820F0EC6042EA01031843AD
:105D7000954B08331860704702460020924B083359
:105D8000186820F0784042EA010318438E4B08332C
:105D900018607047014600208B4A0832106820F0D6
:105DA000030008431060704787480830006800F01F
:105DB0000C00704701460020834A0832106820F02A
:105DC000F000084310607047014600207E4A083208
:105DD000106820F4E050084310607047014600202E
:105DE000794A0832106820F4604040EAC10010602F
:105DF0007047F0B50021002200240225002602236E
:105E0000714F08373F6807F00C0121B1042905D014
:105E1000082937D105E0724F076036E0714F0760FF
:105E200033E0694F3F1D3F68C7F38056664F3F1D03
:105E30003F6807F03F036EB16A4FB7FBF3F7DFF837
:105E400088C10CF1040CDCF800C0CCF3881C07FB03
:105E50000CF40CE0624FB7FBF3F7DFF86CC10CF108
:105E6000040CDCF800C0CCF3881C07FB0CF4564F84
:105E70003F1D3F68C7F301477F1C7D00B4FBF5F76A
:105E8000076002E0564F076000BF00BF4E4F083763
:105E90003F6807F0F0010909534F7A5C0768D74063
:105EA0004760494F08373F6807F4E051890A4E4F71
:105EB0007A5C4768D7408760434F08373F6807F4EC
:105EC0006041490B484F7A5C4768D740C760F0BDD6
:105ED000002100F44072B2F5407F0AD13A4A0832FC
:105EE000116821F4F811414A02401143364A083240
:105EF0001160354A70321268C0F30B031A43324BFB
:105F000070331A6070473549443908607047334927
:105F100040390860704736490860704701460020E4
:105F2000294A8C32106820F01F004A1E1043264A6E
:105F30008C321060704701460020234A8C32106872
:105F400020F4F8504A1E40EA02201F4A8C321060AA
:105F50007047014600201C4A8C32106820F4401023
:105F600008431060704701460020174A8C321068C1
:105F700020F4400008431060704701460020124A98
:105F80008C32106820F44030084310607047194983
:105F90000860704739B10C4A3032126802430A4B2C
:105FA00030331A6006E0084A303212688243064BEA
:105FB00030331A607047F9B1034A34321268024331
:105FC000014B34331A601CE000380240FFFFF6EA50
:105FD000103000240030002000004742800E47426D
:105FE0000024F40000127A0074000020FFFCFF0F70
:105FF0005C014742E0114742854A12688243844B64
:106000001A60704739B1824A121D12680243804BF0
:106010001B1D1A6006E07E4A121D126882437C4BEB
:106020001B1D1A60704739B1794A0C32126802435D
:10603000774B0C331A6006E0754A0C3212688243C3
:10604000734B0C331A60704739B1714A10321268C1
:1060500002436F4B10331A6006E06D4A103212682B
:1060600082436B4B10331A60704739B1684A243A47
:1060700012680243664B243B1A6006E0644A243AE5
:1060800012688243624B243B1A60704739B1604A00
:10609000203A126802435E4B203B1A6006E05C4ADD
:1060A000203A126882435A4B203B1A60704739B13C
:1060B000574A1C3A12680243554B1C3B1A6006E0D3
:1060C000534A1C3A12688243514B1C3B1A6070477A
:1060D00039B14F4A143A126802434D4B143B1A60CF
:1060E00006E04B4A143A12688243494B143B1A604B
:1060F000704739B1464A103A12680243444B103B8C
:106100001A6006E0424A103A12688243404B103B44
:106110001A60704739B13E4A1C32126802433C4B48
:106120001C331A6006E03A4A1C3212688243384B2C
:106130001C331A60704739B1354A20321268024365
:10614000334B20331A6006E0314A20321268824312
:106150002F4B20331A60704739B12D4A2432126810
:1061600002432B4B24331A6006E0294A243212687A
:106170008243274B24331A60704739B1244A2C32AA
:1061800012680243224B2C331A6006E0204A2C325C
:10619000126882431E4B2C331A60704739B11C4A77
:1061A0003032126802431A4B30331A6006E0184A44
:1061B000303212688243164B30331A60704739B15F
:1061C000134A273A12780243114B273B1A7006E014
:1061D0000F4A273A127882430D4B273B1A707047BB
:1061E0000B484030006840F0807009494031086039
:1061F000704701460020064A283A12680A400AB150
:10620000012000E0002070470149263908707047DE
:106210003438024010B50446FA48844208D10121BE
:106220001020FFF766FF00211020FFF762FF57E004
:10623000F548844209D101214804FFF749FF0021B4
:106240004FF40030FFF744FF4AE0F048844209D1A0
:1062500001218804FFF73CFF00214FF48020FFF765
:1062600037FF3DE0EA48844209D10121C804FFF725
:106270002FFF00214FF40020FFF72AFF30E0E54810
:10628000844209D101210805FFF722FF00214FF4C4
:106290008010FFF71DFF23E0DF48844208D1012171
:1062A0002020FFF726FF00212020FFF722FF17E024
:1062B000DA48844209D101218807FFF709FF00214C
:1062C0004FF08040FFF704FF0AE0D548844207D131
:1062D00001214005FFF7FCFE00216005FFF7F8FEF5
:1062E00010BD2DE9FF4705460E460024A14600BF1C
:1062F000A046B08900B100BF2C8A24F44054F08835
:1063000004432C82AC8941F20C608443B08831890B
:106310000843718908430443AC81AC8A24F4407477
:10632000B0890443AC826846FFF763FDB5488542F7
:1063300002D0B948854202D1DDF80C9001E0DDF8C9
:106340000890A88900F4004040B109EBC90000EBB7
:10635000091031684900B0FBF1F707E009EBC9000B
:1063600000EB091031688900B0FBF1F76420B7FB3E
:10637000F0F004012009642101FB1078A88900F4E1
:10638000004040B1322000EBC800B0FBF1F000F05B
:106390000700044308E0322000EB08106421B0FB42
:1063A000F1F000F00F0004432C81BDE8FF874FF4AB
:1063B0001651016000218180C18001810C21418141
:1063C00000218181704710B502460020108A20F418
:1063D00070600B884C8823438C882343CC882343EC
:1063E0001843108210BD0021018041808180C1804E
:1063F000704721B1828942F40052828104E082898F
:106400004DF6FF731A4082817047028B02F47F427F
:106410000283028B0A430283704721B1828942F4CE
:106420000042828103E08289C2F30E0282817047BA
:1064300021B1828A42F40062828204E0828A4FF2B1
:10644000FF731A4082827047C1F30802828070474E
:1064500001468888C0F308007047028A4FF6F0733F
:106460001A400282028A0A430282704721B182895D
:1064700042F00202828104E082894FF6FD731A40E5
:106480008281704782894FF2FF731A40828182892C
:106490000A4382817047028A4FF6DF731A400282F4
:1064A000028A0A430282704721B1028A42F4804282
:1064B000028204E0028A4BF6FF731A4002827047A0
:1064C000818941F001018181704721B1828A42F0C6
:1064D0000802828204E0828A4FF6F7731A408282B1
:1064E0007047028BD2B20283028B42EA01220283FE
:1064F000704721B1828A42F02002828204E0828ABF
:106500004FF6DF731A408282704721B1828A42F0CF
:106510001002828204E0828A4FF6EF731A40828270
:106520007047828A4FF6FB731A408282828A0A433E
:106530008282704721B1828A42F00202828204E0A4
:10654000828A4FF6FD731A40828270471AB1838A9D
:106550000B43838202E0838A8B4383827047F0B5CA
:106560000346002400260025002040F66A17B942A1
:1065700000D100BF1846C1F3421401F01F060127E5
:1065800007FA06F5012C01D10C3004E0022C01D1F0
:10659000103000E014301AB107682F43076002E0A2
:1065A0000768AF430760F0BD02460020B1F5007FE9
:1065B00000D100BF13880B400BB1012000E0002088
:1065C000704701F40072B2F5007F00D100BFCA43EA
:1065D0000280704770B50246002400230025002089
:1065E00040F66A16B14200D100BFC1F3421501F076
:1065F0001F03012606FA03F3012D13D196893340B8
:1066000017E0000000100140004400400048004036
:10661000004C004000500040001401400078004051
:10662000007C0040022D02D1168A334001E0968A98
:1066300033400C12012606FA04F41688344013B1D4
:106640000CB1012000E0002070BD10B50022002335
:1066500040F66A14A14200D100BF0A1201249440FE
:10666000A3B2DC43048010BDF0B504460D4604EB34
:10667000850121F007010846AA27061F304637602A
:106680000A27061F304637601527061F3046376039
:106690001427061F304637601327061F3046376021
:1066A0001227061F304637601127061F3046376015
:1066B0001027061F304637600927061F304637600F
:1066C0000827061F304637600727061F3046376009
:1066D0000627061F304637600527061F30463760FD
:1066E0000427061F304637600327061F30463760F1
:1066F0000227061F304637600127061F30463760E5
:106700000027061F304637604FF08077061F30465F
:106710003760061F304633606FF00107061F3046B2
:1067200037604FF01237061F304637604FF003379F
:10673000061F304637604FF00237061F304637607D
:106740007F10061F30463760061F30463260312703
:10675000061F304637603027061F3046376029272E
:10676000061F304637602827061F30463760272728
:10677000061F304637602627061F3046376025271C
:10678000061F304637602427061F30463760232710
:10679000061F304637602227061F30463760212704
:1067A000061F304637602027061F304637601927FE
:1067B000061F304637601827061F304637601727F8
:1067C000061F304637601627061F304637604FF0E9
:1067D0001137061F304637604FF01037061F30461E
:1067E00037604FF00937061F304637604FF00837E3
:1067F000061F304637604FF00737061F30463760B8
:106800004FF00637061F304637604FF00537061F3A
:10681000304637604FF00437061F30463760F0BD12
:10682000EFF3108072B6704780F31088704772B62D
:10683000704762B670471F484FF0FF01017000209B
:1068400080F30988EFF30880C008C00080F308884F
:1068500019484FF08051016062B6FEE716484FF0CC
:1068600080510160704714484FF0805101607047BB
:1068700072B6EFF3098060B120ED108B203880E80C
:10688000F00F0E490968086000B500F0DFFD5DF803
:1068900004EB0A480A490A680260106890E8F00FA1
:1068A0002030B0EC108B80F309884EF0040E62B6F5
:1068B0007047000022ED00E004ED00E090000020B1
:1068C0008C000020002400BF0EE0FFF7A9FF044663
:1068D0000648D0E900305A1C40F100000349C1E9E4
:1068E00000202046FFF7A0FFEFE7000098000020FF
:1068F00010B504460CB9252010BD032A05D0022A84
:1069000003D0042A01D01C20F6E700BF2460646095
:1069100000BF00202073A160206160612276637651
:10692000122060730020E7E72DE9F84F06460F4676
:106930009046B9464FF0000A746D4CB1607B122846
:1069400006D1207E032803D1657E554500DDAA4689
:106950004D46F4691BE0207E022806D0032810D1A2
:10696000657E554500DDAA460CE0A346584600F07A
:10697000C4F928B9DBF80000001F00900098457E9C
:1069800000E000BF00BF4D4500DAA9466469002C55
:10699000E1D1574504DA1A20A8F80000BDE8F88FC5
:1069A0000020A8F800004846F8E72DE9F05F05460A
:1069B0008846AE7EB24605F11C0920E0444503D16D
:1069C0006069C9F800001AE0207E022804D003287C
:1069D0000DD194F819A00BE02746384600F08DF948
:1069E00020B93868A0F1040B9BF819A000E000BFA3
:1069F00000BF564500DD564604F1140900BFD9F822
:106A00000040002CDAD1687EB04203D031462846DF
:106A100001F065F8BDE8F09F2DE9F04104460F460E
:106A2000666DBA480078052801DDBDE8F081B748F9
:106A30000078401CB549087008460078B4490978C8
:106A4000884203DDB1480078B1490870707B122894
:106A500013D1307E022810D13569687E617E88426C
:106A600004DD617E284601F03AF806E0687EB8420F
:106A700003D100212846FFF798FFA4480078401E64
:106A8000A249087000BFD0E770B50446656D687B09
:106A900012280BD1287E022808D12E69707E617ED3
:106AA000884203D100213046FFF77FFF70BD2DE9FA
:106AB000F04104460E46002714B92520BDE8F081B8
:106AC0009448007808B12720F8E700BFFFF7A8FE38
:106AD000074600BF607B122806D000BF3846FFF78C
:106AE000A3FE00BF3620E9E78B4920690968884288
:106AF00009D1A07E401CA07600BF3846FFF794FE67
:106B000000BF1820DAE7207E03280CD182480068F5
:106B1000807E617E884206DA00BF3846FFF784FE39
:106B200000BF1A20CAE7256905BB7B4800682061C1
:106B300079480068C069606177480068C4610120D5
:106B4000A076207E03280AD173480068407E617ECB
:106B5000884204DD617E7048006800F0C0FF00BF1D
:106B60003846FFF761FE00BF0020A7E736B900BF37
:106B70003846FFF759FE00BF06209FE700BF674871
:106B8000007830B100BF3846FFF74EFE00BF072047
:106B900094E700BF207E02280BD15F480068407E4A
:106BA000697E884205DA5C480068417E284600F02C
:106BB00096FF324658480168204600F0C9F900BFE8
:106BC0003846FFF731FE00BF00F03CFA0021524882
:106BD000006800F0B3FC804640466FE72DE9F041C5
:106BE0000446002714B92520BDE8F0814948007803
:106BF00008B12720F8E700BFFFF712FE074600BFE5
:106C0000607B122806D000BF3846FFF70DFE00BF9C
:106C10003620E9E7404920690968884206D000BF6C
:106C20003846FFF701FE00BF1720DDE7A07E401EBB
:106C3000A076A07E30B100BF3846FFF7F5FD00BF5B
:106C40001820D1E7214634480068FFF7AEFE2646FB
:106C5000304600F052F840B10020206100BF3846B5
:106C6000FFF7E2FD00BF0020BEE73068051F2846A1
:106C700000F056F92561E8696061EC610120A076B9
:106C8000207E032807D1687E617E884203DD617E15
:106C9000284600F024FF00BF3846FFF7C5FD00BFBF
:106CA00000F0D0F900209FE72DE9F0410746D7F822
:106CB0001C801DE0D4F814802646304600F01DF8F4
:106CC000A0B93068051F284600F02AF92561E86957
:106CD0006061EC61207E03280AD1687E617E884273
:106CE00006DD617E284600F0FAFE01E0002020610A
:106CF0005FEA0804DED1BDE8F081014608688842F9
:106D000001D1012070470020FCE70000BC000020FA
:106D1000BD0000208B000020900000208A00002091
:106D200042684A60086042681160416070470146ED
:106D3000142008700020024608E00B1D03EBC2007F
:106D40000060406000BF501CC0B20246142AF4DB51
:106D500070472DE9F04705460E462F46A94696F89E
:106D60001980D9F8004004E0607D404500DD02E074
:106D70002468BC42F8D100BF311D2046FFF7D0FF88
:106D8000BDE8F08730B5024602EBE10201F00705ED
:106D90000124AC40E3B214781C43147030BD70B5CC
:106DA00004460E46757E211D51F83500311DFFF752
:106DB000B7FF294604F1A400FFF7E4FF2078A842BA
:106DC00000DD257070BD70B504460E46757E211D30
:106DD00001EBC500311DFFF7A3FF294604F1A40014
:106DE000FFF7D0FF2078A84200DD257070BD70B598
:106DF00005460C46607E90490968497E884204D168
:106E000021462846FFF7DFFF03E021462846FFF72B
:106E1000C6FF70BDF8B505460F467C7E381D00F0F4
:106E200004F9291D01EBC4000168814201D101214F
:106E300000E0002101B9F8BD05F1A400014601EB15
:106E4000E40104F0070C012303FA0CF3DAB20B7827
:106E500093430B7000BF2878A04200D0EBE7C4F149
:106E60001402214605F1A40000F0A0FB0646002E06
:106E700002DBA019287007E00020009000BF9DF8F9
:106E800000000028FBD000BF00BFD4E770B5054666
:106E90000C46617E281D00EBC106201D00F0C5F8E0
:106EA000211D3046FFF73CFF70BD10B50278031D71
:106EB00053F832100B1F614C236010BD38B50446E7
:106EC00094F85000012806D0022805D003280FD0DE
:106ED000052814D10BE000BF201D00F0A6F82146C4
:106EE0005748FFF784FF002084F850000FE000BFF0
:106EF000201D00F09AF8042084F8500007E00020DC
:106F0000009000BF9DF800000028FBD000BF00BF2C
:106F1000204600F0F6FF002084F85100606538BD7F
:106F200010B504462046FFF7C9FF10BD70B50446F2
:106F30000D4665642046FFF7C1FF70BD70B504467D
:106F40000E4615466664A5642046FFF7B7FF70BD80
:106F5000F8B506460C4615463DB90020009000BF26
:106F60009DF800000028FBD000BF6665681C18B9BA
:106F7000012084F8500006E02946204600F0B1FFC9
:106F8000022084F8500021462D48FFF743FF307B54
:106F9000012804D1211D3046FFF7C2FE03E021463F
:106FA0003046FFF7D6FE0020F8BD38B5044694F809
:106FB0005000012806D0022805D003280FD005284C
:106FC00014D10BE000BF201D00F02FF821461C4813
:106FD000FFF70DFF002084F850000FE000BF201DD8
:106FE00000F023F8042084F8500007E0002000900F
:106FF00000BF9DF800000028FBD000BF00BF204666
:1070000000F07FFF032084F851000020606538BD48
:1070100070B50446656D287B30B9201D00F005F879
:107020002146606DFFF795FE70BDD0E9001211603A
:10703000D0E9002151607047900000208C000020B2
:10704000A817002010B500245348007810B9534801
:10705000007800B110BDFFF7E3FB04465048FFF78E
:1070600024FF5048006850490968884203D12046EF
:10707000FFF7DAFBEEE7FFF7F1FB2046FFF7D4FB63
:1070800000BFE7E700B585B00520484908704448CF
:10709000FFF74DFE00F020FF45480060406000BF54
:1070A000012044498022444BCDE90132CDE903104F
:1070B00000201323024641A10090434800F0CCFA7F
:1070C00001F0F1F80023022240A14348FFF710FC31
:1070D000002005B000BD10B53448007805280CD15B
:1070E0002F48FFF7E2FE2F4800682F490860042070
:1070F0002E490870FFF79FFB01E0042010BD03201C
:10710000FCE72DE9F041064600272548001D00EB6D
:10711000C60500BFFFF784FB074600BF284601688D
:10712000814201D1012100E0002131B100BF384688
:10713000FFF77AFB00BFBDE8F0812868041F207EBE
:10714000012805D100BF3846FFF76EFB00BFF2E70C
:1071500028680068A84205D100BF3846FFF764FBE5
:1071600000BFE8E7206910B12069401E2061206956
:1071700028B100BF3846FFF757FB00BFDBE72146C9
:107180000748FFF783FE6069206100BF3846FFF7BC
:107190004BFB00BF00BFCEE78B0000208A00002021
:1071A000A81700208C0000209000002088000020FC
:1071B000C0000020C5680008A818002069646C653C
:1071C0005F7461736B0000005018002074696D6576
:1071D000725F6D7574657800181D002003460BB949
:1071E00025207047501C08B91520FAE700BF1B6026
:1071F0005B6000BF1A61996000201873586111200C
:1072000058730020EDE72DE9F04104460E460027B3
:1072100000BFFFF705FB074600BF607B112807D0C2
:1072200000BF3846FFF700FB00BF3620BDE8F08105
:107230002546284600F0FCF8C0B12069401C30B952
:1072400000BF3846FFF7F0FA00BF1520EEE72069CF
:10725000401C206100BF3846FFF7E6FA00BF6069B6
:1072600010B12046616988470020DFE756B103E08E
:107270002968081FFFF754FE284600F0D9F80028B7
:10728000F6D003E02968081FFFF74AFE00BF384622
:10729000FFF7CAFA00BFFFF7D5FE0020C6E710B51A
:1072A00004460CB9252010BD00212046FFF7ABFF96
:1072B000F9E710B504460CB9252010BD0021204681
:1072C000FFF7A1FFF9E710B504460CB9252010BD62
:1072D00001212046FFF797FFF9E770B504460D46F8
:1072E00000260CB9252070BD5548007808B127202C
:1072F000F9E700BFFFF794FA064600BF607B11284C
:1073000006D000BF3046FFF78FFA00BF3620EAE70D
:10731000656100BF3046FFF787FA00BF0020E2E753
:107320002DE9F04104460D46002614B92520BDE89C
:10733000F0814348007808B12720F8E700BFFFF745
:107340006FFA064600BF607B112806D000BF3046AA
:10735000FFF76AFA00BF3620E9E7206948B12069E3
:10736000401E206100BF3046FFF75EFA00BF0020DC
:10737000DDE735B900BF3046FFF756FA00BF0620FB
:10738000D5E700BF2F48007830B100BF3046FFF787
:107390004BFA00BF0720CAE700BF2A462A48016807
:1073A0002046FFF7D5FD00BF3046FFF73DFA00BF8E
:1073B000FFF748FE00212448006800F0BFF80746A8
:1073C0003846B4E72DE9F04104460D46002726462D
:1073D00014B92520BDE8F0811948007808B12720AC
:1073E000F8E700BFFFF71CFA074600BF607B1128D3
:1073F00006D000BF3846FFF717FA00BF3620E9E78E
:10740000206908B125610CE0304600F011F808B1A0
:10741000256106E000BF3846FFF706FA00BF1620D8
:10742000D8E700BF3846FFF7FFF900BF0020D1E7DB
:1074300001460868884201D1012070470020FCE71E
:107440008B0000208A0000209000002008B50D4924
:107450000968C86A016839B10021009100BF9DF830
:1074600000100029FBD000BF064909680968814265
:1074700007D20021009100BF9DF800100029FBD029
:1074800000BF08BD9000002010B50024FFF7C8F928
:1074900004466B48007818B92046FFF7C5F910BDBF
:1074A00067480078401E664908700846007818B1A1
:1074B0002046FFF7B9F9F2E76248007818B1204694
:1074C000FFF7B2F9EBE76048FFF7EFFC5F480068B1
:1074D0005F490968884203D12046FFF7A5F9DEE736
:1074E000FFF7C1F92046FFF79FF900BFD7E710B5B6
:1074F00000F012FD56490968487EFFF702FE00F0D1
:10750000C3FE10BD10B500244D480078642801DB8F
:10751000412010BD00BFFFF783F9044600BF484873
:107520000078401C4649087000BF2046FFF77CF9F0
:1075300000BF0020EDE747480068704718B50246D5
:10754000002092F8513033B1012B09D0022B09D021
:10755000032B0BD108E009B1546C0C6000200DE046
:1075600008200BE0092009E00A2007E0002400942D
:1075700000BF9DF80040002CFBD000BF00BF18BD2D
:1075800070B5044600252E48007808B1272070BD4C
:1075900000BFFFF745F9054600BF2E48046000BF55
:1075A0002846FFF741F900BF0020F0E7F0B5054697
:1075B0000B4616462C46581104EB800403F01F00BE
:1075C00048B103F01F0C012000FA0CF0401E2768A0
:1075D00027EA000200E0226800212BE002B311B983
:1075E00003F01F00091A90B208B9120C1031D0B282
:1075F00008B9120A083102F00F0008B91209091D72
:1076000002F0030008B99208891C02F0010000B9D9
:10761000491CB14201DA0846F0BD4FF0FF30FBE7EC
:1076200009B1203103E003F01F00C0F12001201D4B
:1076300004460268B142D1DB4FF0FF30ECE70000B6
:107640008B0000208A000020A81700208C0000205A
:1076500090000020A00000202DE9FF4F81B00446DB
:107660008B461D46DDF84890DDE90F68002000904C
:107670001CB9252005B0BDE8F08F142D01DB1320C7
:10768000F8E70EB92320F5E7119808B92320F1E7B0
:10769000FA48007808B12720ECE700BFFFF7C0F8F0
:1076A000009000BF132D0CD1F548007830B100BF19
:1076B0000098FFF7B9F800BF0120DBE70120F0498F
:1076C000087000BF0098FFF7AFF800BF58220021F4
:1076D0002046F8F7C0FE0E9810B10E98606101E0E8
:1076E000322060616069206102202076B9F1000FCC
:1076F00003D0002084F8500004E0042084F85000F7
:107700000120E076E66237464FF0000A03E00020F1
:1077100001C70AF1010AC245F9D341463046119B1F
:10772000039AFEF7A1FF2060C4F84CB06576A576F9
:10773000C4F8288000BFFFF773F8009000BFD1485D
:1077400004F1200142684A600860426811604160AB
:1077500000BFB9F1000F03D02146CB48FFF733FB40
:10776000CA480078042806D000BF0098FFF75CF8EC
:1077700000BF05207EE700BF0098FFF755F800BF67
:10778000B9F1000F01D0FFF75DFC002072E730B5C2
:10779000024600240AB9252030BD09B92320FBE7A1
:1077A000D36A00E0641C20CB002DFBD00C600020CD
:1077B000F2E710B50024B148007808B1272010BDC9
:1077C000B3480078FA2801D30F20F8E700BFFFF78D
:1077D00027F8044600BFAE480078401CAC4908704A
:1077E00000BF2046FFF720F800BF0020E7E710B5F4
:1077F0000024A248007808B1272010BDA4480078D2
:1078000008B90E20F9E700BFFFF70AF8044600BFE9
:107810009F480078401E9E4908700846007830B1A5
:1078200000BF2046FFF700F800BF0D20E5E700BFCE
:107830002046FEF7F9FF00BFFFF704FC0020DCE75D
:1078400070B5044600268D48007808B1272070BD29
:1078500000BFFEF7E5FF064600BFDCB100BF8C4865
:10786000007830B100BF3046FEF7DEFF00BF0720D2
:10787000EDE700BF06208749096881F850002146DE
:107880008448006800F02DFB824801687E48FFF7BD
:10789000C1FA04E07F4801687B48FFF7F7FA00BFB0
:1078A0003046FEF7C1FF00BFFFF7CCFB34B100212B
:1078B00078480068FFF742FE054600E000252846AC
:1078C000C5E72DE9F04705460E46904699466B48B8
:1078D000007810B12720BDE8F08742F20F70864291
:1078E00001D93B20F7E7B5F57A7F01D33A20F2E7DB
:1078F00064244FF4FA70B0FBF4F0484460434FF452
:107900007A71B0FBF1F14FF461606843C6EB061287
:1079100000EB8200404400FB04171FB13846FFF71C
:107920008FFFD8E73C20D6E770B50446002500BF9E
:10793000FEF776FF054600BF5648006884420BD12B
:1079400000BF5348007830B100BF2846FEF76CFFF7
:1079500000BF072070BD00BF94F85000082832D245
:10796000DFE800F004141A2320220E210120E07623
:10797000042084F8500021464348FFF74BFA29E0E1
:107980000120E076072084F8500023E00120E07613
:10799000052084F850001DE00120E076032084F8E3
:1079A000500017E000BF00BF00BFE07E401CE07643
:1079B000E07EFA2806D300BF2846FEF735FF00BF59
:1079C0001120C7E706E000BF2846FEF72DFF00BFE5
:1079D0001020BFE700BF00BF2846FEF725FF00BF0D
:1079E000FFF730FB0020B5E710B504460CB92520A1
:1079F00010BD607E132801D12E20F9E72046FFF745
:107A000093FFF5E770B50446002500BFFEF708FFB9
:107A1000054600BF94F85000082846D2DFE800F081
:107A20000406073C0E24051B00BF00BF00BF00BFBB
:107A30002846FEF7F9FE00BF122070BDE07E401E12
:107A4000E076E07E30B9002084F8500021460E48F0
:107A5000FFF7CDF930E0E07E401EE076E07E10B921
:107A6000062084F8500027E0E07E401EE076E07EAD
:107A700010B9012084F850001EE000008B000020A7
:107A800089000020C0000020A817002088000020E6
:107A90008A00002090000020E07E401EE076E07E1C
:107AA00010B9022084F8500006E000BF2846FEF717
:107AB000BBFE00BF1020C0E700BF00BF2846FEF796
:107AC000B3FE00BFFFF7BEFA0020B6E710B50446CC
:107AD0000CB9252010BD2046FFF794FFFAE770B5DA
:107AE00004460D46002600BF94F85000082829D20D
:107AF000DFE800F0041B1C1E181D17192146F24870
:107B0000FFF788F96576F1480068844204D1214680
:107B1000ED48FFF744F903E02146EB48FFF753F93E
:107B200012E000BF00BF65760EE000BF00BF00BFDF
:107B3000667E65762046FFF76BFA31462046FEF7F3
:107B40006BFF01E0102070BD00BF0020FBE72DE9B6
:107B5000F84304460D4616460027B84600BFDC48E9
:107B6000007810B12720BDE8F8830CB92520FAE78A
:107B70000EB92520F7E7607E132801DB2B20F2E702
:107B8000132D01D12B20EEE700BFFEF749FE804602
:107B900000BF6A4629462046FEF7C6FE0746BDF8E6
:107BA000000000B115E0A5763D46607E30702946A4
:107BB0002046FFF794FF0090BDF8000000B108E0F8
:107BC00000BF4046FEF730FE00BFFFF73BFA002043
:107BD000C9E700BF4046FEF727FE00BFBDF8000022
:107BE000C1E770B5044600250CB9252070BDB84822
:107BF000007808B12720F9E7607E132801D12D20F5
:107C0000F4E700BFFEF70CFE054600BFAF48006872
:107C100084420BD100BFAF48007830B100BF284686
:107C2000FEF702FE00BF0720E0E700BF2046FFF797
:107C30003BF894F85000082820D2DFE800F0040F49
:107C4000111209100A0B21469F48FFF7E3F81CE0C8
:107C50001BE000BF204600F054F916E000BF00BF53
:107C600000BF204600F04DF9201D00F026F9082045
:107C700084F850002046FEF707FF06E000BF2846C4
:107C8000FEF7D2FD00BF1020B0E700BF082084F847
:107C9000500004F1200000F010F900BF2846FEF764
:107CA000C3FD00BFFFF7CEF900209FE72DE9F041AB
:107CB00004460D461646002700BFFEF7B1FD0746F5
:107CC00000BF04F10C0040F8265000BF3846FEF714
:107CD000ABFD00BFBDE8F081024602F10C0050F898
:107CE0002100704770B504460D4600260CB92520CA
:107CF00070BD7748007808B12720F9E700BFFEF78C
:107D00008FFD064600BF0DB1656101E03220606164
:107D10006069206100BF3046FEF786FD00BF00208D
:107D2000E6E770B505460C4600260DB9252070BD66
:107D3000012C03D0022C01D02620F8E764480078FB
:107D400008B12720F3E700BFFEF76AFD064600BF33
:107D50002C7600BF3046FEF767FD00BF0020E6E747
:107D600070B504460D4600260CB9252070BD0DB92E
:107D70002520FBE75648007808B12720F6E700BF2A
:107D8000FEF74EFD064600BF207E287000BF30463D
:107D9000FEF74AFD00BF0020E8E770B50446002565
:107DA0000CB9252070BD4A48007808B12720F9E7B2
:107DB00000BFFEF735FD054600BF94F850000828C7
:107DC00036D2DFE800F0041E1F1D051C0D0E36E044
:107DD000002084F8500021463B48FFF708F82EE0C9
:107DE00000BF204600F08DF821463748FEF7FFFF20
:107DF000002084F85000012084F851001FE000BFEB
:107E000000BF00BF204600F07CF8201D00F055F8B0
:107E100021462D48FEF7EBFF002084F8500001209A
:107E200084F851002046FEF72FFE0020606506E032
:107E300000BF2846FEF7F8FC00BF1020B2E700BFE5
:107E400000BF2846FEF7F0FC00BFFFF7FBF800205C
:107E5000A8E71E48006870472DE9F04704460E4623
:107E600017464FF000091A48007810B12720BDE8E6
:107E7000F08700BFFEF7D4FC814600BF25680AE00A
:107E8000D5F800800EB1281FB0471FB12168081F28
:107E9000FFF746F84546A542F2D100BF4846FEF737
:107EA000C3FC00BFFFF7CEF80020E0E74FF44570B9
:107EB00000F520700830801C7047D0E90012116076
:107EC000D0E9002151607047A817002090000020E1
:107ED0008B0000208A00002063480060406000BFE3
:107EE000704770B504460D4655B160480068284497
:107EF000A063E5635C4E2146304600F08FF82664AF
:107F000070BD70B50446256C2DB104F1300000F051
:107F10007EF80020206470BD2DE9F8434FF0000882
:107F200000BFFEF77DFC804600BF50480068401C43
:107F30004E4908604C4E356860E0B5425DD02F6810
:107F4000A5F130044949A06B0968884254D194F8DE
:107F50005000022813D0032827D0062802D0072873
:107F60003FD134E0002084F8510084F850002046CE
:107F7000FFF7C7FF21463E48FEF739FF39E02046AC
:107F8000FFF7BFFF201D00F042F821463848FEF7FA
:107F90002EFF022084F85100002084F85000204673
:107FA000FEF772FD0020606523E02046FFF7A9FF81
:107FB000201D00F02CF8022084F85100042084F8E1
:107FC00050002046FEF760FD0020606511E00420AF
:107FD00084F85000002084F851002046FFF791FFFC
:107FE00007E00020009000BF9DF800000028FBD0B3
:107FF00000BF00BF3D4601E001E000E09DE700BF9B
:1080000000BF4046FEF710FC00BFBDE8F883D0E992
:1080100000121160D0E9002151607047F0B50246AE
:108020000B4614461746DE6B38680CE0A0F13005AD
:10803000DFF838C0A96BDCF800C0A1EB0C01B1423D
:1080400000D902E00068A042F0D100BF03F1300186
:10805000D0F804C0C1F804C00860D0F804C0CCF85F
:108060000010416000BFF0BDA4000020A00000206F
:10807000A817002010B59D4800F034F910BDF0B5E8
:108080000246134616468D6930680BE00446DFF859
:1080900060C26769DCF800C0A7EB0C07AF4200D9EB
:1080A00002E000689842F1D100BF00BF47684F600E
:1080B000086047683960416000BFF0BD816849B120
:1080C00000BFD0E900231A60D0E900325A6000BF37
:1080D000002282607047F8B504460E460CB9252090
:1080E000F8BD8448007808B12720F9E794F8290002
:1080F000182801D03620F3E794F82800022801D18F
:108100002120EDE794F82800032801D12120E7E79A
:1081100066624FF0FF317848FEF7C9FC05463DB175
:108120000020009000BF9DF800000028FBD000BF99
:108130006F49E069096808446061E069A0616B48C3
:10814000A0602146FFF79BFF022084F828006A48C0
:10815000FEF744FD0020C3E72DE9F04704460F4633
:1081600015461E46DDE9099ADDF8208014B9252060
:10817000BDE8F0870DB92320FAE7B8F1000F01D16F
:108180002220F5E75B48007808B12720F0E7E76098
:1081900025616662C4F81C80C4F820900020A061AC
:1081A0006061012084F828000020A060204600F0D3
:1081B00099F8182084F82900BAF1000F03D031464D
:1081C0002046FFF788FF0020D2E708B500214B4882
:1081D000FFF7F8F800BF56E04FF0FF314748FFF7D0
:1081E0009FF84FF0FF314448FEF761FC07463FB16E
:1081F0000020009000BF9DF800000028FBD000BFC9
:108200003B480068401C3A490860384D2E6835E00C
:10821000AE4232D0D6F800903446354960690968DC
:10822000884229D12046FFF749FF206A60B1206AC1
:10823000A0612F49A0690968084460612B48A060CB
:108240002146FFF71CFF02E0012084F82800206986
:1082500080B12169606A88478046B8F1880F09D1EA
:1082600094F82800012805D02046FFF727FF0120B9
:1082700084F828004E4601E001E000E0C8E700BFB6
:108280001D48FEF7ABFCA7E710B51D480068401E6F
:108290001B4908600846006820B90120086017489B
:1082A000FEF7FDFF10BD00B585B001201449086040
:1082B000FFF7E0FE0120AFF2ED018022114BCDE986
:1082C0000132CDE903100020052302460EA10090E3
:1082D0001148FFF7C1F9002210A10848FEF77EFF00
:1082E00005B000BD0060406070470000AC00002099
:1082F000B40000208B000020181D0020001D00206D
:10830000B8000020001B002074696D65725F6F6209
:108310006A65637400000000A81A002074696D6526
:10832000725F73656D0000000246114600E0491C53
:10833000087810B108782028F9D1881AC0B270479F
:1083400008B538B90022009200BF9DF80020002A2D
:10835000FBD000BF39B90022009200BF9DF8002079
:10836000002AFBD000BF086000224A607A4A1268E7
:108370005160794A116008BD01460020012209E0E0
:108380000B78202B04D122B1431C58B2002200E00C
:108390000122491C0B78002BF2D170472DE9F84FD0
:1083A00005460E4617464FF000083DB900200090E4
:1083B00000BF9DF800000028FBD000BF3EB90020A0
:1083C000009000BF9DF800000028FBD000BF3FB91F
:1083D0000020009000BF9DF800000028FBD000BFE7
:1083E0005E48006878BB5E485C49086031E05B48E5
:1083F00000680068D0F800904846FFF795FF824675
:108400002846FFF791FF0446544501DDA34600E0EE
:10841000D3465A464946284600F023F9A0B94F48AA
:108420000068006890F90C0000280BDB2846FFF775
:10843000A3FF4A490968096891F90C10884201D0E4
:108440004FF0010809E009E04448006840684349EA
:108450000860424800680028C9D100BF3F48006852
:1084600058B1B8F1010F08D13A463E49304600F004
:10847000BCF80020394908601EE038480068A0B107
:108480003A4600213046F7F7E6FF344800680068B6
:108490002A4639468368304698478046B8F1010F2E
:1084A0000AD100202D49086006E03A462E493046A0
:1084B00000F09BF84FF001084046BDE8F88F30B55A
:1084C000034600240020002515601FE000E05B1C2F
:1084D0001D7815B11D78202DF9D100E05B1C1D78A9
:1084E00015B11D78202DF9D01D7875B1641C8C4212
:1084F0000CD1184603E015686D1C15605B1C1D78D7
:1085000015B11D78202DF6D102E001E08C42DDDBB3
:1085100000BF30BD2DE9F04106460D461746134811
:10852000006810B90E4811490860104800680068DA
:108530002A464168304600F058F80C480068406808
:108540000A4908600846006808B9012400E00024D0
:108550002046BDE8F0810000D0000020D4000020BB
:10856000C8000020908D0108EC8D0108D800002083
:1085700070B588420BD803460C4603E014F8015B43
:1085800003F8015B1500A2F10102F7D10EE00346EA
:1085900013440C46144405E0651E2C462E785D1EDF
:1085A0002B462E701500A2F10102F5D170BDF0B579
:1085B000034600201C460D4608E026782F78F61B5F
:1085C000300000D004E0641C6D1C521E002AF4D858
:1085D00000BFF0BD10B50246104600BF11F8014BB8
:1085E00002F8014B002CF9D110BD10B5034605E08F
:1085F0000C781C7004B1491C5B1C521E002AF7D178
:1086000010BD10B50246104600E0521C1378002B36
:10861000FBD100BF11F8014B02F8014B002CF9D13E
:1086200010BD30B5034618468AB100E05B1C1C78CB
:10863000002CFBD104E0541E220001D11C7005E087
:1086400011F8015B03F8015B002DF4D100BF30BDD0
:1086500001460A4600E0521C10780028FBD1501A4F
:10866000704730B503460C460FE013F8011B14F8B1
:10867000015BA94206D0A94202DA4FF0FF3030BDBB
:108680000120FCE701B902E0521E002AEDD100BF33
:108690000020F4E710B502460B460EE012F8011B6D
:1086A00013F8014BA14206D0A14202DA4FF0FF308D
:1086B00010BD0120FCE701B900E0EFE700BF00209A
:1086C000F6E72DE9F04103460C464EA700254FF092
:1086D000010C00E05B1C18782028FBD018780928D2
:1086E000F8D018782B2804D02D2804D14FF0FF3C67
:1086F00000BF5B1C00BF00BF00BF102A11D118785B
:1087000030280ED15B1C1878612805DB18787A2890
:1087100002DC1878203800E01878582800D01DE0D6
:108720005B1CAAB91878302811D15B1C1878612815
:1087300005DB18787A2802DC1878203800E01878F1
:10874000582802D15B1C102202E0082200E00A2215
:10875000022A01DB242A00DD0A2200BF1CE03E467B
:10876000002110E01878612805DB18787A2802DCEF
:108770001878203800E0187896F80080404500D13D
:1087800003E0761C491C9142ECDB00BF914200DB08
:1087900006E005FB02155B1C18780028DFD100BF3E
:1087A00004B1236005FB0CF0BDE8F081F0B5044690
:1087B0000E463046FFF74CFF07461EE02078317822
:1087C000884213D1254600E06D1C2878202802DD60
:1087D00028782328F8D1281BB84207D13A463146D9
:1087E0002046FFF7E4FE08B92046F0BD00BF207820
:1087F00018B114F8011B0A29F9D120780028DDD11D
:1088000000BFF2E730313233343536373839414240
:10881000434445464748494A4B4C4D4E4F505152B0
:10882000535455565758595A0000000010B54FF48C
:108830004841034802F00EF9802002F0F5F910BD1E
:10884000341D00204FF0D841088070473849088017
:10885000704703E030F8022B354B1A800A00A1F173
:108860000101F7D1704705E04FF0D842B2F88020FF
:1088700020F8022B0A00A1F10101F5D1704710B5D3
:10888000A0B014211BA800F0CAF9682101A800F0CB
:10889000C6F900231A462749274802F0B7FA0446CA
:1088A0004FF4F0724FF4A071002005F019F94FF465
:1088B000F0724FF4A071002005F028F91BA92046A2
:1088C00001F0D2FD1D4809901D480A901D480C90EA
:1088D0001D4810901D4B1E4A01A9204601F0E4FDE1
:1088E000C12040F6177340F23F1200210090084665
:1088F00003F02CFBE42040F6857340F2DF120021E8
:108900000090012003F022FB20B010BD2DE9F041C2
:1089100006460C461746012C04D1F8F7CCFF002080
:10892000BDE8F0814FF0FF3500BF00BF2846F7E7F4
:108930008000006C645001088450010845880008DC
:108940004D88000853880008678800083DA5000886
:10895000DDA400087047704710B5FCF789FA10BD18
:1089600010B5FCF78AFA10BD10B5FEF7E4FD00EB78
:108970008000400010BD70B504464FF47A7060432B
:10898000642190FBF1F52846FEF75AFF70BD704751
:10899000704710B501220DA10E48FEF71FFC10BD57
:1089A00010B50C48FEF77BFC10BD10B54FF0FF3141
:1089B0000848FEF7B5FC10BD10B5FFF74AFA10BD28
:1089C0007047704770477047704700006775695F70
:1089D00073656D0034E500201CB50C46064B7B44E6
:1089E00069460090204600F0FAF9044600206946E6
:1089F00000F008FA20461CBD2304000040EA0103F1
:108A000010B59B070FD1042A0DD310C808C9121F37
:108A10009C42F8D020BA19BA884201D9012010BD71
:108A20004FF0FF3010BD1AB1D30703D0521C07E03E
:108A3000002010BD10F8013B11F8014B1B1B07D1A2
:108A400010F8013B11F8014B1B1B01D1921EF1D113
:108A5000184610BD40EA0103024630B59B0710D10D
:108A60004FF0013400E008C208C91D1B9D4315EA00
:108A7000C41FF8D013F0FF0102F8011B0DD01B0A30
:108A8000F8E711F8013B002B02F8013B05D011F883
:108A9000013B002B02F8013BF3D130BD032A40F229
:108AA000308010F0030C00F0158011F8013BBCF190
:108AB000020F624498BF11F801CB00F8013B38BFA8
:108AC00011F8013BA2F1040298BF00F801CB38BFB6
:108AD00000F8013B11F0030300F06780083AC0F092
:108AE000088051F8043B083A51F804CBA0E808107C
:108AF000F5E7121D5CBF51F8043B40F8043BAFF3AF
:108B00000080D20724BF11F8013B11F801CB48BF08
:108B100011F8012B24BF00F8013B00F801CB48BF3E
:108B200000F8012B7047431A28BF9A427FF6B6AF70
:108B3000032A1044114440F2268010F0030F1EBF98
:108B400011F8013D521E00F8013D10F0030F7FF4B3
:108B5000F6AF11F0030300F04E83083AC0F00B802B
:108B600051F8043D083A51F804CD40F8043D40F86E
:108B700004CDFFF7F3BF121D5CBF51F8043D40F870
:108B8000043DAFF30080D20724BF11F8013D11F876
:108B900001CD48BF11F8012C24BF00F8013D00F8B9
:108BA00001CD48BF00F8012C704710B5203AC0F045
:108BB0000B80B1E81850203AA0E81850B1E81850DE
:108BC000A0E81850BFF4F5AF5FEA027C24BFB1E81B
:108BD0001850A0E8185044BF18C918C0BDE810408C
:108BE0005FEA827C24BF51F8043B40F8043B08BF95
:108BF0007047D20728BF31F8023B48BF11F8012B5C
:108C000028BF20F8023B48BF00F8012B704702F054
:108C1000FF0343EA032242EA024200F018BB4FF08E
:108C2000000200B5134694469646203922BFA0E8BC
:108C30000C50A0E80C50B1F12001BFF4F7AF0907C8
:108C400028BFA0E80C5048BF0CC05DF804EB8900B9
:108C500028BF40F8042B08BF704748BF20F8022BFC
:108C600011F0804F18BF00F8012B70477047704714
:108C7000704770B5044685690068C10601D5302685
:108C800000E02026C00707D070BDD4E9012130469E
:108C90009047206A401C20626D1EF6D570BD70B5ED
:108CA000044685690078C00707D170BDD4E9012169
:108CB00020209047206A401C20626D1EF6D570BDB2
:108CC00009684A0501D540B27047C905FCD500B214
:108CD000704709684A0501D5C0B27047C905FCD57F
:108CE00080B2704770B50C460546012A05D0287839
:108CF000800600D5EA69002302E0012305E05B1C41
:108D0000934202D2E05C0028F9D1A869E618C01AA3
:108D1000A861286A184428622846FFF7AAFF04E0E1
:108D2000D5E9012114F8010B9047B442F8D3284645
:108D3000FFF7B5FF70BD00002DE9F04106460024A5
:108D400010687529314615A510D0FFF7B9FF002826
:108D500002DA404212A507E031688A0701D511A561
:108D600002E0490704D510A5012401E0FFF7B1FF97
:108D700000210A2306F1240707E0B0FBF3F203FB0E
:108D80001200303078541046491C0028F5D1234693
:108D90002A463046BDE8F04100F0BEBA00000000AF
:108DA0002D0000002B000000200000001168026868
:108DB000006A530501D508700AE0D30501D5088083
:108DC00006E0130603D5C217C1E9000200E00860FF
:108DD0000120704701694A1C02610878704700B59C
:108DE0008FB0CDE901310021059105497944CDE9E4
:108DF00003101146684600F027F90FB000BD0000CF
:108E0000E5FFFFFF0A6802F8010B0A6070470000E7
:108E10002DE9FF5F15468A460446DFF8AC80F8442A
:108E20000027D8E900103E46CDE9001010E03AF8DE
:108E300016106A4602A800F0FFFC411C07D02178FA
:108E4000890603D5E269391891420DD80744761C8A
:108E50002078800602D5E069B84205DDAE42E6DB47
:108E60003AF816000028E2D1A069C01BA061204694
:108E7000FFF7FFFED8E90010CDE90010002017E051
:108E80003AF818106A4602A800F0D6FCB0F1FF3F8D
:108E900081460BD000250DF1080B05E0D4E9012136
:108EA0001BF8050090476D1C4D45F7D308F10100F4
:108EB000B0428046E4DB206A384420622046FFF757
:108EC000EEFEBDE8FF9F00008EFC00002DE9F041A2
:108ED0008046D21D22F007020025D2E90002F529C2
:108EE00014A612D0002A06DA0023D0EB030063EBAD
:108EF000020211A608E0D8F800108B0701D50FA6D2
:108F000002E0490701D50EA601251146002408F10B
:108F1000240704E000F0BBF930323A55641C50EAF3
:108F20000102F7D12B46324621464046BDE8F041CA
:108F300000F0F2B9000000002D0000002B0000003E
:108F40002000000030B4002100F1240408E002F009
:108F50000705D208303542EA4372DB086554491CE4
:108F600052EA0305F3D10468002310A2250708D5AF
:108F700004F020040C4304D0C46901230CA2641E35
:108F8000C46130BC00F0C8B910B504462146106871
:108F9000FFF79FFE02462046BDE810400023D1E7C0
:108FA000D21D22F00701D1E90023CBE70000000029
:108FB00030000000F0B40D460188090502D5214CAF
:108FC0007C4402E01F4C7C440E34002100F1240656
:108FD00008E002F00F071209E75D42EA03721B097D
:108FE0007754491C52EA0307F3D102780023120791
:108FF00004D5702D06D009B1022311342246F0BCED
:1090000000F08AB901231034F8E770B504460D4624
:1090100021461068FFF75DFE024629462046BDE85E
:1090200070400023C6E7D21D22F00703D3E90023D6
:10903000C0E70368126843F0200303600823C3619C
:109040000023B7E7F4FA00002DE9F05F89460446F3
:109050004FF0000ADFF874B1FB44C0F820A02046AE
:10906000E1688847002874D0252806D0D4E901217A
:109070009047206A401C2062F1E700265F462046A8
:10908000E16888472028054607DB312D05D278198D
:1090900010F8200C08B10643F1E7B00701D526F01F
:1090A0000406C4F81CA00027C4F818A02A2D09D073
:1090B00028460AF0FDFA38B304EB8708303DC8F8BB
:1090C000185019E059F8041B204604EB87029161FF
:1090D000E1688847012F054618D1E069002820DAA9
:1090E00026F020061DE0D8F8180000EB800005EB04
:1090F00040003038C8F818002046E1688847054627
:109100000AF0D6FA0028EED1012F0AD02E2D08D170
:109110002046E16888477F1C0546022F46F020065E
:10912000C4DBA069002803DA404246F00106A061D2
:10913000F00701D026F010066C2D0BD0682D09D059
:109140004C2D39D06A2D35D0742D35D07A2D33D0B1
:1091500016E038E0E1682F4620468847B8420546C9
:1091600009D16C2F26D04FF48060E1680643204679
:109170008847054604E06C2F1AD04FF480700643F0
:109180000DB3A5F14100192802D8203546F4006638
:109190004A462946204626604E46F7F74FF880B1EA
:1091A00001280BD0F61D26F0070000F1080956E74C
:1091B0004020E4E78020D8E70020D6E706F1040944
:1091C0004DE7284652E7206ABDE8F09F84FA000088
:1091D000431A28BF9A427FF6E8AC104410F0030F00
:1091E00011441EBF11F8013D521E00F8013D10F060
:1091F000030F7FF4F6AF103AC0F00A8010B531E9E2
:109200001850103A20E91850BFF4F9AFBDE81040EB
:10921000530724BF31E9081020E9081044BF51F872
:10922000043D40F8043D12F0030F08BF7047D20719
:1092300028BF31F8023D48BF11F8012C28BF20F8A3
:10924000023D48BF00F8012C70474FF0000204298E
:10925000C0F0128010F0030C3FF4E3ACCCF1040C2E
:10926000BCF1020F18BF00F8012BA8BF20F8022B99
:10927000A1EB0C01FFF7D5BC5FEAC17C24BF00F86D
:10928000012B00F8012B48BF00F8012B704730B5C7
:10929000B0F10A024FEA900E71F100034EEA817EAE
:1092A000B0EB0E0061EB91014FEA101E4EEA017E19
:1092B00010EB0E0041EB11114FEA102E4EEA016E39
:1092C00010EB0E0041EB11214FEA104E4EEA014E19
:1092D00010EB0E0041EB1141401841F100014FEA43
:1092E000D00040EA41704FEAD10110EB80054FEA0F
:1092F000810444EA907444EB01046D1944EB0404C6
:10930000521BA3414FF0000348BF0A3200D530BDC5
:10931000401C41F1000130BD2DE9F0470D46994652
:109320009246044600F124080168880604D5E069E5
:1093300021F01001216000E00120A84201DD471B5F
:1093400000E00027A1697A1902EB0900081AA06160
:109350002078C00602D42046FFF78BFC002608E0E8
:10936000D4E901211AF806009047206A401C761CB7
:1093700020624E45F4DB2078C0060AD52046FFF770
:1093800078FC06E0D4E9012130209047206A401C97
:109390002062381EA7F10107F4DC07E0D4E90121BF
:1093A00018F805009047206A401C2062281EA5F18D
:1093B0000105F3DC2046FFF772FC2078000602D599
:1093C0000220BDE8F0870120FBE770472DE9FF4F41
:1093D0000C461E464FF0FF378BB0D2E90001DDF896
:1093E00060800A908A46C1F30A5505B93D460021BE
:1093F00008464FF00000BAF1000F00F4400005DA13
:1094000000EB80004FF4400101EA50004FEA905910
:10941000B9F1010F00DDB9460A9850EA4A000ED0B2
:1094200044F61050A5F2FF3545432F14B8F1000F54
:109430001ED07542291E1EDDC9F100021CE0B8F1E4
:10944000010F4FF0000001D0302103E0F24305E0AE
:109450002154401CB042FBDB304600220021215445
:109460000B99C1F80880C1E900200FB0BDE8F08F6A
:10947000BD1B6D1CDEE74A4600DA694206A800F013
:109480006DFA06AB93E8070003AB83E8070050468C
:109490000A9900F020FB8DE80700A0F500501F3866
:1094A00000900398002D09DD42F21F014A4608444E
:1094B00003A90390684600F07FFD08E0A0F5005086
:1094C0004A461F3803A90390684600F089FD8DE8DD
:1094D00007000004000C03D04FF0FF30410800E00B
:1094E0001046B8F1000F03D00022009215461EE08E
:1094F000751E05D4FFF7CBFE303262556D1EF9D5CF
:10950000B3460122084302D000227F1C04E02078E9
:10951000302801D100227F1E002A099786D01DE045
:10952000112D07DAFFF7B3FE303262556D1C50EA99
:109530000102F5D1084302D00098C8B10EE0002125
:10954000681E05E0235C625C63542254401E491C83
:109550008142F7DBAB46A81B401E0990002004F8AF
:109560000B000B98099AC0F80880C0E9002B7CE733
:1095700011264FF0000859E72DE9F04F88460446C0
:10958000D21D22F0070191B0D1E90001CDE90A0115
:109590000AF052F802460B98C00F01D02D2007E0C8
:1095A0002068810701D52B2002E0202101EAC000BC
:1095B000032A099001D0072A05DB034641462046CD
:1095C00000F08CF909E12078800601D5E06900E01F
:1095D0000620B8F1650F814606D0B8F1660F18D0A5
:1095E000B8F1670F70D131E00020B9F1110F009090
:1095F00001DB112301E009F101030AAA01A90CA86A
:10960000FFF7E4FEDDE90C70002609F10105834651
:1096100047E001204B4600904FF000470AAA01A9FD
:109620000CA8FFF7D3FEDDE90DB00C995D460026CE
:1096300010B909F101000D18B9EB050003D4C0F110
:10964000FF3609F10105A5EB09002BE0B9F1010F87
:1096500001DA4FF001090020B9F1110F00904846DE
:1096600001DD112300E003460AAA01A90CA8FFF7B7
:10967000ADFEDDE90C704D460026834620780007DC
:109680000AD4AB4500DA5D4601A8012D04DD41197D
:1096900011F8011C302907D04F4502DA17F1040FE9
:1096A00004DA012082460FE06D1EEEE7002F02DC97
:1096B000ED1B3E4403E0781CA84200DD7D1CB81B76
:1096C00000F1010A4FF000472078000703D4AA45B3
:1096D00001DB4FF0FF3A0021B7F1004F0DF14308D5
:1096E0008DF8431022D002202B23002F01DA7F4275
:1096F0002D234FF00A0C011EA0F1010000DC47B140
:1097000097FBFCF10CFB11720F46303208F8012D6B
:10971000F1E7A8F1010003702188090501D5452171
:1097200000E06521A0F1010800F8011C09980FA9CB
:10973000A1EB0807FF1D00B10120411901EBEA7000
:10974000A1693844081A401EA0612078C00602D4DE
:109750002046FFF78EFA099828B1D4E901219047F5
:10976000206A401C20622078C00622D52046FFF7E0
:1097700080FA1EE0002E04DBB34502DD01A8805D07
:1097800000E03020D4E901219047206A401C20628B
:10979000761CAAF101005FEA000A0AD100F09AF8EB
:1097A000C0680168405CD4E901219047206A401CF0
:1097B0002062281EA5F10105DCDC07E0D4E90121C7
:1097C00018F8010B9047206A401C2062381EA7F150
:1097D0000107F3DC2046FFF762FA022011B045E6EC
:1097E00010B5436913B1AFF3008001E0FFF77AFAD7
:1097F000012010BD127800F124010A7000224A7085
:109800000122EDE711684FF0FF32E9E710B5436937
:1098100013B1AFF3008001E0FFF7FAFA012010BDA9
:10982000128800F1240182840022C2840122EDE723
:1098300011684FF0FF32E9E770B516460C46054651
:1098400000F040F8036893F80101012806D0FF2CCE
:109850000FD8185D68B101202C7070BDD3F80701D6
:109860003246214603442846BDE8704003F2071300
:1098700018474FF0FF3070BD754600F0E1F8AE4676
:1098800005006946534620F00700854618B020B50C
:10989000FBF7CEFBBDE820404FF000064FF000077D
:1098A0004FF000084FF0000B21F00701AC46ACE888
:1098B000C009ACE8C009ACE8C009ACE8C0098D46F5
:1098C0007047000010B500F005F8001D10BD00BF86
:1098D000F99E00000048704714E800202DE9F0418F
:1098E0001F46044603260168072A01F4006004DBD2
:1098F00008B116A505E016A503E008B115A500E01E
:1099000015A521F010002060A069C01EA0610FB154
:10991000401EA0612046FFF7ACF94FB1D4E9012108
:1099200038469047206A401C2062C01C206206E036
:10993000206AFAE7D4E9012115F8010B9047761E59
:10994000F8D22046FFF7ABF9BDE8F0814E414E005A
:109950006E616E00494E4600696E66002DE9F04763
:10996000814616468AB0324878440DC88DE80D000D
:109970002F487844801C03AC0DC884E80D0041F6E4
:109980009B303722014491FBF2F0A0F1800502FBED
:1099900010141B3C02D56442012000E00020DFF8D7
:1099A00090A080460027FA44AAF1BA0A0DE0E00729
:1099B00009D03246684607EB47010AEB810100F007
:1099C0000FFB8DE8070064107F1C002CEFD1184FAF
:1099D0007F44A83F18E0E80714D007EB04100DF10E
:1099E000180A90E80E008AE80E00C068F04201D123
:1099F00098190890324606A903A800F0F1FA03ABC3
:109A000083E807006D10641C002DE4D132466946DE
:109A1000B8F1000F03A802D000F0CEFA01E000F088
:109A2000DFFAC9E90001C9F808200AB0BDE8F087EB
:109A300004F200000446AFF300802046F6F763FC12
:109A400000487047F4E700204FF0013C50F8042B29
:109A500051F8043B9A4221D1A2EB0C03934313EA41
:109A6000CC1317D150F8042B51F8043B9A4215D16E
:109A7000A2EB0C03934313EACC130BD150F8042B45
:109A800051F8043B9A4209D1A2EB0C03934313EA29
:109A9000CC13DBD04FF00000704700BFD01A01BAE2
:109AA000B1FA81F101F0180122FA01F0CB40C1F1C5
:109AB0002001DBB2C0B2C01A2CFA01F3D11A9143D3
:109AC00011EAC311E6D1704701491820ABBEFEE789
:109AD0002600020070475FEA400C08BF91F0000FBB
:109AE0004FEA8C234FEAC12243EA51514FEA1C50FE
:109AF00018BF00F5F0404FEA300018BF41F00041B8
:109B00005FEA6C5C00F02980BCF1FF3F08BF40F0C9
:109B100080407047130C06BF12044FF0100C4FF03A
:109B2000000C130E04BF12020CF1080C130F04BF3B
:109B300012010CF1040C930F04BF92000CF1020C03
:109B4000D30F04BF52000CF1010C11464FF000027C
:109B5000A0F11F00A0EB0C00704711F0004F08BFF0
:109B6000704731F000413FF4D5AF0B0C06BF09043C
:109B70004FF0100C4FF0000C0B0E04BF09020CF15B
:109B8000080C0B0F04BF09010CF1040C8B0F04BF70
:109B900089000CF1020CCB0F04BF49000CF1010C41
:109BA000CCF12003A0EB0C0022FA03F302FA0CF232
:109BB00041EA030100F10100704720F07F4C80EA88
:109BC000030023F07F47ACEB070303F57C5300F061
:109BD000004003F1FF032DE980494FEA154B09B41A
:109BE0004FEA144325EA0B4E24EA03480FF20426F9
:109BF00006EB132749083E785FEA320203FB06674B
:109C0000C7F5000707FB06F64FEA54374FEAD6467A
:109C100006F1020607FB066CCCF1005C4FEA1C471C
:109C20002CEA074C07FB06F40CFB06F504EB154683
:109C30004FEA961634BF00204FF000404FEAD1376C
:109C400006FB07FC4FEA1C4C0CFB0BF7D21B03FB7B
:109C50000CF761EB07010CFB0EF7B0EB074072EB62
:109C600017420CFB08F734BFA2EB0742B2EB0742E6
:109C700061EB17414FEA0C444FEA910706FB07FCE2
:109C80004FEA1C4C0CFB0BF7B0EBC74072EB5732A2
:109C900003FB0CF734BFA2EBC742B2EBC74261EB48
:109CA00057310CFB0EF7B0EBC70072EB57720CFB91
:109CB00008F734BFA2EBC702B2EBC70261EB5771E2
:109CC000039F4FEA816141EA921104EBCC044FEA11
:109CD000D1374FEA826206FB07FC42EA90124FEA54
:109CE00080604FEA1C4C0CFB0BF7D21B03FB0CF7FC
:109CF00061EB07010CFB0EF7B0EB074072EB17426C
:109D00000CFB08F734BFA2EB0742B2EB074261EB52
:109D100017414FEA8C554FEA910704EB9C2406FB50
:109D200007FC4FEA1C4C0CFB0BF7B0EBC74072EB87
:109D3000573203FB0CF734BFA2EBC742B2EBC7426A
:109D400061EB57310CFB0EF7B0EBC70072EB5772AB
:109D50000CFB08F734BFA2EBC702B2EBC70261EB02
:109D6000577115EB4C254FEA816141EA92114FEA98
:109D700082624FEAD13742EA901206FB07FC44F1B7
:109D800000044FEA80604FEA1C4C0CFB0BF7D21B1F
:109D900003FB0CF761EB07010CFB0EF7B0EB074080
:109DA00072EB17420CFB08F734BFA2EB0742B2EB91
:109DB000074261EB174115EB1C154FEA813141EA6F
:109DC00092414FEA823242EA90424FEA80304FEAB3
:109DD0000C7644F1000448EA03434EEA0B484FF086
:109DE000000EB2EB080C71EB030724BF6246394644
:109DF0004EEB0E0E4FF0000B0018524149414BEB59
:109E00000B0BB2EB080C71EB03077BF1000B24BFCB
:109E1000624639464EEB0E0E4FF0000B00185241D1
:109E200049414BEB0B0BB2EB080C71EB03077BF1D9
:109E3000000B24BF624639464EEB0E0E51EA020774
:109E400018BF46F0010616EB0E7655F1000254F1EC
:109E5000000103D5BDE88901BDE80088BDE889019E
:109E6000B619BDE80048524141EB0101A3F10103DD
:109E7000704780807F7E7D7C7B7A79787776767577
:109E80007473727171706F6E6E6D6C6C6B6A6A69EF
:109E90006868676666656464636362616160605F89
:109EA0005F5E5E5D5D5C5C5B5B5A5A595958585702
:109EB000575656555555545453535252525151506A
:109EC00050504F4F4F4E4E4D4D4D4C4C4C4B4B4BBD
:109ED0004A4A4A4949494848484747474746464603
:109EE000454545444444444343434342424242413E
:109EF0004141002B26D4770021D01CB54FEA37070B
:109F000003B44FF010004FF010014FF000000FBCF1
:109F10000BF1010BBDE81040BBF1010F08BF5FEA78
:109F2000170722BF12F1010211F101014FF00041A8
:109F300043F1000300F0004043EA00007047F9D30A
:109F40005708DAE746EA064613F1400F4FEA16468D
:109F50001FDD13F1200FDFBF16430A460021203317
:109F60005B42C8D0C3F1200746EA064602FA07F76B
:109F70004FEA164646EA0706C3F1200722FA03F223
:109F800001FA07F721FA03F14FF0000342EA070252
:109F9000B1E746EA020646EA06464FEA164646EAB0
:109FA0000106BCBF46EA0646360C4FF000034FF0F0
:109FB00000024FF000019EE72DE9C048934630B4FF
:109FC00091E8380007C831EA400C48BF34EA430C36
:109FD00003D5FFF7F2FDFFF78CFFF0BCBDE800886A
:109FE0002DE9C048934630B491E8380007C810F016
:109FF000804F08BF13F0804F03D100F005F8FFF742
:10A0000078FFF0BCBDE8008820F07F4780EA0300BD
:10A0100023F07F4C07EB0C03A3F57C5300F00040CA
:10A02000A3F1FE0392F0000F00F0B38095F0000F53
:10A0300000F077802DE901494FEA11404FEA1446BC
:10A0400021EA004800FB06FC24EA064708FB06F666
:10A0500007FB08F800FB07F718EB06484CEB164C1B
:10A060004FEA124B18EB07484FEA15464CEB1740E6
:10A0700022EA0B4E0BFB06FC25EA06470EFB06F612
:10A0800007FB0EFE0BFB07F71EEB064E4CEB164CC8
:10A090004FF000061EEB074E4CEB174B18EB0B086E
:10A0A00040F1000018EB0E0B58EB000840F10000E7
:10A0B0008F1A4FF000013CBFC943661B14BFB5EBBC
:10A0C000040C00213CBFC943F61B4FEA17444EEA7B
:10A0D0008E0E27EA04454FEA1C4704FB07622CEA70
:10A0E000074C05FB07F70CFB05F604FB0CFC16EB15
:10A0F000074642EB174216EB0C4642EB1C421BEBA9
:10A10000060658EB0202414146EA9E0601D5BDE82B
:10A110000189B619524141EB0101A3F10103BDE8E8
:10A1200001894FEA14454FEA114724EA054621EA1E
:10A13000074C05FB07F406FB07F70CFB06F105FBD4
:10A140000CFC11EB074144EB17444FEA124711EBAB
:10A150000C4144EB1C4422EA074C05FB07F206FBCA
:10A1600007F70CFB06F605FB0CFC16EB074642EB6B
:10A17000174216EB0C4642EB1C456A1854F10001DD
:10A1800048BF7047B619524141EB0101A3F10103E9
:10A19000704795F0000F37D04FEA11424FEA14474D
:10A1A00021EA024624EA074C02FB07F106FB07F707
:10A1B0000CFB06F402FB0CFC14EB074441EB1741CB
:10A1C0004FEA154714EB0C4441EB1C4125EA074CC0
:10A1D00002FB07F506FB07F70CFB06F602FB0CFC7F
:10A1E00016EB074645EB174516EB0C4645EB1C42B4
:10A1F000121951F1000148BF7047B619524141EBA5
:10A200000101A3F1010370474FEA14454FEA1147DA
:10A2100024EA054621EA074C05FB07F106FB07F790
:10A220000CFB06F24FF0000605FB0CFC12EB07429C
:10A2300041EB174112EB0C4251EB1C4148BF7047F8
:10A24000921841EB0101A3F10103704738B545684D
:10A2500004460146284603F0C8FD00282AD020689D
:10A26000304A0F2819D006DC0B2824D00C2810D037
:10A270000E2851D12FE0112802D028284CD145E0DA
:10A280009268002A16D02146284601B0BDE8304029
:10A290001047214628465268F7E7284600F0A2FCFE
:10A2A0000090406E0468684600F0CCFC002C01D0A1
:10A2B0002846A04738BD284600F094FC009068303E
:10A2C00000F0F8FB009803216C3000F0FBFB6846BF
:10A2D00000F0B8FC20E0E168486809680D2902D068
:10A2E000202913D105E0002810DD284607F08CFD59
:10A2F00006E0002804DD2846BDE8384007F084BDAC
:10A300002846BDE83840022107F094BDE06818B93E
:10A310000021284600F056F82046BDE8384003F0FA
:10A3200023BF0000800100207FB50024DDE908562E
:10A33000CDE90046CDE9024500F002F804B070BD59
:10A34000F0B585B00DF1280CBCE8F0004FF0000C22
:10A350008DE8F01000F002F805B0F0BDF0B585B062
:10A360000C46DDE90D514C31DFF850C0DDE90A67DC
:10A37000CDE902C12146CDE9006703F045FE0400A6
:10A3800018D000F02FFC10222946049003F0EAFDBB
:10A39000049830220A493430FEF707FC084D04992E
:10A3A0000C3D2868486604A800F04CFC2868416809
:10A3B0002046884705B02046F0BD00004DA20008A9
:10A3C0008C0100204FF480720029114601D003F067
:10A3D00096BD03F0EEBC2DE9FF410E4605004FF09F
:10A3E00001041CD000F0FEFB0190876E01A80097CD
:10A3F00000F028FC3146684602F00EFE78B1009865
:10A400000024B84208D0284600F0ECFB01900099E7
:10A41000816601A800F016FC284604F002FA04B098
:10A420002046BDE8F081000010B5002001F0BAFC24
:10A430006FF07F4001F0B8FC012001F0E9FC002042
:10A4400001F0EEFC002001F0F5FC002001F0AEFC74
:10A450000448006801F0ACFCBDE81040002001F0A9
:10A46000B3BC0000F400002070B50C46054600F0B7
:10A47000F1F8A8682168C16261680163A16841635D
:10A48000490707D5D0E90021C0E90012D0E902212F
:10A49000C0E90212A18981842169002903D001DC6D
:10A4A0004FF00001016270BD2DE9F0411E461746D4
:10A4B0008846054600F0CEF8AC686822414604F5AF
:10A4C0008470FEF772FB2846B8472846B0472869D3
:10A4D00080688047A062BDE8F081000010B50446A6
:10A4E00000F0B8F8A0680E494C30114AC1650D491A
:10A4F00081650D4901660D4981660021C1661368B9
:10A5000043660C4BC0E91E315168416730F8261C88
:10A5100021F0030120F8261C0749416410BD00000A
:10A5200085270108792B01084D270108C72201085A
:10A530007801002097230108D526010810B50446AC
:10A5400000F088F8A4680C489034102120650B486E
:10A5500060650B48A0650B48E0650B48E0600B4860
:10A560002061206BA06654F8902920469047102067
:10A57000A0630748606410BD050701085911010870
:10A5800095A50008C5A60008812201089D2E010896
:10A5900090800108F8B5846815460F4694F82600A7
:10A5A00080074CD5D4F8FC30204698470646D4F8AE
:10A5B00000312A46394620469847D4F8943005465B
:10A5C0001BB100220121204698472069B04201DDDD
:10A5D000012000E00020A169B14201DA012100E080
:10A5E000002108436169A94201DD012100E0002149
:10A5F0000843E169A94201DA012100E00021084392
:10A600000AD06068401E00902368D4F8A4705B1ED6
:10A61000002211462046B847D4F8A8302A463146D1
:10A6200020469847D4F89C1020468847D4F89430A8
:10A6300005466BB1012200212046984708E0D4F876
:10A64000A83020469847D4F89C10204688470546F5
:10A650002846F8BD70B504468068002812D14FF432
:10A66000B875284600F03CFA2A460021A06002F0A6
:10A6700009FDA0680221C18401210464016202492C
:10A68000C0F8041170BD00008DA6000810B590B090
:10A69000044620220A496846FEF787FA0849202224
:10A6A000203108A8FEF781FA606B5DF82010C4F82D
:10A6B000FC1008A951F82000C4F8000110B010BD2A
:10A6C000B85001082DE9F84384689846154694F877
:10A6D00026000F46800740D5D4F8FC302046984726
:10A6E0000646D4F800312A463946204698470546A2
:10A6F0002069B04201DD012000E00020A169B142E3
:10A7000001DA012100E0002108436169A94201DD6D
:10A71000012100E000210843E169A94201DA012199
:10A7200000E0002108430AD06068401E00902368C2
:10A73000D4F8A4705B1E002211462046B847D4F816
:10A74000A8302A46314620469847D4F8A02001B0C8
:10A7500041462046BDE8F0431047D4F8A830F2E760
:10A760002DE9F04FDFF828B191B04FF0FF35DBF85D
:10A770000030B3F922100691DE69B3F92490F46930
:10A78000A189814206D8E289824203D3471AD4F8CC
:10A79000008012E0D4E9018100296FD00A8882424A
:10A7A0006CD84D88854269D3801A82B2486800EB24
:10A7B0008200B0F90070B0F90250781C5ED0307E93
:10A7C000A17C10FB01FA217CCDE90801B3F92A60D4
:10A7D000304603F053F9C0B20E90DBF8000007FBDF
:10A7E0000A81A37C826B0127CDE90412CDE90273B3
:10A7F000C069DDE90832C17E807ECDE900014946AD
:10A80000069802F0C5FC681C18D046F0020003F060
:10A8100035F9DBF80000A37C05FB0A81826BCDE9EA
:10A820000273CDE90412C069DDE90832C17E807E81
:10A83000CDE900014946069802F0AAFCDBF80000C9
:10A840005D46C069417E007E814214D9022E12D03D
:10A8500086F0040003F012F92868C069027EC37E06
:10A8600012FB0391437E857E099A06984B4402FBB6
:10A87000050202F01BFE0E9803F000F9DBF8000061
:10A88000627C418C1144418411B0BDE8F08F00001E
:10A89000F800002004480068C069C06909B1027C62
:10A8A0000A60407C70470000F80000200220088009
:10A8B0007047C06982898A4202D8C2898A4210D20E
:10A8C000806880B102888A420DD843888B420AD3BF
:10A8D000406800EB8100A0EB8200B0F90000002886
:10A8E00001DB012070470020704700002DE9F04394
:10A8F0002F4C034687B020681946B0F92A80C069FA
:10A90000C06900F084F800284ED041680088181A09
:10A9100001EBC0054046AE7803F0B0F881462068F0
:10A920006A680123816BCDE90236CDE90421C16952
:10A93000CB7E8A7ECDE900230B7EB0F924102A78E5
:10A94000B0F9220002F024FC2068C069477E067E30
:10A95000B7421DD9C07E47434643B8F1020F17D016
:10A9600000F003FD804600F0E3FC01F01DFA2168D1
:10A970002A78CB69B1F92200DB7E12FB0302B1F920
:10A980002410CB19314402F091FD404601F00CFA3D
:10A99000484603F073F820686A78C369B0F922105A
:10A9A0009B7E12FB0311418407B0BDE8F0830000D9
:10A9B000F800002030B50F4C05460B4620682946AC
:10A9C000C069C06900F023F8002811D041680088F0
:10A9D00024682A1A0120E46900EBC200085CA47E06
:10A9E00010FB04F0002B03D011F832106143196002
:10A9F00030BD0000F800002001200880704700B53D
:10AA0000C06900F004F8002800D0012000BD06E075
:10AA100002888A4202D842888A4202D2806800288C
:10AA2000F6D17047002801D004F01ABE704738B53F
:10AA30000546FFF7F7FF040009D000F0D3F82A46D7
:10AA40000021009002F01EFB684600F0FBF8204653
:10AA500038BD0000024A106021F0030050607047CA
:10AA600008E6002010B5002814D004460A48006B00
:10AA700010F8341000290DD002290BD2042101EB6B
:10AA8000C4014158486804F0AFFD2046BDE81040BD
:10AA900007F0E4BB10BD00004CE50020002805D005
:10AAA000034A916B016001B14860906370470000F8
:10AAB0004CE5002010B504460068FFF7D3FF0020E6
:10AAC000206010BD70B50D460646002405E000BFAD
:10AAD00006EB8400FFF7EEFF641CAC42F8DB70BDB0
:10AAE0002DE9F041044607F087F82648E41C24F0DD
:10AAF0000305C16B2D1DA94200D90D46846B13E0DF
:10AB000054F8042CAA420ED184B1216809B16268BC
:10AB10004A60616809B122680A60826BA2422ED144
:10AB2000216881632BE02468002CE9D18046416BC9
:10AB300080680F1857F8040C3E1A306838B10020AE
:10AB400007F0A4FC57F8040C3E1A3068B8B97068D6
:10AB5000A84214DB3044441B304607F04FFCD8F8C1
:10AB60000810491BC8F80810D8F810102944C8F874
:10AB7000101070683146401B04F036FD20C420469A
:10AB8000BDE8F0814CE5002010B5002407F034F852
:10AB90000C490F2001EBC002126C1AB101EBC0008E
:10ABA000006C08E0401EF5D508E04168A14200D9DC
:10ABB0000C46806810B180680028F6D1A4F10C0022
:10ABC00010BD00004CE50020002138B104490422EA
:10ABD00002EBC000096B085841680C390846704701
:10ABE0004CE5002005498A69521C8A61096B01EB1A
:10ABF000C0010A78521C0A7000F03CB84CE50020F5
:10AC000010B5FFF7C1FF64220649B0F5800F04D9E3
:10AC100090FBF2F0C969484310BDC9694143B1FBDB
:10AC2000F2F010BD4CE500200549102805D94A680E
:10AC3000B0EB520F02D3500800E01020886070473C
:10AC400008E600200A4902680B6B52F8082C03EB57
:10AC5000C2021378022B03D38B690BB15B1E8B618D
:10AC60001178491E117000210160084670470000EC
:10AC70004CE50020002806D00349042202EBC00066
:10AC8000096B0858083070474CE5002070B506463F
:10AC90000D461446104600F06FFB0300164804EB07
:10ACA00084010AD050F8210041688068711A2A1A7C
:10ACB000BDE87040184601F085B800EB8104A26839
:10ACC000B24201D0012200E00022E368AB4201D091
:10ACD000012300E000231A430CD0236943B150F84C
:10ACE0002100816840686A1A311A184601F030F86C
:10ACF000C4E9026570BD000060E7002010B5C2B273
:10AD0000CBB2D21A02D5C2F1000212B293B2C0F392
:10AD10000722C1F3072403FB03F3121B01D55242A0
:10AD200012B2000C92B2A0EB114002FB023200B250
:10AD3000002801DA404200B280B200FB002010BDC2
:10AD400010B50021084600F069FB40F6FF72504242
:10AD5000BDE8104013460146AFF300802DE9FC41E9
:10AD600007461C4615460E46042002F087FE804624
:10AD70001148C068C16C006D0F4406440D44044482
:10AD8000ADF80070ADF80450ADF80260ADF80640C3
:10AD9000684603F0EFFF07E023462A46314638466F
:10ADA00002F084FB03F0A8FF0028F5D1404602F032
:10ADB00065FEBDE8FC810000EC0000202DE9F041BB
:10ADC0001C4616460D460746022B02DB0020BDE856
:10ADD000F0811C20FFF784FE0028F8D00DB105613A
:10ADE0000AE0094A52F8241009B905E011460A6838
:10ADF000002AFBD10969016184618682002101601A
:10AE00004160C0E90217E2E71001002070B51D465D
:10AE1000FFF7D4FF040001D000F00EF8E0680068EE
:10AE200020B90348006800EB85008465204670BDAA
:10AE3000F8000020FFF732BE70B590B38269022A95
:10AE400030DA1C4C54F8221019B944F822002FE0D3
:10AE500019464B68002BFBD106E0CB68C5681B6820
:10AE60002D68AB4203DD09680029F6D11AE0C1B1B3
:10AE7000CB68C6681B683668B3420CD1838A012B45
:10AE800005D008E01946DB681B68AB4203DB0B68A2
:10AE9000002BF7D129B14B6833B118604A68426082
:10AEA00004E0FFE7012070BD44F822004860016023
:10AEB000002070BD1001002007F0D0BF022801DB88
:10AEC00000207047054951F8200004E0C168096876
:10AED0000029F6D000680028F8D170471001002042
:10AEE0002DE9F8431D461646884604000CD0FFF7AE
:10AEF00079FE0090006807686846FFF7A3FE2B46BE
:10AF0000324641462046B847BDE8F8832DE9FC4764
:10AF100006005BD000F03AFA3B4C81462068B0F95D
:10AF2000228000F053FA216807468A8CD01B88845F
:10AF300041E000BF47F6FF71304601F017FF82463F
:10AF40000146304601F0E8FE2168054691F82C00E4
:10AF500000F0030001283FD0022839D000204A8C9D
:10AF6000101A4884ADF800006A1E1044ADF80400C1
:10AF7000888CADF80200A9F101010844ADF8060083
:10AF80006A465146304601F007FC2168BDF80200D0
:10AF900088845146304601F033F9064430780A2857
:10AFA0001CD00D281AD0BDF8000021682844488420
:10AFB000307818B1761C30780028BBD12068818C9D
:10AFC00039448184818D21F003018185BDE8FC87AE
:10AFD00005EBD5704010C2E72846C0E7206890F81E
:10AFE0002C1001F0030101290BD0022909D0018C9A
:10AFF000418431780A29DBD1828C02EB09018184FA
:10B00000D6E7A0F82280F4E7F8000020024B1B6886
:10B0100059849A84FFF77ABFF80000202DE9F041A7
:10B0200007460A4815460E460068B0F92C0040F065
:10B03000020000F0F5FE04462A4631463846FFF786
:10B04000E5FF2046BDE8F04100F0EABEF800002030
:10B0500047F6FF73AFF300802DE9FC411F46904691
:10B0600006000D464FF0000416D065B1084603F007
:10B0700067FD040007D002462946684601F0D5FE68
:10B08000684603F05DFD3B4642462946304601F0E6
:10B09000DBFB204603F054FDBDE8FC811CB50A46ED
:10B0A0000146684601F0A2FF2448BDF80010006880
:10B0B00030F84C2F1144ADF80010BDF80210828812
:10B0C0001144ADF80210BDF8041002881144ADF827
:10B0D0000410BDF8061080880844ADF806006846E4
:10B0E00003F048FE27E000BFBDF900400BE000BFC1
:10B0F000BDF90210204602F07BF9BDF9061020468A
:10B1000002F076F9A41CBDF90400A042F0DABDF902
:10B1100002400AE0BDF90000214602F069F9BDF9DC
:10B120000400214602F064F9A41CBDF90600A04207
:10B13000F0DA03F0E1FD0028D6D11CBDF8000020B4
:10B140002DE9FC41104F04463B68D86C4518196D39
:10B15000ADF800500E198418ADF80440ADF8026047
:10B16000ADF80660684603F005FE08E03868224640
:10B170003146C06E03682846984703F0BDFD00289D
:10B18000F4D1BDE8FC810000F80000202DE9FC416D
:10B190001C4C2468E66C94F818C03718206DACF18C
:10B1A000010C4518C418A7EB0C001644ADF80000BC
:10B1B00006EB0C00ADF80400A5EB0C00ADF80200A6
:10B1C00004EB0C00ADF80600684603F0D3FD15E073
:10B1D00032462946384602F0DFF8324621463846E4
:10B1E00002F0DAF8621E691C384602F035F9621E78
:10B1F000691C304602F030F903F07EFD0028E7D1EB
:10B20000BDE8FC81F80000207CB50E4B1B68DC6CAF
:10B210002618186DADF8006045188418ADF8046064
:10B22000ADF80250ADF80640684603F0A3FD06E015
:10B2300022462946304602F00FF903F05DFD002852
:10B24000F6D17CBDF800002010B5002400E00124F8
:10B2500000F004F80028FAD1204610BD064810B5C9
:10B260000068002410B1804700B1012403F014F8F5
:10B2700000B10124204610BD1801002008B50B467E
:10B28000002805D0009281888268C08800F001F80B
:10B2900008BD10B50828029C30D008DC04FB01F47E
:10B2A00001280AD0022813D0042804D11CE0102859
:10B2B00028D020282CD0002010BD04EBD30003F0B0
:10B2C0000701105CC1F10701C84000F0010010BD8A
:10B2D00004EB93000621105C01EA4301C1F1060171
:10B2E000C84000F0030010BD04EB5300D907105C08
:10B2F00002D000F00F0010BD000910BD04FB0130AA
:10B30000105C10BD481004FB003032F8100010BD76
:10B31000881004FB003052F8200010BD034951F89A
:10B320002000C1688A6A082110470000100100202F
:10B3300010B502F0EBF8BDE8104002F081B9000052
:10B3400002490968C9694A6800211047F8000020CD
:10B35000024A1268D269526810470000F8000020C3
:10B36000002801D002F0D2BF704710B502F0D6F825
:10B37000BDE8104002F064B90021022802D202495F
:10B3800051F8201008467047580200200248006813
:10B39000C069407E70470000F8000020024900228A
:10B3A00088688A6070470000BC01002070B51446B0
:10B3B0000D4602F0E7F8002802D000202860206047
:10B3C00070BD01F0EFBCFDF7CFBA00000A490020C4
:10B3D000096891F82C2002F00C02042A07D0082AF0
:10B3E00001D00C2A02D1C869007E40087047C869A4
:10B3F000007E401E70470000F8000020024951F80E
:10B40000200000690068704710010020024951F8CF
:10B4100020000069406870471001002070B50D469B
:10B4200006F042FB0446284606F046FB204370BD6A
:10B43000124810B5016821F0010101601048012196
:10B4400081601049016000680F49884200D0FEE722
:10B4500001F088F90D492E200870FDF798FA0C4884
:10B4600006F092FB08F054F904460021084600F06B
:10B47000B3FC03F031F9204610BD0000002000E0CD
:10B4800000300240C2A507F4CDB5E8B5EC000020BD
:10B4900014E600201CB520B90C480068006E002896
:10B4A00012D0FFF79FFB009044696846FFF7CAFB84
:10B4B000002C09D02046FFF795FB01908168896830
:10B4C000884701A8FFF7BEFB1CBD0000F800002064
:10B4D00001490A4600F002B801F0FFFF2DE9F043F0
:10B4E00087B015460C465FEA000842D0002000F005
:10B4F0005DFC814620480068066E4046FFF772FBFF
:10B5000000900068806900F03BFC074640F6FF7041
:10B51000001904D10098B0F90440B0F90650009821
:10B52000611E0289ADF804401144ADF8081041894C
:10B53000681E0844ADF80650ADF80A0002F01AFD86
:10B540006846FFF77FFB01A803F014FC06E02A46DB
:10B550002146404600F0F8FA03F0CEFB0028F6D171
:10B56000384600F00DFC304600F048F9484600F03F
:10B570001DFC07B0BDE8F083F80000202DE9FE4F68
:10B58000834619488A46194900680C9E9846407CB3
:10B590009146002751F82040E1680968042903D04A
:10B5A0002468002CF8D100E014B9FFF787FC0446AA
:10B5B0000121E068C26A20469047050011D0246945
:10B5C000A0688047401C02D1094C46F00106009655
:10B5D000CDE9015443464A465146584600F09AF98F
:10B5E00007463846BDE8FE8FF80000201001002015
:10B5F0000C8A010838B5040018D00D480068006EA8
:10B60000A04201D100F0B2FB2046FFF7EBFA009018
:10B61000406908B100F0FDFE00980068FFF70AFCE1
:10B620006846FFF70FFB2046FFF71CFA38BD000005
:10B63000F80000202DE9FF4F83B0454CDDF840B005
:10B6400098468A4607002BD002A901A8FFF7B9FE49
:10B65000B7F90060002E00DA0026B7F90250002D7D
:10B6600000DA00252068A146407C01F0A1FF019985
:10B670000144491EB7F9040006F08BFB0446D9F8D3
:10B680000000407C01F09AFF02990144491EB7F97D
:10B69000060006F07EFBA71B7F1C441B641C0BE00E
:10B6A000206800263546407C01F082FF074620686E
:10B6B000407C01F083FF0446B8F1000F01D1C4F1D2
:10B6C0000008002F01DD002C03DC002007B0BDE8DE
:10B6D000F08F43463A4629463046CDF800B0FFF792
:10B6E0004DFF5FEA000909D000F054F88046484653
:10B6F00000F084F80027DFF85CB01FE051460598A1
:10B7000088470120E2E7E11B414502DA484600F0A4
:10B710005FF83FB1EA193146484600F099F84846CB
:10B72000FFF7B8FE514605988847DBF8001009B1CD
:10B73000002088474846FFF7CBFE4744A742E2DB9C
:10B740004846FFF757FF002000F058F8BDE700001B
:10B75000F80000207402002038B5002460B1FFF723
:10B7600041FA0090006800698068804702F008FB99
:10B7700004466846FFF766FA204638BD38B5FFF73D
:10B7800031FA00F1180400906846FFF75BFA204692
:10B7900038BD000038B5002418B907480068006EAD
:10B7A00038B1FFF71FFA0090B0F90A406846FFF77A
:10B7B00049FA204638BD0000F800002010B504F01A
:10B7C000C3F8002803D0BDE8104000F06DB810BDEC
:10B7D00038B50C4620B908480068006E00280AD029
:10B7E000FFF700FA0090B0F90A10A14200DD448191
:10B7F0006846FFF727FA38BDF8000020F8B5134E69
:10B8000005003068046E0CD00CB100F0AFFA02F005
:10B81000A1FC2846FFF7E6F9009031680A6E1AB1DC
:10B8200006E000F0A3FA0EE0D1E90223C1E91923F2
:10B830000D660068FFF700FB6846FFF703FA02F0A9
:10B840007BF902F08DF82046F8BD0000F8000020DA
:10B850007CB515460C4620B912480068006E0028D9
:10B860001FD0FFF7BFF92DB20090C58024B28480AD
:10B8700002F076F80098406980B1FFF7B3F9009ABA
:10B880000190B2F908108180B2F90A20C28011B18A
:10B890000AB10480458001A8FFF7D4F96846FFF794
:10B8A000D1F97CBDF800002001490A4600F002B839
:10B8B00001F0FFFF7FB515460C46060028D0FFF7C4
:10B8C00091F940F6FF710190091903D1B0F90440D4
:10B8D000B0F906500289611E1144ADF80840ADF878
:10B8E0000C104189681E0844ADF80E00ADF80A50EE
:10B8F00001A8FFF7A7F902A803F03CFA06E02A46E0
:10B900002146304600F008F903F0F6F90028F6D198
:10B910007FBD00002DE9FF4FDFF8E0B083B01C468B
:10B92000DBF80010DDE91060924600274B7C3A46B8
:10B930001299FFF743FA05005DD0286980688047B7
:10B9400002F01EFA81460AFB09F0C01D4FEAD0083A
:10B95000FFF756F9F10705D1C11700EB9170801080
:10B9600000EB4000002C06DC1838B0FBF8F0644215
:10B97000A04200DC0446F00707D10090DDE9030196
:10B980002346524600F0BCFC0746002C03DC284648
:10B99000FFF750FA2FE004FB08F01830F10702D04F
:10B9A000FFF740F801E0FFF742F806001CD0FFF770
:10B9B00019F901900560039981800499C180A0F86C
:10B9C00008A04481C0F80C80C0E9049701A8FFF7E3
:10B9D00039F91298AE602861DBF80000407CA8615C
:10B9E000304607B0BDE8F08F2846FFF723FA17B1BD
:10B9F0003846FFF737F80020F3E70000F800002092
:10BA00002DE9F74F92B090461298FFF7EBF80B90A4
:10BA1000B0F908100691B0F90A100D91006800699C
:10BA2000D0F804B00BA8FFF70DF9384C384D20685A
:10BA3000407C55F82000C1688A6A082190478146F9
:10BA4000182801D34FF020092068407C55F82000C9
:10BA50000069079003C80C902E48814201D0012054
:10BA600000E000201090002000F010FD002849D1D7
:10BA70000026DDE91207B2460FAB069C4546761C50
:10BA80000193FFF77BFE014604FB0AF001EB800205
:10BA9000234629463846CDF800B000F077FF050070
:10BAA00030D01098D0B1DDE906134A46284600F0A0
:10BAB0009FFD98B9DDE906702C46D0F810C0BCF1A6
:10BAC000000F05D0294604233A460846E04705E022
:10BAD0000C992068884701C47F1EF9D10020CDE968
:10BAE0000305059001200090CDE901094146034678
:10BAF00008F10108069A139801F04AFB0D98401EC0
:10BB00000D90B6D115B0BDE8F08F0000F800002010
:10BB1000100100205FD60008F8B515460E4607460E
:10BB2000FFF760F8009000681621C068426A0020A4
:10BB3000904704466846FFF785F8002C03D02A4654
:10BB400031463846A047F8BDF8B515460E460746BB
:10BB5000FFF748F8009044696846FFF773F83846E5
:10BB6000FFF7FAFD0346082800DD2CB12A463146CE
:10BB7000384607F0A9F9F8BD2A463146384607F09D
:10BB80003BFBF8BD10B5002821D009B30AB3B1F9C9
:10BB90000040B2F900309C4200DA23460380B1F93C
:10BBA0000240B2F902309C4200DA23464380B1F9E8
:10BBB0000440B2F904309C4200DD23468380B1F991
:10BBC0000610B2F90620914200DC1146C18010BD7A
:10BBD00011460A6802604968416010BD00280BD018
:10BBE00003880B4403808388194481804188114471
:10BBF0004180C1881144C1807047000070B5104D6C
:10BC00000446D5E9000188420ED10E49884203D18D
:10BC1000D0E90F12406C03E00C38D0E900128068C4
:10BC20002160C4E9012006E090E80E0084E80E00DF
:10BC300005F058FF2860207A002800D0012070BD50
:10BC4000C802002088E700200448D0E900108142A3
:10BC500001D101207047002070470000C802002079
:10BC6000054A10B50349116007F016F8BDE8104009
:10BC700000F0EAB875E300081C01002070B5094C1B
:10BC80000020D4E900218A420AD0D2E900561046A9
:10BC900005F032FF20603146284602F001FE012007
:10BCA00070BD0000BC0100202DE9FC41154DDDE90F
:10BCB00008742D68B5F90860864200DD3046B5F994
:10BCC0000C60964200DA3246824219DBB5F90A600E
:10BCD0008E4200DD3146B5F90E509D4200DA2B460A
:10BCE0008B420DDB00E02C46E5682D6825B1042D64
:10BCF00002D02568002DF6D1CDE9007401F018FDC1
:10BD0000BDE8FC81F8000020B0F90220B1F906304E
:10BD10009A4213DCB1F90220B0F906309A420DDCE8
:10BD2000B0F90020B1F904309A4207DCB1F90010F3
:10BD3000B0F90400814201DC012070470020704707
:10BD40000146024878220068FCF72FBFF800002067
:10BD5000002801D006F0BABD7047000002497822E1
:10BD60000968FCF722BF0000F800002010B501F0C0
:10BD7000ABFD01F0E1FEBDE8104002F0FBB80000B1
:10BD800070B504460548022C0068457C02D2447414
:10BD9000FFF7ECFF02480460284670BDF800002061
:10BDA000FC01002001F0B2BD01F0E8BD01F066BE6B
:10BDB00003490968CA6900B1C861104670470000AC
:10BDC000F800002001F076BE024909688A7E887674
:10BDD00010467047F8000020094A30B41080094A24
:10BDE0001180094A1268537C084A52F82330DA68F5
:10BDF000146A0A46A446014630BC18466047000053
:10BE0000280100202A010020F80000201001002055
:10BE1000024909680A7E087610467047F80000203B
:10BE200003490968B1F92C20888510467047000045
:10BE3000F800002003490968B1F92A204885104616
:10BE400070470000F800002002480068002800D079
:10BE500000477047D001002002498A6802B9886013
:10BE6000FFF7F2BFBC01002010B5040009D006F0B6
:10BE7000DFFA204606F0CAFF2046BDE81040FEF774
:10BE8000F1BD10BD38B50C4660B1FEF7ABFE0090B9
:10BE90008089204201D0012400E000246846FEF79A
:10BEA000D1FE00E00124204638BD000038B505462B
:10BEB000002028600648046844B12046FEF792FE40
:10BEC0000090006928606846FEF7BCFE204638BD39
:10BED0006002002038B504004FF000000D460860F5
:10BEE00011D02046FEF77EFE0090846844B168467B
:10BEF000FEF7A8FE2046FEF775FE00900069286058
:10BF00006846FEF79FFE204638BD000038B5094858
:10BF10000024406860B1FEF765FE0090FFF753FA19
:10BF2000009949690C1A00D500246846FEF78AFE7C
:10BF3000204638BD600200200349002049680029DE
:10BF400000D0012070470000600200202DE9F84F6A
:10BF5000DFF89C800546274F98F818008B4641076C
:10BF600038680A9E9946407C924607D401F032FB1D
:10BF700004463868407C01F039FB06E001F036FBEE
:10BF800004463868407C01F025FB002795B1A0F1FC
:10BF9000010400BFB9EB060000D54042142806DBBF
:10BFA0005146BBEB0A0000D54042142804DA0120B8
:10BFB000BDE8F88F641EEDE70A464B465946384601
:10BFC000009605F0ABFE0C4F4B46524647F8350045
:10BFD00059462046009605F0A1FE07EBC5014860D2
:10BFE00006F090FB01210020C8F81C10E0E70000DB
:10BFF0002C010020F80000208CE600202DE9F047FD
:10C00000524D534E0024E86978B96868346000F0F6
:10C010000501746010F0060F01D000F00500B46057
:10C02000F46006F06FFB0120E8612878C8B1FCF7E6
:10C0300093FCA8462861FCF78DFC2969286A814297
:10C040000BDBD8F824204046914206DC836A426923
:10C050009A4202DBC36A9A420DDD4FF0FF3001467F
:10C060006FE0FCF77DFC6861FCF775FC2878401CEC
:10C070002870BDE8F087326898F81800354F8D1A9F
:10C08000400700283868407C02DB01F0A3FA01E099
:10C0900001F0ACFA401E4543D6E90020B146801AB3
:10C0A00095FBF0F6D8F81420D9F8081098F8180085
:10C0B000551A400700283868407C02DB01F096FAE8
:10C0C00001E001F087FA401E4543D9E90201081A50
:10C0D00095FBF0F598F81800400700283868407C78
:10C0E00018DB01F077FA81463868407C01F07EFA6F
:10C0F000D8F818200146D00704D0A9EB0600A0F11B
:10C10000010000E03046920702D5491B491E18E0A5
:10C11000294616E001F06AFA81463868407C01F051
:10C1200059FAD8F81820D10704D0A9EB0601A1F1DB
:10C13000010100E03146920702D5401B401E00E09D
:10C14000284606F0D5FD88F8004092E72C01002033
:10C150008CE60020F8000020074A002806DB0029B2
:10C1600004DB01231372C2E9000101E00020107218
:10C17000014800F003B800000CE7002010B50446A9
:10C180000C220749FCF73AFC002808D0044894E840
:10C190000E000EC02046BDE81040FFF761BD10BD87
:10C1A000D0E7002030B40A4C2268831A01D5C3F1CD
:10C1B000000362688A1A00D552421A44022A04DD3A
:10C1C000C4E9000130BCFFF7C7BF30BC70470000B6
:10C1D000C80100202DE9F041084E0446056830688A
:10C1E00001682846884707463068416828468847DE
:10C1F000284420603846BDE8F0810000FC000020A3
:10C200002DE9F0410C4606460025064F05E038684A
:10C2100041683046884706440544641EF7D22846E4
:10C22000BDE8F081FC0000202DE9F0411E46069C8F
:10C230001746884605463A46A8687F1C3346D0F81C
:10C2400004C041462846E047641EF4D1BDE8F081B1
:10C2500070B5B0F90040091BB0F904408C422CDDE8
:10C2600000F11404B0F902500069521B02FB0040B7
:10C27000CA1800EBE104521ED010B0EBE10501F04A
:10C2800007034FF0FF0102F0070221FA03F0C2F1A9
:10C29000070201FA02F1CEB221780FD001436D1EE0
:10C2A00004F8011B002D05DDFF2229462046FCF77E
:10C2B000AEFC2C4420783043207070BD30400143E8
:10C2C000217070BD10B5B0F90030B0F90240C91A44
:10C2D00000F114030069121B02FB003000EBE100C7
:10C2E00001F0070302788021D9400A43027010BD93
:10C2F000B0F90610026951431430FCF790BC0000FD
:10C300002DE9F843804602F10F000011470003FBBE
:10C3100007F01C46154689461430FEF788FB0600D8
:10C3200013D0FEF75FFC0090A0F80080A0F8029008
:10C330008580C4800649816001218181076168464A
:10C34000FEF780FC3046BDE8F8830020FBE70000E4
:10C35000988A010870B5B0F90660B0F904400B681E
:10C3600000F11405964220DD0069A34202FB005053
:10C3700000EBE30219DAA4F101044FEAE400A0EBB8
:10C38000E30512F8010B03F0070400FA04F0C4B24D
:10C3900008E055B112F8014B03F10803A5F10105BE
:10C3A00023F00703002CF4D008E0002070BD00BF8C
:10C3B0004FEA44604FEA106403F101032006F7D509
:10C3C000FF2C0AD0184605E04FEA44644FEA146493
:10C3D00000F101006606F7D400E0D81DC4436407ED
:10C3E00006D007E012F8014BFF2C0FD100F1080036
:10C3F0006D1EF7D5A0EB030000F101000B6070BDCE
:10C400004FEA44624FEA126400F101002206F7D4B9
:10C41000F0E738B50546FEF7E5FB00908189491E37
:10C420000CB284816846FEF70DFC002C02D1284630
:10C43000FEF718FB38BD000010B50C4CA06860B1C9
:10C44000FFF77AFD68B1FFF761FD00280DD0A16804
:10C4500000290AD0BDE810400847FFF76DFD00280D
:10C4600003D1BDE8104006F011BD10BDD001002081
:10C470002DE91040FEF792FF002806D1FEF7E4FEFA
:10C480000028F7D1FFF7D8FFF4E710BD0EB508B1CB
:10C4900002AA00E00022002301A9684600F0F4FB94
:10C4A0000EBD0000074910B5CC6818B10120C86066
:10C4B000801E03E00020C8606FF07F4000F052FE55
:10C4C000204610BDD002002010B5082A0EDC03461D
:10C4D000012A1AD0022A58D0042A78D010F8042B46
:10C4E00003F8012B491EF9D1012010BD102A0ADCE6
:10C4F0000222022AF8D1024630F8043B22F8023B1D
:10C50000491EF9D1F0E7002010BD10F8042BD20726
:10C51000120E491E34D010F8044B491E04F00104D9
:10C5200042EA84122CD010F8044B491E04F0010496
:10C5300042EA441224D010F8044B491E04F00104CE
:10C5400042EA04121CD010F8044B491E04F0010406
:10C5500042EAC40214D010F8044B491E04F001044E
:10C5600042EA84020CD010F8044B491E04F0010486
:10C5700042EA440204D010F8044B04F001042243C0
:10C5800003F8012B0029C0D1AEE710F8042B920765
:10C59000120E491E15D010F8044B491E04F0030476
:10C5A00042EA04120DD010F8044B491E04F00304B3
:10C5B00042EA840205D010F8044B04F0030422433D
:10C5C000491E03F8012B0029DFD18DE7FFE710F8A2
:10C5D000042B1207120E491E05D010F8044B04F06C
:10C5E0000F042243491E03F8012B0029EFD17BE7FA
:10C5F0002DE9F0411E680D460446082A09DC07466D
:10C60000012A21D0022A62D0042A7CD0082A1AD119
:10C6100095E0102A03DC02200228F8D102E0002075
:10C62000BDE8F081D3F810C02746BCF1000F04D05C
:10C630000A462146022308468AE001CCB04727F883
:10C64000020B6D1EF9D18BE001CCB047C0074FEA59
:10C6500010686D1E36D001CCB04748EA801000F05B
:10C66000FF086D1E2ED001CCB04748EA401000F004
:10C67000FF086D1E26D001CCB04748EA001000F03C
:10C68000FF086D1E1ED001CCB04748EAC00000F084
:10C69000FF086D1E16D001CCB04748EA800000F0BC
:10C6A000FF086D1E0ED001CCB04748EA400000F0F4
:10C6B000FF086D1E06D001CCB04740EA080000F02C
:10C6C000FF086D1E07F8018B002DBDD148E001CC9D
:10C6D000B04780074FEA10686D1E18D001CCB047F4
:10C6E00048EA001000F0FF086D1E10D001CCB047E2
:10C6F00048EA800000F0FF086D1E08D001CCB0476A
:10C7000040EA080000E007E000F0FF086D1E07F8AF
:10C71000018B002DDBD123E001CCB04700074FEAAD
:10C7200010686D1E06D001CCB04740EA080000F04A
:10C73000FF086D1E07F8018B002DEDD110E0D3F836
:10C7400010C0BCF1000F05D00A460146012338464F
:10C75000E04705E001CCB04707F8010B6D1EF9D1A9
:10C7600001205DE70A4810B5816900290ED1012139
:10C770008161FCF75BF8FCF782F8054905481C313C
:10C780000860BDE81040084600F03EBC10BD000047
:10C79000EC000020A51E01087CB5064628480D4681
:10C7A000006868B1002002F0E5FA06E06A46294612
:10C7B000304603F095F902F09FFA0028F6D17CBDCF
:10C7C000106800901F4C506801902268BDF800006E
:10C7D00032F84C1F0844ADF80000BDF80200918803
:10C7E0000844ADF80200BDF8040011880844ADF813
:10C7F0000400BDF8060091880844ADF806006846BC
:10C8000002F0B8FA0EE000BF2068BDF800106A46DA
:10C810004184BDF8021081842946304603F060F956
:10C8200002F06AFA0028EFD1206830F8221F428D0A
:10C83000891A01804188C28D891A41807CBD00001F
:10C8400024010020F80000202DE9FF4F85B09A4612
:10C8500090460D46FEF79AFD4FF00009DDF814B042
:10C8600006464C4625B1286800906868019002E0B1
:10C870006846FEF775FD18F00C0F02D055460027EC
:10C8800013E0BDF902402DE07F1C2946059800F019
:10C890006DFA01466D1A0598FFF7B2FC0599084438
:10C8A000059005A800F098FA08B9002DECD108F021
:10C8B0000C00042804D0082802D00C2812D105E06E
:10C8C000BDF9060007FB1604641C0BE0BDF9060069
:10C8D000BDF90210401A07FB1600401C00EBD07097
:10C8E00001EB60045546CDF814B043E029460598A5
:10C8F00000F03CFA07460146ED1B059800F00CFAE3
:10C9000018F003010ED0012939D002290DD1BDF94B
:10C910000410BDF90020891A091A01EBD17102EB4C
:10C92000610101E0BDF900108946174A401E4844E4
:10C9300012683946A2F822909484ADF80C00A01930
:10C94000401EADF80890ADF80E00ADF80A4002AAFE
:10C950000598FFF721FF39460598FFF751FC059927
:10C9600008440590FEF712FD044405A800F034FACF
:10C97000002801D1002DB9D109B0BDE8F08FBDF973
:10C980000410091A491CCFE7F80000202DE9FF4FD9
:10C9900000208BB004460146009019981D461646AB
:10C9A000016007AB002203A902A800F06DF918B1DD
:10C9B00000200FB0BDE8F08F0798854200DD0546E6
:10C9C0005C4F0A955C493868407C51F8201004910E
:10C9D00009690691FEF7A2FC05903868407CFEF7D5
:10C9E00015FD56498146884204D05549894501D0F4
:10C9F000012000E00020099001CE18998847824666
:10CA00005FEA106B71D0009870BB0B9800EB0408C4
:10CA100048480068B0F90800404503DDA0EB08076E
:10CA2000804600E000270299049801EB840101EBA5
:10CA30008701CDE90010DDE90A010A180C9B089274
:10CA4000521E19464046FFF72FF901200090059825
:10CA500018280ADA0298DDE9052300EB840000EBD0
:10CA60008700E91B00F070F810E0099870B1029897
:10CA700000EB840000EB87070898A0EB0808494604
:10CA80003868884701C7B8F10108F8D12D48C06956
:10CA900060B3DDE9020700EB840007EB8402CDE917
:10CAA0000202284C361F2B46E46930460299A04703
:10CAB000FF203168B0EB116F02D10299096804E0E0
:10CAC000029A1268B0EB126F01D1039A11600299B9
:10CAD000361D091D02910399091D03916D1EE8D1B0
:10CAE00019990120039708601DE01EE0FFE7BBF1E4
:10CAF000FF0F0ED00298CBF1FF0250F824105046E1
:10CB000000F01AFA039941F82400199901200860ED
:10CB100005E00298039950F8240041F82400641CB1
:10CB20006D1E7FF469AF039843E7039941F824A091
:10CB3000EBE70000F8000020100100205FD600089D
:10CB40005DD600089C0200202DE9F05F0C1E16DD6A
:10CB50005E68014600EB8405082A12DC611E012A8A
:10CB600028D0022A48D0042A6AD0082A07D10719F7
:10CB700017F8010DB04745F8040D641EF8D1BDE863
:10CB8000F09F102AFBDC0222022AF8D15F693FB134
:10CB90002246BC46BDE8F04F02235DF804EB604737
:10CBA00001EB440737F8020DB04745F8040D641E49
:10CBB000F8D1E4E700EBE1002D1F10F801A9814650
:10CBC00001F00707802020FA07F800BF0AEA0800F2
:10CBD000C7F10701C840B04745F804093FB17F1EBF
:10CBE0004FEA4860000E8046641EEFD1C7E7072772
:10CBF00019F801A90120F6E700EBA1002D1F01F0B3
:10CC0000030710F801A981467900C02020FA01F835
:10CC10004FF0060B0AEA0800ABEB4701C840B047EB
:10CC200045F804093FB17F1E4FEA8860000E804638
:10CC3000641EEFD1A3E7032719F801A93846F6E7E8
:10CC400000EB610001272D1FA74310F801A98146C1
:10CC5000B900F02020FA01F84FF0040B0AEA0800AE
:10CC6000ABEB8701C840B04745F804093FB17F1ED0
:10CC70004FEA0870000E8046641EEFD17FE701275F
:10CC800019F801A90F20F6E72DE9F047204C0646D8
:10CC90001F46A06990468946002540B90120A06141
:10CCA00004F120011B480860084600F0ADF96069F6
:10CCB00010B900F080FC606107B138604EB1A06827
:10CCC00030B960698000FDF70BFFA06000B9012555
:10CCD0003060B9F1000F0AD0E06830B960698000B7
:10CCE000FDF7FEFEE06000B90125C9F80000B8F1CB
:10CCF000000F0AD0206930B960698000FDF7F0FEAE
:10CD0000206100B90125C8F800002846BDE8F08779
:10CD10009C020020191F010873B5124A01A900984E
:10CD20001268904700240090C8B10F490025096897
:10CD3000C969496959B10A684AB1019990477CBDEE
:10CD40006846FFF747FA0546FEF7FAFA04440198E9
:10CD5000401E0190F4D5284600F032F804442046E5
:10CD60007CBD0000C4020020F800002073B50D4611
:10CD70000098002490B10A490968C969496959B104
:10CD80004A684AB1294690477CBD6846FFF722FAB7
:10CD900020B10A2802D0641CAC42F6DB20467CBDE0
:10CDA000F8000020044AB2F9002002600348B0F9FC
:10CDB0000000086070470000280100202A010020C0
:10CDC00038B5002469460094FEF7C2FA0099814202
:10CDD00000DD0C1A204638BD016811F8012B12B194
:10CDE0000A2A02D002E0012070470160002070474B
:10CDF000B0F90030B1F90020934200DA0280B0F9B6
:10CE00000230B1F90220934200DA4280B0F90430D6
:10CE1000B1F90420934200DD8280B0F90620B1F917
:10CE200006108A4200DDC180704770B5B1F900403C
:10CE3000B2F900309C4200DD23460380B1F9025074
:10CE4000B2F90240A54200DD2C464480B1F90460ED
:10CE5000B2F90450AE4200DA35468580B1F90610C9
:10CE6000B2F90620914200DB1146C1809D4201DBF0
:10CE7000A14201DA002070BD012070BD01460248C8
:10CE80000068407C00F002B8F8000020F8B50126E8
:10CE90000F46054602284BDA264C5FB3012F02D01D
:10CEA000022F45D116E054F8250088B92846FEF730
:10CEB00005F80090B8B3C0680D21426A68469047F3
:10CEC000020035D039460098904754F825000026D6
:10CED000401C2BE0FDF7F2FF009020B3C0680D214D
:10CEE000426A68469047020022D03946009890472F
:10CEF00000261DE054F8250001280FD12846FDF733
:10CF0000DDFF009050B1C0680D21426A684690472D
:10CF1000020003D0394600989047002654F82500B7
:10CF200010B1012101E003E00021401A44F825007E
:10CF30003046F8BD5002002070B5FF23B3EB116FEF
:10CF40002CD0C3B213FB02F500F47F4400F47F033E
:10CF500054435343000E10FB02F6C2F1FF00CAB265
:10CF600012FB005201F47F4505FB004401F47F05EC
:10CF700005FB0033090E11FB0065C2F307204FF4D7
:10CF80007F024FF47F4102EA132201EA14214FF09D
:10CF90007F43084303EA05431043184370BD2DE95E
:10CFA000F04F1546DDE90CB90C4606464FF0000877
:10CFB00018E00B9F4FF0FF0A01CE08CCAAEB1062DD
:10CFC00002FB09F2B2FBFAF1CAB21946FFF7B4FF4D
:10CFD00020F07F4001C57F1EEED1099808F10108BD
:10CFE00004EB8004D845E4D3BDE8F08F0B881344EC
:10CFF00003808B889B1A83804B8813444380C988A5
:10D00000891AC1807047000002494A69426048613C
:10D0100070470000EC0000202DE9F8430768064641
:10D0200088460025384600F083F840B3404600F0BB
:10D030008FF8441C3846FDF7C7FD84420CD1F4B18B
:10D040003846FDF7CFFD224641460090FBF726FD0E
:10D050006846FDF7F7FD11E02046FDF7E3FC04000C
:10D060000DD0FDF7BFFD41460090FBF7F3FC68468D
:10D07000FDF7E8FD3046FDF71DFD3460012528462B
:10D08000BDE8F88310B502E000F8011B521E0AB19A
:10D090008307F9D1930818D001EB014402F0030291
:10D0A00004EB042405E0046044608460C460103034
:10D0B0001B1F042BF7DA01E010C05B1E002BFBD115
:10D0C00003E000BF00F8011B521E002AFAD110BD78
:10D0D00010B5830702D520F8021B521E530810D04A
:10D0E00001EB0144042B08DB046044608460C460ED
:10D0F00010301B1F042BF7DA01E010C05B1E002B61
:10D10000FBD1D20700D0018010BD000000B907A0FC
:10D1100021B906A102E03AB1401C491C02780B7803
:10D120009A42F8D0012070470020704700000000AC
:10D1300038B50D46012448B1FDF754FD294600904D
:10D14000FFF7E4FF04466846FDF77CFD204638BD46
:10D150004FF0FF3120B110F8012B491C002AFAD101
:10D160000846704702490A68086010467047000088
:10D17000F00200200449054A0968497C52F8211050
:10D180000969096808470000F80000201001002024
:10D190002DE9F04F05468DB07C48DDF860901A9C73
:10D1A00000681E4617464FF0000A78B11B9B199A7B
:10D1B000CDF808900593CDE90324DDE91623CDE9E8
:10D1C0000023046833463A46284682E0DDE9160229
:10D1D00001EB060805EB070C1043A8F10108ACF1C0
:10D1E000010C012806D0C9F1080005900020029129
:10D1F0000890C8E066480268B2F90A30581A002858
:10D2000006DD361A002E65DD1946199B00FB034426
:10D21000B2F90E00A8EB0000002802DD361A002E3D
:10D2200058DDB2F90C00ACEB0000002800DD3F1A1D
:10D23000B2F908300020AB4237DD581B3F1A4B468D
:10D24000B9F1080F28D007DC012B0DD0022B13D029
:10D25000B9F1040F29D117E0102B1FD0182B20D0C3
:10D26000B9F1200F21D11CE020F0070304EBE0040A
:10D270001D4400F0070018E020F0030304EBA004B5
:10D280001D4400F0030010E020F0010304EB6004F3
:10D290001D4400F0010008E0044404E004EB4004F5
:10D2A00001E004EB800405440020002F12DD1B9BED
:10D2B000DDF864C0CDE90403CDE902C4CDE900691D
:10D2C000527C34483B4650F82200C26854680A46F3
:10D2D0002946A0470DB0BDE8F08F17990298084481
:10D2E00009902B49401E00900A68B2F90A30834227
:10D2F00041DCB2F90E10029881423CDB4FF0000B8A
:10D30000D84603950B9434E0BBF1000F05D10B9880
:10D310004FF0080B10F801AB0B900599ABEB090B24
:10D320003AFA01F00AFA09F101F0FF0A04D11849AA
:10D330000968097C890716D415490968C96B0A6808
:10D340000C921B9A0AB152F82000086016990398B3
:10D35000009B4218521E029900F0A8F80C490C9844
:10D360000968C96B08600399169808F10108084418
:10D370000390B845C8DB0898401C089009980290B3
:10D38000199804440898B042A7DBA3E724010020C1
:10D39000F800002010010020F0B40C461249096882
:10D3A000B1F90A30A3421CDCB1F90E30A34218DBFC
:10D3B000B1F90830834200DD1846B1F90C309342D0
:10D3C00000DA1A4682420CDB4B7C084951F82350A4
:10D3D00013462246E9688E6801462846B446F0BCEA
:10D3E0006047F0BC70470000F800002010010020EA
:10D3F0000A46174930B40968B1F90A30934225DC6E
:10D40000B1F90E30934221DBB1F9083083421DDCC3
:10D41000B1F90C30834219DB0B7C0E4CDB0709D0D1
:10D42000497C54F82130D968CC690146A44630BC07
:10D4300018466047CB6B497C1B6854F82140E16873
:10D440008D6901462046AC4630BC604730BC704711
:10D45000F800002010010020124B30B41B68B3F913
:10D46000084084421CDCB3F90C40844218DBB3F959
:10D470000A408C4200DD2146B3F90E40944200DAA6
:10D4800022468A420CDB5C7C074B53F82440E3685D
:10D49000DD6813460A4601462046AC4630BC60476C
:10D4A00030BC7047F80000201001002038B5134C44
:10D4B0002468B4F90850854200DD2846B4F90C50C0
:10D4C000954200DA2A46824217DBB4F90A508D42AF
:10D4D00000DD2946B4F90E509D4200DA2B468B42FE
:10D4E0000BDB0093647C064B53F82440E3681D6912
:10D4F00013460A4601462046A84738BDF8000020DA
:10D5000010010020082104F0E9B900000248006879
:10D51000806B006870470000F80000200248006837
:10D52000C06B006870470000F80000200248092125
:10D530000068407C04F0D2B9F8000020092104F012
:10D54000CDB970B500252C462046FDF7B7FC00B1DB
:10D550006D1C641C022CF7DB284670BD0248006875
:10D56000407C00F003B80000F800002010B5FDF783
:10D57000A5FC002805D0C168CA6ABDE81040022198
:10D58000104710BDF8B515460E460124FDF796FC70
:10D59000009058B1C0680421426A68469047030071
:10D5A00004D02A4631460098984700242046F8BD0A
:10D5B000032104F093B9032004F00BBA042104F012
:10D5C0008DB90000024801210068407C04F086B952
:10D5D000F8000020012104F081B900000248022176
:10D5E0000068407C04F07AB9F8000020022104F0C1
:10D5F00075B900F001B800002DE9F041002809D00C
:10D60000876837B10D4E716819B10468B4F5807F31
:10D6100002DD0020BDE8F0813068844200DD044670
:10D62000002507E057F82500FFF7A4FD716841F8D1
:10D6300025006D1CA542F5DB7068EBE7E0010020DA
:10D640000449054A0968497C52F82110096949686A
:10D6500008470000F80000201001002070477047C4
:10D6600010B500F01F01074A074BC0F34514C0F383
:10D67000C4201B5D105C515C00EB032000EB0140FB
:10D6800010BD0000507001087070010810B50A4C00
:10D69000606860B920688000FDF722FA606040B1E0
:10D6A00004F10801054808600846FFF7ADFC0020BA
:10D6B00010BD012010BD0000E0010020D11E0108B6
:10D6C0002DE9F041FFF73DFF0746002528E02846F9
:10D6D000FDF7F4FB18B32846FEF752FB80462846B8
:10D6E000FFF710FF082817DC0F48104950F82500F5
:10D6F0000069884210D02846FFF720FF0646002424
:10D7000008E0E0B2FFF79CFF0246E1B2284600F0D5
:10D71000BBF9641CB442F4DB4046FEF731FB6D1CE0
:10D72000BD42D4DBBDE8F08110010020D0800108AB
:10D730002DE9FF4F83B01646DDE910408B46C068E7
:10D740004769426A7AB1012111A8904705000AD0C1
:10D750000698CDE9000433465A4603991198A84724
:10D7600007B0BDE8F08F57480068407CFDF7D6FD54
:10D770008246082801DC012005E0BAF1100F01DC27
:10D78000022000E004208046002596E04046B8F1E3
:10D79000010F05D0022871D0B8F1040F25D17CE02B
:10D7A000BAF1090F21D2DFE80AF08605213F3F597F
:10D7B00059595900039815E001465A461198B8473F
:10D7C000C5F1070188404FF67F722178EA40114089
:10D7D00001436D1C217004EBE50425F007000541B1
:10D7E00009F101008146B042E6DD64E0039817E0EC
:10D7F00001465A461198B8470621A1EB45018840D9
:10D800006B004FF63F722178DA40114001436D1CE6
:10D81000217004EBA50425F00300054109F1010086
:10D820008146B042E4DD46E0039813E001465A46E3
:10D830001198B8470421A1EB850188402178AB00FD
:10D840000F229A401140014321702C4485F00105BC
:10D8500009F101008146B042E8DD2CE0DDF80C90D2
:10D8600007E001465A461198B847207009F10109AE
:10D8700044444846B145F4DD1DE0FFE7DDF80C9077
:10D8800007E001465A461198B847208009F101097E
:10D8900044444846B145F4DD0DE0DDF80C9007E066
:10D8A00001465A461198B847206009F101094444DD
:10D8B0004846B145F4DD0BF1010B06998B457FF726
:10D8C00065AF4DE7F800002010B50E4C0E492068FA
:10D8D000407C51F8200050B1C1680968042903D088
:10D8E00000680028F8D102E008B1FDF7E5FA2068E9
:10D8F0000021016600F108014161BDE8104000F01F
:10D900002FB80000F800002010010020014909682C
:10D9100049680847DC010020044909680A7C52076D
:10D9200001D5C96B00E0896B08607047F8000020E2
:10D930007CB5094C05462068417C084850F8210018
:10D94000C1680A6B6946904720686A4629460830D4
:10D95000FFF76BFA7CBD0000F800002010010020EA
:10D960000448016804484A7C083150F82200C26823
:10D97000126B1047F80000201001002001490968CF
:10D9800009680847DC010020044909680A7C52073D
:10D9900001D5896B00E0C96B08607047F800002072
:10D9A00010B503460C463348808849F2413188421D
:10D9B00005D03048808845F21031884218D12D4872
:10D9C00040892D49088018124FF0D841A1F88000F5
:10D9D000D8B2A1F880002748808927490880201202
:10D9E000891C0880E0B24FF0D841A1F880003FE0E8
:10D9F0002048808845F21051884226D11D48408930
:10DA00001D49088018124FF0D841A1F8800019482C
:10DA10004089401C18490880D8B24FF0D841A1F87D
:10DA20008000144880891449088020124FF0D841A2
:10DA3000A1F880000F488089401C0F490880E0B29F
:10DA40004FF0D841A1F8800012E00A4880790128FF
:10DA500004D108480088401EC01A83B2054948898D
:10DA60001946F3F797FA034988892146F3F792FAA2
:10DA700010BD0000981700207E00006C0149096865
:10DA800089680847DC010020F8B515460E460124D8
:10DA9000FDF714FA009058B1C0681021426A684638
:10DAA0009047030004D02A46314600989847002446
:10DAB0002046F8BDF8B515460E460124FDF7FEF9DF
:10DAC000009058B1C0680321426A6846904703003D
:10DAD00004D02A4631460098984700242046F8BDD5
:10DAE000F8B515460E460124FDF7E8F9009058B147
:10DAF000C0680B21426A68469047030004D02A465A
:10DB000031460098984700242046F8BDF8B51546E0
:10DB10000E460124FDF7D2F9009058B1C0680A21E1
:10DB2000426A68469047030004D02A46314600986E
:10DB3000984700242046F8BD10B5074C2068006BBC
:10DB4000FFF718FBFFF720FF2068406BFFF712FB81
:10DB5000BDE81040FFF7E0BEF80000200248008951
:10DB60000249088070470000981700207E00006C72
:10DB70002DE9FF4F8DB01746674ADDF870901E9E65
:10DB8000209812681D4600248AB11D9B1F98CDE97C
:10DB90000293CDE90460DDE91A03CDE900031468BE
:10DBA0002B463A460D98A04711B0BDE8F08F0D9A6C
:10DBB00001EB050802EB070CDDE91A231A43A8F173
:10DBC0000108ACF1010C012A06D0C9F108004FF0A0
:10DBD000000B029105909CE0504A1268B2F90A408D
:10DBE000631A002B06DDED1A002DDDDD21461D9C9C
:10DBF00003FB0466B2F90E30A8EB0303002B02DD31
:10DC0000ED1A002DD0DDB2F90C30ACEB0303002B84
:10DC100000DDFF1A0D9B1C1AB2F90830A3420DDD7E
:10DC2000A3EB040C0CEB0003181A20F007000444CB
:10DC3000A7EB0C0706EBE30603F00700002FB3DDAC
:10DC40001F9BDDF874C0CDE9040303968DE8201214
:10DC5000527C33483B4650F82200C26855680A4659
:10DC60002146A847A0E71B990298084409902B4930
:10DC7000401E03900A68B2F90A30834243DCB2F9CD
:10DC80000E10029881423EDB4FF0000A0D980B9671
:10DC9000D046009035E000BFBAF1000F05D10B98D7
:10DCA0004FF0080A10F8014B0B900599AAEB090AEE
:10DCB00034FA01F004FA09F4E4B204D1174909680E
:10DCC000097C890717D415490968C96B0A680C9241
:10DCD0001F9A0AB152F82000086000991A980A1891
:10DCE0000846DDE90213521EFFF7E0FB0B490C98D2
:10DCF0000968C96B086000991A9808F1010808447E
:10DD00000090B845C8DB099802901D980BF1010BF3
:10DD10000644AB45A7DB47E724010020F8000020BC
:10DD200010010020002818D0410817D0810817D012
:10DD3000C10817D0010917D0410917D0010A17D01F
:10DD4000410A17D0010B15D0C10B13D0010C11D013
:10DD5000810C11D0000E11D0202070470120704797
:10DD60000220704703207047042070470520704749
:10DD70000820704710207047122070471820704705
:10DD800000B50022FFF7CEFF012804D0811E06292E
:10DD900003D808220BE0012209E0A0F109010729BC
:10DDA00001D8102203E011380F2800D82022104695
:10DDB00000BD38B50D4604000ED0FCF713FF0090EF
:10DDC000428E1146AA43914203D04286204600F07B
:10DDD00028FD6846FCF736FF38BD1CB5684600F0E4
:10DDE00095FA684603F03CF81CBDFEB50C460600EB
:10DDF0004FF0010552D0FCF7F5FE0190216816297D
:10DE00004ED008DC0D2938D0112928D0142972D021
:10DE100015293ED120E01E2945D01F2965D0B1F536
:10DE2000407F36D1C16AE2680968C26210680C1A84
:10DE300001A8FCF707FF3046FCF7D4FE62422346F8
:10DE400011460094029001F061FB02A8FCF7FAFE73
:10DE5000304600F0E6FC1BE0B0F9300043E090F8FB
:10DE60003200C00615D5E068007A90B101A8FCF731
:10DE7000E9FE304600F0F6FD0BE0E068C06840B116
:10DE8000007A30B101A8FCF7DDFE304600F0B9F8A9
:10DE90000025019810B101A8FCF7D4FE2846FEBD6C
:10DEA000A1890186F4E7E168408E012906D020F0BF
:10DEB0000101304600F037F8092507E0C1060ED50C
:10DEC00040F00101304600F02EF8082501A8FCF7CB
:10DED000B9FE2946304600F0DAFC002003E001A834
:10DEE000FCF7B0FE0120E060D2E790F83200C0F30A
:10DEF0000010F8E7FFE7E16800F026F8C8E738B55A
:10DF00000C4605000ED0FCF76DFE0090418E34EA01
:10DF1000010204D021434186284600F082FC684675
:10DF2000FCF790FE38BD38B50C460546FCF75AFEA6
:10DF30000090418EA14203D04486284600F071FC37
:10DF40006846FCF77FFE38BD70B50C46054600F00C
:10DF5000BDFEE86A21460268BDE870400846FFF74A
:10DF600045B80000024B1B68C362428601867047B9
:10DF7000F001002002490120096881F8540070472F
:10DF8000F80000202DE9F0418AB0040036D0FCF7FB
:10DF900029FE0190D0E90012CDE90412876A056AD2
:10DFA00001A8FCF74FFE204600F0C6FE060025D073
:10DFB000204600F0D8F98046B80704D52A464146E5
:10DFC00004A801F017F82046FCF70CFE019040462B
:10DFD000FCF708FE06903046FCF704FE039005624D
:10DFE0000698019AC1691162C46101A8FCF72AFE72
:10DFF00006A8FCF727FE03A8FCF724FE0AB0BDE83C
:10E00000F08101F08BBB00002DE9FC5FDFF838A147
:10E010000746DDE90C54DAF81400DDF83CB0984608
:10E0200091460E4604434DB9BAF8020048B347483A
:10E030000AF138010068407C51F82050681C0ED06D
:10E04000FDB12846FCF7CEFD0190B0F90010B0F903
:10E0500002200F441644B9F1000F02D006E000255B
:10E060000FE0B0F90430591A01F10109B8F1000FBD
:10E0700004D1B0F90600801A00F1010801A8FCF7EC
:10E08000E1FD0BF12C00FCF7D2FC5FEA000B57D04E
:10E09000BAF80200401CAAF802005846FCF7A2FD9C
:10E0A0000090078007EB09014680491E818006EB3E
:10E0B0000801491EC1800E990161254A816A2240EA
:10E0C000114381626846FCF7BDFDDAF80C005E463C
:10E0D00050B1FCF7CFFD07463046FCF7CBFD0146BB
:10E0E000786948617E6101E0CAF80CB0294658465B
:10E0F00000F0B8FEA00602D5584600F079FCE00713
:10E1000005D0DAF8201001F10101CAF820106006EC
:10E1100002D55846FFF736FFA0070DD55846FCF745
:10E1200061FD0090816A41F0020181626846FCF75E
:10E1300089FD584600F075FB0121584601F0A5F90C
:10E140005846BDE8FC9F0000F4010020F8000020C4
:10E150009F3F070003490020096881F85400FFF73A
:10E16000FFBB0000F800002010B50446C168D4E9E8
:10E170000020172A0DD004DC0E2A0CD0142A07D157
:10E1800004E0222A0CD0282A02D10CE000F08EFDF7
:10E190000020E06010BD2146BDE8104000F048BC02
:10E1A0006FF07040F5E7BDE8104000F03ABB38B5BD
:10E1B00004000BD0FCF716FD00900068FDF754FE3C
:10E1C0006846FCF73FFD2046FCF74CFC38BD0000DC
:10E1D000F8B505005CD000F069FF002858D028464B
:10E1E00000F0BCFD06460B21284601F04EF92846FA
:10E1F00000F00DFD2846FCF7F5FC0090406A08B1E0
:10E20000FDF7F8F9234C002104F15002A162A06847
:10E2100052F82030AB4201D142F820101D4A48325A
:10E2200052F82030AB4201D142F82010206904E0BE
:10E230004368AB4200D1416000680028F8D1072153
:10E24000284600F024FB009801F030FC284600F03E
:10E2500003FD284601F098F80098806AC10703D0B2
:10E26000216AA1F101012162800602D5A088401E29
:10E27000A0806846FCF7E6FC6088401E6080284667
:10E28000FCF7F0FB0348383050F8260000F0B0FBF4
:10E29000F8BD0000F40100202DE9F041002500E068
:10E2A000012502F019FF0028FAD1154E154C3068EF
:10E2B00090F8540038B1A08828B1E069012720B156
:10E2C0000068804704E000270EE00120FEF7D6FD3D
:10E2D000306890F8540038B1A08828B102F092FD5F
:10E2E000A08808B10125F3E73FB1E06910B14068AB
:10E2F000804702E00020FEF7C1FD2846BDE8F0811E
:10E30000F8000020F401002000F0BABC01460448E7
:10E31000006810B903480068806C00F005B8000080
:10E3200018020020F800002000F0C0BC0348044997
:10E330000068407C51F8200070470000F800002081
:10E340002C0200200021022802D2024951F820109C
:10E35000084670472C02002010B5002802D0FCF7B8
:10E3600089FCC06910BD10B5002802D0FCF782FC02
:10E37000806910BD2DE9F04F9BB04FF0000B5E4659
:10E38000CDF820B0CDF824B0CDF828B0FDF75CFC76
:10E3900018B100201BB0BDE8F08F6846FDF72EFCD9
:10E3A0000098C64DC64C401C11D0009800281DDBBB
:10E3B000019800281ADBC3490098B1F900100844FD
:10E3C000C14900900198B1F9001008441DE001987E
:10E3D000401C1BD120689DF8081000EB400005EBA5
:10E3E0008000007A884207D15846D3E70098401C45
:10E3F0000CD10198401C09D1206800EB400055F871
:10E40000201005EB800000914068019005A800F005
:10E41000C7FB9DF80900022800D2206007AA12A9B4
:10E420002068FCF7C3FF12990098401A00900799E2
:10E430000198009A401A0190206800EB400055F8BE
:10E44000201091420AD105EB8000019A4168914267
:10E4500004D1007A9DF8081088427CD0DDE90001E3
:10E460009DF80920FCF712FC984F396809B16846FD
:10E4700088479748216850F8210018B9DDE9000164
:10E4800000F0B1FA06907A6812B106996846904792
:10E490008A4F2068383707EBC0014868069A8242E5
:10E4A00001D0012200E000220DF12009F0B1EAB113
:10E4B000486800F0BFFDC8B1206807EBC0004068A5
:10E4C00000F0ADFD90B19DE8070008AB07C3122036
:10E4D000CDF844900E90206807EBC00040680EA96C
:10E4E00000F0F9FF206807EBC0004660069800F0D6
:10E4F000A1FD00287ED00699206807EBC00251607C
:10E5000000EB400005EB80009DF80810007ADFF872
:10E51000ACA188420AF1280A5DD00698C0B30698DB
:10E52000FCF760FB9DF8081013908DF834102168FB
:10E5300001EB410105EB8101097A8DF83510B0F945
:10E5400000200099891A0B91B0F902000199081A6C
:10E550000C9013A800E0ACE0FCF774FB0BA8119042
:10E5600011200E90206800EB400105EB810191E83D
:10E570008C000492CDE914379DF808200A729DF8AA
:10E58000281031B10AEBC0014F68069A4A6001E0D9
:10E5900021E000270AEBC000D0F8048006980EA9FD
:10E5A00000F052FF21680AEBC1004368434501D0E7
:10E5B0004068069001EB410005EB8003DDE9141291
:10E5C000049807C33FB1384600F05DF918B12168DF
:10E5D0000AEBC100476020689DF8081000EB400876
:10E5E00005EB8802137A0B434BD00C234FF0010B41
:10E5F000574600E052E00AEBC0000E934368DDF896
:10E6000018C09C4515D043689BB109B1119608E02C
:10E6100055F828100891516809918DF82860CDF8B7
:10E62000449040680EA900F056FF206807EBC00038
:10E63000466020689DF8081000EB400205EB82025E
:10E640001172069951B39DE80E000DF12008A8E85B
:10E650000E009DF8281021B1069907EBC00041601B
:10E6600008E01C48007808B100F044F9206807EB86
:10E67000C00046600698CDF844900EA900F02BFF2C
:10E680000CE0069850B1069800F0C9FC30B19DE846
:10E69000070008AB07C310200E90EBE721689DE848
:10E6A0001C0001EB410005EB80001CC0684600F037
:10E6B00013F905A800F052FE96E6000018E70020C6
:10E6C000FC010020280100202A01002094020020E3
:10E6D0003C0200204C0200202DE9FF5F2C4D6878A1
:10E6E000002853D100272B48EF60AF620068DFF8A5
:10E6F000A8903C464764AF806F804FF0020A4FF00D
:10E70000FF3B40F6FF7805F138062046FCF7D6FBC4
:10E7100098B1CDE90297CDE900BA002142464346BF
:10E720000846FFF771FC1A4A46F8240040326FF0A1
:10E73000704142F8241000F074F8641C022CE4DBF1
:10E74000164FDFF85C80DFF85C90002407EBC40014
:10E7500000F026FA08EBC40000F022FA09EBC4002E
:10E7600000F01EFA641C022CF0DB306800F040F967
:10E77000FFF700FC01200649687030310A48086044
:10E7800004B00846BDE8F05FFEF73EBCBDE8FF9F61
:10E79000F4010020F8000020C136010830E7002015
:10E7A00040E7002050E70020E51E010870B586B064
:10E7B0000D4606002CD0FCF715FA0090846AA107DC
:10E7C00023D5D0E90010CDE90110E00302D5304691
:10E7D00000F09DFB5DB1286803906868049003A970
:10E7E000009800F0E5F903A901A8FEF701FB314606
:10E7F00001A800F0E5F940B140F601000440012C09
:10E8000008D001A9304600F07FFB6846FCF71AFAF1
:10E8100006B070BD0098026A816901A800F0EAFBA9
:10E82000F3E70021FFF7C2BFFEB515460E46040010
:10E830001CD0FCF7D7F90246009090F8280080071A
:10E8400011D5314601A8FEF7F0FA60B16846FCF731
:10E85000F9F92A4601A9204603F020FA2046FFF7DD
:10E860007BFD04460CE06846FCF7ECF9FEBD2A4649
:10E8700001A92046FFF7D8FF2046FCF7FBF9046A00
:10E88000002CF4D1FEBD00F011BC00F021BC1FB57E
:10E89000262203910092694600F0CAF81FBD0000CD
:10E8A00010B50C4C0A4A03462468002086B052F882
:10E8B0002420002A0AD00E200090CDE9043104A8BB
:10E8C00003906946104600F0A1FD012006B010BD7E
:10E8D00044020020FC010020054A01EB410102EB4B
:10E8E0008101D0E9002380680A60C1E901307047E6
:10E8F000DCE7002000F01CBD70B5154606468AB066
:10E900000C4651EA05006CD0002E6AD03046FCF768
:10E9100069F90590D0E90012CDE90212CDE906129D
:10E9200084B1816A0A0608D5890506D4BDF8181095
:10E93000A1EB0401ADF8181004E0BDF81C1021444F
:10E94000ADF81C1085B1816ACA0508D5490506D401
:10E95000BDF81A10A1EB0501ADF81A1004E0BDF8DE
:10E960001E102944ADF81E10806AC00302D530463F
:10E9700000F0CDFA05AB07CBC0E9001290F82800F3
:10E9800080070AD506AA02A908A8FDF7FBF8059892
:10E99000026A816908A800F02DFBBDF91E00BDF9CF
:10E9A0000E10401A0090BDF91C00BDF90C10431A5E
:10E9B000BDF91A00BDF90A10421ABDF91800BDF9D7
:10E9C0000810411A059800F0A1FD059901F1080011
:10E9D000FEF70EFA0521304600F057FD05A8FCF7BA
:10E9E00031F90AB070BD0A460146002003F0CCBDE3
:10E9F00070B50C4D04002868866C01D10A49CC68BA
:10EA00008464204600F0F8FCFEF7AAFF2046FCF7DD
:10EA100031F92968B0F90020CA64B0F9020008652C
:10EA2000304670BDF8000020F401002000F01ABD4F
:10EA300070B50C00054609D0FFF795FC002805D0FD
:10EA40002146A560BDE8704000F0E0BC70BD00004C
:10EA500010B5FBF7E9FC024900200968486410BDC5
:10EA6000F8000020F0B587B004004FF000000290DD
:10EA70000390049005903BD0204D1F4F286857F815
:10EA80002000A04234D0CDE900041E21029110B133
:10EA900002A900F0BBFC0120059002A9204600F06D
:10EAA000B5FC059920266846002902D1296847F857
:10EAB0002140059F1DD105462046FFF754FC040068
:10EAC00005D002A90296059500F0A0FCF4E7009C91
:10EAD0002046FFF7D8FE28B90BE002A9029605955B
:10EAE00000F094FC2046FFF73EFC0400F5D100E066
:10EAF000012707B03846F0BD44020020FC01002089
:10EB0000F8B516460C46050018D0FCF76BF80090D7
:10EB1000B0F90410B0F90020891A641AB0F906108F
:10EB2000B0F90200641E081A361A761E6846FCF711
:10EB300089F8324621462846FFF7DEFEF8BD000080
:10EB4000044910B509684C6C486400F005F820468B
:10EB500010BD0000F80000200EB50E48006890F8C7
:10EB6000541009B10C4811E0806CFCF73BF80090A0
:10EB7000D0E90010CDE901106846FCF763F80748BA
:10EB8000416A11B101A800F01BF801A803F01EFDB5
:10EB90000EBD0000F8000020FCE60020F40100207B
:10EBA00002490A6802600860704700000402002001
:10EBB0000B46B0F90220B0F900101846FDF70EB868
:10EBC00038B50C4605462046FCF70CF80146009087
:10EBD00090F82800800703D46846FCF733F812E069
:10EBE0002846FEF705F90098806920B1044668467A
:10EBF000FCF728F8E7E76846FCF724F8204600F021
:10EC00005FFF002801DA002038BD012038BDF8B5CB
:10EC100005466846FDF74AF91AE001212046FDF74E
:10EC200031F9009981B178B10846FCF723F84068C2
:10EC3000A84209D169462046009EFDF74BF90446DB
:10EC40003046FFF7B4FA04E069462046FDF742F982
:10EC50000446002CE1D1F8BD38B50446FBF7C2FFED
:10EC60000090816941B1026A00F0C4F9204600F0C9
:10EC7000A3FB0099002088616846FBF7E3FF38BDDD
:10EC800070B516460D46FBF7F5FFC4690BE031463B
:10EC90002046A847324629462046FFF7F1FF204686
:10ECA000FBF7E8FF046A002CF1D170BD38B50C46C3
:10ECB00000280AD0002C08D0FBF794FF21460090D2
:10ECC00000F004F86846FBF7BDFF38BD00224A801B
:10ECD0000A8082880388D21A8A80C2884088101AE3
:10ECE000C880704710B5FFF73EFB002802D0FBF745
:10ECF000C1FFC06910BD00000D4810B5006890F854
:10ED00005400002806D00B4C6069012803DD401E2A
:10ED10006061002010BD2069401C206102F040FBB2
:10ED200018B1FFF719FF012010BD6069EFE700007F
:10ED3000F8000020F4E6002070B50546FFF7D2FF8A
:10ED400008E0AC4201D1002406E0FBF793FF006A23
:10ED5000A84201D00400F4D1204670BD10B504468D
:10ED6000FBF788FF80690028F9D12046BDE81040F4
:10ED700000F0A6BEF0B5384E074687B0306890F870
:10ED8000541041B1354C6169491C6161012905DDAF
:10ED9000012007B0F0BDFFF7DFFEF9E7806CFBF75D
:10EDA00021FF2F4D4FF0FF3100902161297821B1D3
:10EDB00081680291C068039007E090F828108907E5
:10EDC0003CD5D0E90010CDE902101FB1394602A8A8
:10EDD000FEF70EF83068406C78B300980490306805
:10EDE000406C0168059140680690686A30B104A8DB
:10EDF000FBF728FF686AFBF7F5FE049005A9049865
:10EE0000FFF7D6FE05A902A8FDF7F2FF0DF11000ED
:10EE1000FBF718FF696A19B102A8FFF7D1FEB0B17C
:10EE20003068816C02A8FFF7CBFE80B1DDE90201FA
:10EE3000C4E90001FFF760FFABE706E06069401E30
:10EE400060616846FBF7FEFE04E06846E0E7606943
:10EE5000401E606100209CE7F8000020F4E60020DE
:10EE6000F4010020FEB50D00044647D0FBF7BAFEC2
:10EE700000900021856101622846FBF7B3FE0099EE
:10EE80000290C56991F8281001F008062DB12846B6
:10EE9000FBF7A8FE019036B115E0C4616846FBF7A8
:10EEA000D1FE02A828E090F8280000070BD50098B2
:10EEB00005620298C4616846FBF7C4FE02A8FBF72E
:10EEC000C1FE01A818E002A8FBF7BCFE01A8FBF7F1
:10EED000B9FE2846FBF7CEFE11E004620BE028469F
:10EEE000FBF7C8FE5EB990F82810090707D501980E
:10EEF0000462009805626846FBF7A4FEFEBD01901F
:10EF0000056A002DEBD1E8E7202202F0C7BE38B534
:10EF100004001ED0FBF766FE009090F828108907C9
:10EF200014D5406A20B1FCF765FB009900204862C7
:10EF30002046FFF711FA044606E02046FFF7E7FFF8
:10EF40002046FBF797FE046A002CF6D16846FBF7D3
:10EF500079FE38BD70B5064615460C460846FBF7E7
:10EF600089FE806AC00302D54FF4804300E020236D
:10EF70002A4621463046BDE87040AFF300802DE9B7
:10EF8000FF419846164607460D0031D00846FBF76C
:10EF900029FE0090846A0246A00726D5394601A8BA
:10EFA000FDF743FF08B340F601000440012C07D0F1
:10EFB000424601A9284602F071FE0098C46912E099
:10EFC00000984346026A816901A8FFF7D8FFF4E779
:10EFD000B4420AD0424601A92046FFF725FC20464C
:10EFE000FBF748FE046A002CF2D16846FBF72AFEC4
:10EFF000BDE8FF812023FFF7C2BF000070B50C46BB
:10F00000002550B14CB100BFFBF734FE8069A0422F
:10F0100001D1012501E00028F6D1284670BD10B5C8
:10F020000124FBF727FE90F82800C00600D5002435
:10F03000204610BD70B5104D06460E4C286804EBF6
:10F04000C00041683046FFF7D9FF296804EBC102D0
:10F05000516829B100215268B24203D1012202E075
:10F060000121F8E700220143114301D0012070BDC6
:10F07000002070BD30E70020FC01002090F828300F
:10F080009B0711D5B0F900308B420DDCB0F904308C
:10F090008B4209DBB0F90210914205DCB0F90600A1
:10F0A000904201DB012070470020704710B50446F4
:10F0B0000648C06806E0A04201D1012010BDFBF760
:10F0C000D9FD40690028F6D110BD0000F4010020F0
:10F0D000F0B58BB006004FF0000015460C460490CA
:10F0E0000590069007903DD054EA05003AD030468E
:10F0F000FBF778FD0090D0E90012CDE902122A4614
:10F100002146FCF76BFD00982A4621460830FCF7A3
:10F1100065FD0098C7696846FBF794FD2A462146BD
:10F12000384602F03AFE3046FBF75CFD009090F85E
:10F13000281089070AD5816941B1026AFFF70AFFE1
:10F140000098026A816902A8FFF704FF6846FBF78E
:10F1500079FD0320049007AA08A831C204A930460B
:10F1600000F054F90BB0F0BD2DE9F14187B0002556
:10F170000798FBF737FD0190D0E90212CDE90312A1
:10F1800007698669846A01A8FBF75CFD44F22008E0
:10F1900014EA080F30D0DFB103A80799FFF710FD7C
:10F1A000B0B10798FFF724FC60070DD556B144F3C2
:10F1B0000000401C0090002307AA114903A8FCF797
:10F1C00039FA05E00120F5E7079800F065F8012518
:10F1D0000798FBF707FD0190816A21EA0801816227
:10F1E0008A0402D541F00401816201A8FBF72AFDDF
:10F1F00004498888401E888008B02846BDE8F08110
:10F200006D360108F4010020F0B589B00546FBF722
:10F21000E9FC0290866A0469D0E90210CDE9001089
:10F2200002A8FBF70FFD002C31D0B0072FD52E21FF
:10F230002846FFF7FBFB174C6F46207800F10100D2
:10F240002070F0044FF00F0609D5CDE9046507974B
:10F25000FFF7FEFB04A9284600F0D8F810E0384676
:10F26000FFF788FD0AE0CDE904650797FFF7F0FB9B
:10F2700004A9284600F0CAF8FFF73EFD0028F2D1A5
:10F2800020782F21401E20702846FFF7CFFB09B0C1
:10F29000F0BD0000F401002038B50446FBF7A2FCE5
:10F2A0000090806A40F601010840012805D06846B8
:10F2B000FBF7C8FC204602F00BFF1448006A002848
:10F2C00023D0204602F05CFF2046FBF7D3FC856983
:10F2D000046A18E02046FBF7CDFC90F82800C043F4
:10F2E000800702D1204602F005FF204602F048FFC9
:10F2F0002046FBF7BFFC046A002CEBD12846FBF745
:10F30000B9FC8569046A002DF6D138BDF4010020EE
:10F31000B0F90010B0F90420914205DCB0F90210F8
:10F32000B0F90600814201DD0020704701207047DE
:10F330007FB5094D074C286854F82000002808D0F4
:10F3400018210091694600F061F82968002044F80E
:10F3500021007FBD3C020020FC010020094B196800
:10F36000002905D00022814206D108680AB1106048
:10F3700070470028186070470A4609680029F2D1D2
:10F38000704700000402002070B505460948C068B7
:10F390000CE000BFFBF76EFC04464069A84205D1B3
:10F3A0002846FBF767FC4069606170BD0028F1D119
:10F3B00070BD0000F401002070B50646FBF75AFC52
:10F3C00005468069002809D0FBF754FC0446C06953
:10F3D000B0420ED1FBF74EFC006AE06170BD00BF89
:10F3E000FBF748FC0146006AB04202D1286A086275
:10F3F00070BD0028F4D170BD10B5FFF7AFFC002838
:10F4000003DBBDE81040FCF7BBBC10BD70B50D4C74
:10F4100006460D46206814280DDA3046FBF72AFC14
:10F4200001696E6041B12068401C20602846884711
:10F430002068401E206070BD2846BDE87040FEF781
:10F4400093BE00009002002070B50C460546FFF701
:10F45000E6FD002805D021462846BDE87040FFF7AC
:10F46000D5BF70BD7FB50546002000900190029089
:10F4700003900C462846FBF7FDFB0269002A03D0E7
:10F480006846CDE9004590477FBD1FB5CDE9001026
:10F490006946FFF7BBFF1FBD7FB505460E464868AE
:10F4A000C9680391CDE901050D202C46009008E0C4
:10F4B0002046FEF758FF040003D069460396FFF785
:10F4C000C3FF2046FFF7DFF90028F1D13146284677
:10F4D000FFF7BAFF7FBDF8B5CC680D46064684B18C
:10F4E000FBF780FB0090B0F900002168081A20604B
:10F4F00000996068B1F90210401A60606846FBF735
:10F50000A1FB29463046FFF7C7FFF8BD2DE9FF4FA5
:10F5100081B09B46C66962E03046FBF763FB01465B
:10F520000090D1E90004896A254601F4207302465F
:10F53000802B09D0B3F5207F029B134406D063F3E0
:10F540000F02029B234405E002EB0B0363F30F025F
:10F5500004EB0B0301F4A06163F30F04B1F5807FAA
:10F560000BD0B1F5A06F03994FEA224307D019449D
:10F5700061F31F422314039906E00E9913141944F2
:10F5800061F31F420E99231419440FFA82FA61F3B2
:10F590001F440FFA80F917144FEA2048AAEB09011B
:10F5A000A7EB080251EA020002D03046FFF76DF9DE
:10F5B0002AB221B2A2EB0900A1EB0A01091AC7EB9A
:10F5C0002440C8EB2542821A51EA020002D030469C
:10F5D000FFF792F90098066A6846FBF733FB002EA6
:10F5E0009AD105B0BDE8F08F2DE9F0411B4D0C46D6
:10F5F0000646A968686B0144491EA019884205D8CF
:10F60000016819B941680E4402F0F8FE686BA04227
:10F610000AD254F8040C271A386828B978680644C6
:10F62000384602F0EBFE3C46304602F0E1F905EBCD
:10F63000C0073246002120463B6C03F03DFC57F8E2
:10F64000400F083400B144602060002060603C60DE
:10F650002868304428603046BDE8F0814CE5002041
:10F660002DE9F041054602F0C7FA2B48C46BAC42C5
:10F6700002D8ED1C25F00304804600680C34A0423B
:10F6800002D20020BDE8F08102F0C8FD0600F9D0EA
:10F69000204602F0ADF9424611E000BF02EBC00186
:10F6A000096C59B18D686B68A3420BD2A96829B166
:10F6B0008D686B68A34205D2002DF7D1401C10283D
:10F6C000ECD31FE0F5B1D8F83C00191B0C301F46F5
:10F6D000814200D23C46284602F090FE0421D8F830
:10F6E000300001EBC6010023455022463146284632
:10F6F00003F0E2FBA74203DD2919381BFFF774FF73
:10F700003046BFE7204602F0C1FE0028C0D0304698
:10F7100002F0A4FDB5E700004CE500207CB5040034
:10F7200016D0FBF75FFA0090016A91B190F82800BB
:10F73000000713D40846FBF755FA019090F828000B
:10F74000000708D56846FBF77DFA01A8FBF77AFAAF
:10F750007CBD6846FAE701A8FBF774FA0098856952
:10F760006846FBF76FFA2046FFF726FE294620463B
:10F77000FFF778FB2046FFF754F8002202492046A5
:10F78000FEF7C2FD7CBD000069360108012070470C
:10F79000F0B40F4C246814B1A446F0BC60470D4D82
:10F7A000DFF834C010C855FA84F63778C4F307265A
:10F7B000C4F307441CF806602C5D521E04EB46148B
:10F7C00004EBC7240C801944ECD1F0BC7047000056
:10F7D000DC000020506E0108506F010810B510C801
:10F7E0000C601944521EFAD110BD00002DE9F047FB
:10F7F0008146FDF79BFE4FF0000807466FF07F44FF
:10F800004546FDF7ABFE060018D000BF56F82510A0
:10F81000494502D12846BDE8F0876D1CBD42F5DBA5
:10F820005FF00005484656F82510FBF767FAA0423E
:10F8300001D20446A8466D1CBD42F3DB4046EAE710
:10F840007047000010B5084A52FA80F1074BC0F328
:10F850000724C0F307401B5D105C097800EB4310E0
:10F8600000EBC12010BD0000506E0108506F010870
:10F870002DE9F05F9A46DDE90A8791460C46054678
:10F880008B46164635F8020B41468847B84701C4F7
:10F89000761EF7D15046BAF1200F06D202464946ED
:10F8A0005846BDE8F05FFCF70FBEBDE8F09F70471B
:10F8B0002DE9F041054640690E463421008801EBF0
:10F8C0008000FBF7AFF80746FBF78CF90446286881
:10F8D0008069FBF7F3FAC1688A6A08219047032818
:10F8E00010DB04280DDD082809DD102803DD2020A9
:10F8F0000421A06108E010200221A06104E008209A
:10F9000000E004200121A061216168690088E061B4
:10F9100048436061FBF738F96169814200DD60614D
:10F9200004F1340000212060C4E9027184F83060E1
:10F93000012E05D0E1696FF0030202EB810108445A
:10F9400060602046BDE8F0812DE9F04385B0814636
:10F95000FBF748F90390B0F90080B0F90270B0F9F4
:10F960000440B0F90650466A03A8FBF76BF9A4EB14
:10F970000804ED1B641C6D1C002C01DD002D03DC54
:10F98000002005B0BDE8F083AEB13046FBF72AF9A0
:10F990000490B0F90440B0F9065004A8FBF752F9FE
:10F9A0004046444501D1BD424FD001463A4630461B
:10F9B000FBF74EFF49E0FEF7B9FC814513D1FDF797
:10F9C00001FE0646FDF70AFEB44201DC85420ADD6F
:10F9D000B44200DD3446854200DD05462A46214614
:10F9E0004846FFF78DF81D4A1D4901208DE80700A4
:10F9F0002B46224639464046FBF78CFF06464846D2
:10FA0000FBF7F0F8039046620EB3816A41F480314F
:10FA1000816203A8FBF716F93046FBF7EFFE0746B5
:10FA20000120FCF73FFD3046FBF7A8FE0D496C4373
:10FA3000A2000978FDF726FB4846FFF7E5FB00200A
:10FA4000FCF730FD3846FBF7D9FE304699E703A8AE
:10FA5000FBF7F8F84846FFF7D7FB91E70C8A010857
:10FA6000648A01087802002041880078C1F3C4024A
:10FA700001F47C4142EA511100F0F80041EA002013
:10FA8000704781784278C9089208007841EA4211AB
:10FA9000C00841EAC02070470349884202D101F101
:10FAA0003C0070470C38704788E7002010B50446CA
:10FAB000E069FEF78DFBE0690028F9D110BD000078
:10FAC0000146064A002000BF52F820308B4204D085
:10FAD000401C0228F8DB4FF0FF3070472C0200205A
:10FAE000F7B51546184A01A9009812689047174CB7
:10FAF00000902068406920B12946FCF705F90028EC
:10FB000021D00120FDF7BAF92068C069406920B111
:10FB10008268DDE90001904712E00D4D0CE0684677
:10FB2000FCF758FB06462068C069016830468847E4
:10FB3000296809B1304688470198401E0190EED5EA
:10FB40000020FDF79BF9FEBDC4020020F800002054
:10FB5000200100202DE9FF4F85B08346DDE9139099
:10FB6000129ED0E900A0DBF80850039047488C199A
:10FB70001F4600684FF08008007C10F0030006D09C
:10FB8000012865D0022819D0032814D160E0387804
:10FB900028FA06F1084201D0039800E05046D5F853
:10FBA0002C1180B28847761C082E01D100267F1CBC
:10FBB000B9F10109EBD109B0BDE8F08F4FF0000AAF
:10FBC000CDF808A0D5F86CB00194397828FA06F081
:10FBD000014202980BD020B90120CDE90140D5F8AF
:10FBE0006CB003982BF8020B0AF1010012E0012817
:10FBF00011D1631E00200290079800900246D5F8AC
:10FC0000A4C028460199E047D5F834215146E86E52
:10FC1000904700208246641C761C082E01D10026E5
:10FC20007F1CB9F10109D0D1BAF1000FC3D00798F8
:10FC3000631E00900246D5F8A44028460199A047CB
:10FC4000D5F83421E86E09B05146BDE8F04F1047B1
:10FC5000397828FA06F001420DD0D5F8E83021466F
:10FC60005846079A9847AB6AD5F8ECC043402146FE
:10FC70005846079AE047641C761C082E01D10026DE
:10FC80007F1CB9F10109E3D195E70000F8000020DD
:10FC90002DE9FF5F9046DDE90E924B4B99F800503D
:10FCA000C2F108048A465D5DDDE91071D540474A1E
:10FCB000139E1268127C12F0030225D0012A03D091
:10FCC000022A37D0032A7DD10069806880471FFA55
:10FCD00080FBBC4200D93C463F1BBAF1000F65D007
:10FCE000E8070AD0DAF808004146039A036850464C
:10FCF0009847318881EA0B013180B61C6D0808F104
:10FD00000108641EECD15BE02F4ABC4200D93C469E
:10FD1000B7EB040705F001006D0831F8200026F864
:10FD2000020B641EF6D1002F4CD019F8010F0824E5
:10FD3000155CEAE788881FFA80FBBC4200D93C4684
:10FD40003F1BBAF1000F16D08DB1E80708D0DAF8E2
:10FD500008004146039A036850469847A6F800B049
:10FD6000B61C08F10108641E11D06D08ECE706EB23
:10FD70004406A0440BE045B1E80701D0A6F800B066
:10FD8000B61C641E03D06D08F5E706EB4406002F91
:10FD900018D019F8011F0C480824455CCDE719F864
:10FDA000011F09480824455C93E70BE0E80703D0EE
:10FDB000308880EA0B003080B61C6D08641EF5D1D7
:10FDC000002FECD1BDE8FF9FE8800108F80000207B
:10FDD0002DE9FF4F81B08A46DDF8388011ACDFF89D
:10FDE000FCB098F800509146DDE90F1745CC1BF8A0
:10FDF0000550C1F10804CD4039495B460968097CCA
:10FE000011F003011ED0012903D002292FD00329AC
:10FE100061D110680069806880475946BC4200D9AA
:10FE20003C463F1BEA0702D0326842403260361D32
:10FE30006D08641EF6D1002F4DD018F8012F08244C
:10FE40008D5CEBE71946BC4200D93C46B7EB040792
:10FE500005F001026D0850F82220641E04C6F7D197
:10FE6000002F38D018F8012F08248D5CEBE740688C
:10FE70000090BC4200D93C463F1BBAF1000F16D09F
:10FE80008DB1E80708D0DAF808004946049A0368FB
:10FE90005046984700983060361D09F10109641EEC
:10FEA00011D06D08ECE706EB8406A1440BE045B1E8
:10FEB000E80701D000983060361D641E03D06D083D
:10FEC000F5E706EB8406002F05D018F8011F08247B
:10FED0001BF80150CDE705B0BDE8F08FE8800108C0
:10FEE000F80000202DE9FF4F85B08668DDE9125744
:10FEF00014989B4600283AD03F489BF800904C1934
:10FF000000684FF0C008007C10F0030016D00228F3
:10FF10002DD14FF0000ACDF80CA0F06ECDE90140D4
:10FF2000C5F103004100C1F1060228FA02F000EA1F
:10FF30000900C8402ED00399E1B120E0C5F10300CB
:10FF40004100C1F1060228FA02F000EA0900C840A7
:10FF5000149931F82000D6F82C1180B288476D1C16
:10FF6000042D02D11BF8019F00257F1EE6D109B0A8
:10FF7000BDE8F08F012101940391F16E0291149973
:10FF800031F82000029908800298801C02900AF142
:10FF9000010013E00398012811D1631E0020039093
:10FFA000079800900246D6F8A4C030460199E04771
:10FFB000D6F834215146F06E904700208246641CEA
:10FFC0006D1C042D02D11BF8019F00257F1EA7D1B7
:10FFD000BAF1000FCBD00798631E00900246D6F806
:10FFE000A44030460199A047D6F83421F06E09B0FC
:10FFF0005146BDE8F04F1047F80000202DE9FF5FA3
:020000040801F1
:100000008B460FA9DDF83880B1E82104C0F1040166
:10001000CCB298F80010400081402F48129F9146C2
:100020000068CEB2007C10F0030004D001283AD062
:1000300002284FD114E0AC4200DDECB22D1BB10917
:100040003AF8210027F8020BB006060E641E14F0E1
:10005000FF04F4D1002D3DD0042418F8016FEAE725
:10006000AC4200DDECB22D1BB0090DD0B109BBF1E3
:10007000000F3AF82100388006D0DBF80800494626
:10008000039A036858469847B006BF1C060E641EC4
:1000900009F1010914F0FF04E6D1002D1AD004245F
:1000A00018F8016FDCE7AC4200DDECB22D1BB009A3
:1000B00003D0388880F0FF003880B006BF1C060EE1
:1000C000641E14F0FF04F2D1002D03D0042418F8AC
:1000D000016FE8E7BDE8FF9FF80000202DE9FF5F12
:1000E0008B460FA9DDF83880B1E82104C0F1040186
:1000F000CCB298F80010400081402F48129F9146E2
:100100000068CEB2007C10F0030004D0012839D082
:1001100002284ED113E0AC4200DDECB22D1BB10938
:100120005AF8210001C7B006060E641E14F0FF0441
:10013000F5D1002D3DD0042418F8016FEBE7AC4257
:1001400000DDECB22D1BB0090DD0B109BBF1000FE1
:100150005AF82100386006D0DBF808004946039AB7
:10016000036858469847B0063F1D060E641E09F105
:10017000010914F0FF04E6D1002D1AD0042418F868
:10018000016FDCE7AC4200DDECB22D1BB00903D0FF
:10019000386880F0FF003860B0063F1D060E641E10
:1001A00014F0FF04F2D1002D03D0042418F8016FDD
:1001B000E8E7BDE8FF9F0000F80000202DE9F047C8
:1001C0009946DDE908540A9F92465FEA010806460F
:1001D00008D0D8F8080023464A46D0F804C0514653
:1001E0004046E0473069C06830B1A2002946384631
:1001F000BDE8F047F8F7D9BC28462146002604C8D8
:10020000120E02D1761C491EF9D156B1B200294610
:100210003846F8F7CAFC07EB860705EB8605A41BF2
:100220000CE02868010EFF2905D2C1F1FF023968F0
:10023000FCF782FE38603F1D2D1D641E002CDBD1B3
:10024000BDE8F0872DE9FF4F85B08668DDE91257DC
:1002500014989B4600283AD03F489BF800904C19D0
:1002600000684FF0F008007C10F0030016D0022860
:100270002DD14FF0000ACDF80CA0F06ECDE9014071
:10028000C5F101008100C1F1040228FA02F000EA80
:100290000900C8402ED00399E1B120E0C5F101006A
:1002A0008100C1F1040228FA02F000EA0900C84006
:1002B000149931F82000D6F82C1180B288476D1CB3
:1002C000022D02D11BF8019F00257F1EE6D109B047
:1002D000BDE8F08F012101940391F16E0291149910
:1002E00031F82000029908800298801C02900AF1DF
:1002F000010013E00398012811D1631E0020039030
:10030000079800900246D6F8A4C030460199E0470D
:10031000D6F834215146F06E904700208246641C86
:100320006D1C022D02D11BF8019F00257F1EA7D155
:10033000BAF1000FCBD00798631E00900246D6F8A2
:10034000A44030460199A047D6F83421F06E09B098
:100350005146BDE8F04F1047F80000202DE9F05F4E
:1003600092460BAA8946B2E842010A9F9B468B003F
:100370003A78C1F102009A40D5B24D4A0E9CC0B203
:100380001268127C12F003021AD0012A79D0022AD4
:1003900038D100295FD028090DD02909B9F1000F03
:1003A00038F82100208006D0D9F808005A46514676
:1003B000036848469847A41C0AF1010A761E48E0E3
:1003C00039B12909761E38F8210024F8020B17F8F4
:1003D000015F022E10DB701006F001062A0938F8C2
:1003E000221005F00F02218038F822106180241DB0
:1003F00017F8015F401EF1D1002E03D0290938F80B
:1004000021002080BDE8F09F28090DD02909B9F10D
:10041000000F38F82100208006D0D9F808005A468D
:10042000514603684846984715F00F000DD038F83C
:1004300020006080B9F1000F07D0D9F808005A46B3
:100440000AF10101036848469847241D0AF1020A8F
:10045000B61E17F8015F022ED6DA002ED2D0280978
:10046000D0D038F820002080B9F1000FCAD0D9F8D8
:1004700008005A46514603684846BDE8F05F1847F1
:10048000FFE7B04200DDF0B2361AA90903D0218897
:1004900081F0FF0121802907A41C0D0E401E10F0E1
:1004A000FF00F2D1002EADD0022017F8015FE8E77F
:1004B000F80000202DE9F05F92460BAA8946B2E8C9
:1004C00042010A9F9B468B003A78C1F102009A4094
:1004D000D5B24D4A0E9CC0B21268127C12F00302D3
:1004E0001AD0012A78D0022A37D100295ED02809F3
:1004F0000DD02909B9F1000F58F82100206006D06D
:10050000D9F808005A465146036848469847241DC2
:100510000AF1010A761E47E031B12909761E58F822
:10052000210001C417F8015F022E10DB701006F0E5
:1005300001062A0958F8221005F00F02216058F828
:1005400022106160083417F8015F401EF1D1002EBF
:1005500003D0290958F821002060BDE8F09F280940
:100560000DD02909B9F1000F58F82100206006D0FC
:10057000D9F808005A46514603684846984715F08E
:100580000F000DD058F820006060B9F1000F07D0BF
:10059000D9F808005A460AF101010368484698470D
:1005A00008340AF1020AB61E17F8015F022ED6DAE5
:1005B000002ED2D02809D0D058F820002060B9F100
:1005C000000FCAD0D9F808005A4651460368484679
:1005D000BDE8F05F1847FFE7B04200DDF0B2361A21
:1005E000A90903D0216881F0FF0121602907241D9A
:1005F0000D0E401E10F0FF00F2D1002EADD00220F3
:1006000017F8015FE8E70000F80000202DE9FF4F30
:1006100083B08568DDE9107B1E460C46BBF1000FF8
:1006200020D02E480068007C10F0030018D002286B
:1006300018D14FF00008D5F86C90C246CDF80440B0
:1006400016F8010BE8B1BAF1000F0ED012E03078C5
:10065000D5F82C113BF8200080B288477F1E761C0D
:10066000002FF4DC07B0BDE8F08F0194D5F86C9052
:100670004FF0010A3BF8200029F8020B08F10100B5
:1006800013E0BAF1010F11D1059800900246D5F898
:10069000A4C0631E4FF0000A28460199E047D5F830
:1006A00034214146E86E904700208046641C7F1E3E
:1006B000C6D1B8F1000FD5D00598631E0090024650
:1006C000D5F8A44028460199A047D5F83421E86E12
:1006D00007B04146BDE8F04F10470000F800002089
:1006E0002DE9F04387B089460EA9B1E8F011816881
:1006F0008DE8F011D1F8E0404946A04707B0BDE8C9
:10070000F08300002DE9FF4F83B099460398DDE99F
:100710001075DDE9138B86689246012D05D0022DF8
:1007200003D0042D01D0082D06D132480068007C8A
:1007300000F0030002280ED00AEB0700401E0090D4
:100740000498D6F8A44000EB0B0101EB09035B1EF3
:1007500052463046A047002446E0042D24D004DC55
:10076000012D07D0022D3CD111E0082D29D0102DEC
:1007700037D131E01598CDF800B0CDE90190DDE931
:10078000030104EB0A024346FFF7E4F929E0159858
:10079000CDF800B0CDE90190DDE9030104EB0A02D8
:1007A0004346FFF79FFB1CE01598CDF800B0CDE95C
:1007B0000190DDE9030104EB0A024346FFF742FD25
:1007C0000FE0159804EB0A02CDE90090DDE9030182
:1007D0004346FFF71BFF04E0D6F834214946404664
:1007E00090471299641C8844BC42B6DB07B0BDE850
:1007F000F08F0000F80000202DE9FF4F8DB0A848D1
:10080000DDE91D860068DDE91A970C46006EFAF7EF
:10081000E9F90690406908B1FAF7E4F90A900698F8
:10082000C068089006A8FAF70DFAA0190E900A9869
:1008300050B19B490968097C890705D10EACCDF8F8
:1008400000900ECCFBF7F0FCDDE90E0102F050FE4B
:100850000446102F03D0182F5CDB002056E0002543
:100860001FE000BFDDE90EB02844DDF828A0109E8F
:1008700002905FEA08010FD020000DD07200F8F757
:100880000DF9BAF1000F07D0DAF8080033465946DF
:1008900047685046029AB8471C986D1C80440898D7
:1008A00004444D45DEDBF1E00A980390DDE90EB12A
:1008B0000B985FEA080508440190DDF840A0264641
:1008C0001ED0EEB1039830B1806853465946476850
:1008D000019A0398B8470D992868096909688847FB
:1008E0003080039828B180685946019A03680398BC
:1008F0009847B61C2D1D0BF1010BBAF1010AEAD184
:1009000008981C9904440B988844401C0B90484557
:10091000CADBBBE0082F03D01F9800286CD06DE025
:10092000002065E01F9800280A9832D0DDE90EA16A
:1009300002900BEB010000901F9804905848109F04
:10094000454600682646007C10F0030002D00228CD
:1009500048D109E015F8011B04987F1E30F82100EA
:1009600026F8020BF6D13DE0287858B1049931F809
:1009700020003080029828B180685146009A0368B0
:1009800002989847B61C6D1C0AF1010A7F1EEBD134
:1009900028E0DDE90EA101900BEB01000290404838
:1009A000109F464600682546007C10F0030002D0E8
:1009B000022817D105E03A4641462046F8F76EF87E
:1009C00010E0307840B12880019828B18068514605
:1009D0000368DDE901029847AD1C761C0AF1010AA3
:1009E0007F1EEED108981C99044488440BF1010045
:1009F0008346484596DB49E02A481F90002543E09E
:100A00003846012F04D002281CD0042F37D128E00B
:100A100023480068006EFAF7E5F80690CDF80080EC
:100A2000109A1F990594CDE90310CDE901620F9842
:100A30000A992B18DDE90D02FFF72AF906A8FAF743
:100A400001F91CE010991F98CDE90086CDE902104C
:100A50000F9804942B18DDE90D020A99FFF7CEFADE
:100A60000DE010991F98CDE90086CDE902100F988E
:100A700004942B18DDE90D020A99FFF76FFC1C990D
:100A80000898884404446D1C4D45B9DB0A98002839
:100A900002D00AA8FAF7D6F811B0BDE8F08F00002E
:100AA000F8000020508001082DE9FF4F8FB0A148C9
:100AB000DDE91C960068DDE91F870C46006EFAF739
:100AC00091F80690406908B1FAF78CF80A900698F8
:100AD000C068089006A8FAF7B5F804EB0700109074
:100AE0000A9850B193490968097C890705D410AC6C
:100AF000CDF800900ECCFBF797FBDDE9100102F07A
:100B000015FD0446182E15DB002510E01298CDF8CF
:100B10000080CDE9010411980A992B18DDE90F0234
:100B2000FFF74CFB1E990898884404446D1C4D4502
:100B3000ECDBF6E0102E05D0082E3ED021980028E0
:100B400073D0A7E0002034E01098029011990B9820
:100B5000DDF828A00844DDF848B046460190254657
:100B6000BAF1000F07D0DAF80800DDE90121476883
:100B70005B465046B8470F993088096949688847ED
:100B80002860BAF1000F06D0DAF80800DDE901218B
:100B900003685046984702982D1D401CB61C0290D1
:100BA000BBF1010BE7D108981E9904440B988844C7
:100BB000401C0B904845C7DBB3E0002064E021985F
:100BC00000280A9832D0DDE910A103900BEB010058
:100BD0000190219800905748129F4546006826468C
:100BE000007C10F0030002D0022847D108E015F87D
:100BF000011B00987F1E50F8210001C6F7D13DE08F
:100C0000287858B1009951F820003060039828B135
:100C100080685146019A036803989847361D6D1CF9
:100C20000AF1010A7F1EEBD128E031E00490DDE9F2
:100C300010A0584402903F48129F4546006826463F
:100C4000007C10F0030002D0022817D105E03A46DC
:100C500041462046F7F722FF10E0287840B1306087
:100C6000049828B180685146029A0368049898470E
:100C7000361D6D1C0AF1010A7F1EEED108981E99DF
:100C8000044488440BF101008346484597DB48E063
:100C900029482190002542E0012E04D0022E1CD0CC
:100CA000042E37D128E023480068006EF9F79AFF38
:100CB000CDF800800690219A12990594CDE9032081
:100CC000CDE9017111980A992B18DDE90F02FFF7A0
:100CD0007FF806A8F9F7B6FF1CE021981299CDE934
:100CE0000210CDE90087119804942B18DDE90F025A
:100CF0000A99FFF7F3F90DE021981299CDE9021056
:100D0000CDE90087119804942B18DDE90F020A99A8
:100D1000FFF7D0FB1E986D1C8044089804444D4595
:100D2000BADB0A98002802D00AA8F9F78BFF13B0A3
:100D3000BDE8F08FF8000020248A01081CB5684641
:100D4000FDF7E4FA684600F001F81CBD2DE9F0411A
:100D5000DFF8888004684668D8F80000FCF70EFECB
:100D6000D8F80800FCF70AFE25B237B224143A4638
:100D700029462046FAF7E4F93614611C3246284623
:100D8000FAF742FAD8F80000FCF7F8FD7A1E691C61
:100D9000601CFAF7D5F9721EA11C681CFAF734FA28
:100DA000D8F81000FCF7EAFD691C3A463046FAF71D
:100DB000C7F9611C32463846FAF726FAD8F80C0013
:100DC000FCF7DCFD7A1EA91C701EFAF7B9F9721E39
:100DD000A11C781EBDE8F041FAF716BA7C0200208B
:100DE00038B584680092D4F8E440A04738BD08B50F
:100DF000009200F02DFA08BD08B5009200F07EFACE
:100E000008BD00002DE9F041134E9EB00125B46AE3
:100E100004B9F4686846FAF7A1FF10480068D0E901
:100E20000C875CB12046FEF79FF900B16D1E20468D
:100E3000F9F720FF44690CB1002DF3D14046B462AC
:100E4000FAF7B2FF3846FAF7ADFF6846FAF778FFCF
:100E50001EB0BDE8F0810000F4010020F800002081
:100E60002DE9F041DFF85C8005684668D8F800009D
:100E7000FCF784FD341437B22E142DB223463A46C3
:100E800031462846FAF782F9D8F81000FCF776FDCB
:100E9000BA1E691C701CFAF753F9A21E711C681C5B
:100EA000FAF7B2F9D8F80400FCF768FD7A1E691C5D
:100EB000601EFAF745F9A21E711C781EBDE8F041CC
:100EC000FAF7A2B97C02002038B5846800930B467B
:100ED000D4F8E440A04738BD2DE9FC47DFF8AC80EA
:100EE00081461E46D8F8000015468A46006EF9F77E
:100EF00079FE0190406908B1F9F774FE0090294627
:100F0000504602F0F5FA04460198C768D8F8000088
:100F1000017CC90715D0D9F810008068804787B2D6
:100F2000009820B181682A460B685146984720886E
:100F30006D1C784020800198B542C0680444EFDD04
:100F400019E0C06B0168009870B11FFA81F8009831
:100F50002A4681680B6851469847A4F800806D1CAA
:100F60003C44B542F3DD06E0701B401C89B2218091
:100F70003C44401EFBD101A8F9F764FE009800280C
:100F800002D06846F9F75EFEBDE8FC87F800002055
:100F90002DE9FC47284F1E46154638688946006EE5
:100FA000F9F720FE0190406908B1F9F71BFE0090A7
:100FB0002946484602F0BAFA396804460198CA6BD5
:100FC000097CD0F80C801768C90715D00068006943
:100FD000806880470746009820B181682A460B68E0
:100FE0004946984720686D1C784020600198B542BA
:100FF000C0680444EFDD13E0009858B100982A4619
:1010000081680B684946984727606D1C4444B54287
:10101000F4DD05E0701B401C27604444401EFBD1FA
:1010200001A8F9F70FFE0098002802D06846F9F7EA
:1010300009FEBDE8FC870000F800002001700120D7
:10104000704700002DE9F047224C0426A06AE0B169
:10105000E06806EBD0014518E800FEF701FB070049
:1010600036D0216B06EBC700B1460E58E068083653
:10107000C2003046D4F82880F7F797FDA7622663B0
:10108000E0684B4601466A1E0EE01248BC30D0E9CB
:1010900001100830B1FBF0F5AD1CDDE7471C03EB98
:1010A000C00C401C46F80C709042F7D309EBC0000E
:1010B0000022325021626068691A0844E56060606D
:1010C0005FEA080001D0F9F7CDFC0020BDE8F08709
:1010D0000120FBE74CE50020F8B5184DE86AC8B1DF
:1010E000EC6813E02046F9F77DFD0090018D0904BE
:1010F00008D5264644696846F9F7A4FD3046FDF751
:1011000067F803E044696846F9F79CFD002CE9D1D3
:101110000020E862A86900B180470948006808B16A
:10112000804738B90748006890F8540020B1FAF7B2
:10113000A5FD08B10120F8BD0020F8BDF401002094
:101140001C010020F800002038B58468049D00953B
:10115000D4F8E440A04738BD2DE9FF4F83B03B4FA2
:1011600003988B46164685683868DDF840809946B6
:10117000007C1946C207A3EB0B0A35D139E000BF4A
:10118000D5F8C070EC6E3FB1CDE900644B463246F5
:1011900059460398B8470DE05F4608E0D5F8E830B7
:1011A000324639460398984724F8020B7F1C4F4576
:1011B000F4DDEC6E0AF1010005E021882A8D514032
:1011C00024F8021B401E0028F7D10096D5F8A44051
:1011D0004B46324659462846A047D5F834210AF1F5
:1011E0000101E86E9047761C4645C9DD07B0BDE8B1
:1011F000F08FA8EB06000AF10104401CCDF8008036
:1012000044430B46D5F8A4C0324659462846E04729
:1012100038680127D5F86890C06BD0F8008011E0DD
:101220002646FA2C00D9FA2637B100271FFA88F192
:1012300032464846FBF74CFFD5F834213146484644
:101240009047A41B002CEBD1D0E70000F800002051
:101250002DE9FF4FDFF8A0A00C4685B0DAF80000BA
:10126000DDF848801F46C16B154609680391006E82
:10127000F9F7B8FC01902946204602F039F90646F4
:101280000198391B01F1010BD0F80C90406950B363
:10129000F9F7A8FCA8EB0501491C00915B462A461A
:1012A00002902146FAF7C0FF02A8F9F7CBFC1AE03A
:1012B000DAF80000007CC0070DD005985F46344680
:1012C00000698068804780B22188414024F8021B71
:1012D0007F1EF9D105E003985A4681B23046FBF7EC
:1012E000F7FE4E446D1C4545E2DD01A8F9F7AAFC66
:1012F00009B0BDE8F08F0000F80000202DE9FE4F96
:10130000264E1F46144630680D46DDF83090006EBC
:10131000F9F768FC01902146284602F007F9791B8D
:1013200001F1010A316880460198C96BD0F80CB010
:101330000E68406958B3F9F755FCA9EB0401491C44
:1013400000915346224602902946FAF76DFF02A803
:10135000F9F778FC1BE011480068007CC0070CD04E
:1013600001985746454600680069806880472968AB
:10137000414002C57F1EFAD107E0BAF1000004DD4A
:1013800001464046491E40C0FCD1D844641C4C452F
:10139000E1DD01A8F9F756FCBDE8FE8FF80000205A
:1013A000FEB54F4CD4E90201CDE90001206970B3CC
:1013B000A089401C00B2ADF800006189ADF80210B0
:1013C000B4F90410884207DD2088ADF80000E089F8
:1013D00010F10100ADF80200BDF90200B4F90610E9
:1013E000884274DC3F4D2868806CF9F7FBFB029063
:1013F000BDF90000B4F90010884220D1E088ADF8B2
:101400000600A088ADF804002868806C0FE0FFE7B4
:101410002088ADF800006088DCE700BFF9F72AFCFF
:101420000646006A0022694600F0D5F8B069002837
:10143000F4D1029800226946C06900F0CCF8BDF8EA
:101440000000ADF804002868806C0AE0F9F712FC8F
:101450000646006A0022694600F046F80028EED1F0
:10146000B0690028F2D1029800226946C06900F0F4
:101470003BF80028E3D1B4F90400BDF90010ADF841
:101480000400884207DADDE90001C4E9020102A88C
:10149000F9F7D8FB98E72868806C08E0F9F7EAFBD1
:1014A0000546006A0022694600F05CF8A869002839
:1014B000F4D1029800226946C06900F053F802A8EE
:1014C000F9F7C0FB206944F62061884201DD002065
:1014D000FEBDDDE90001C4E902010120FEBD0000FE
:1014E000F4E60020F8000020FEB517460E4605463B
:1014F000002433E02846F9F775FB0090856A014621
:10150000A80726D527B13A4601A8FBF78EFC03E0D1
:10151000D1E90001CDE9010101A93046FAF7F4FB58
:10152000B8B1E80702D00098C56910E0BDF808001E
:10153000401C308001240CE001AA31462846FFF708
:10154000D3FF00B101242846F9F794FB056A002D6A
:10155000F2D10098056A6846F9F774FB002DC9D1ED
:101560002046FEBDFEB516460D46044630E0204638
:10157000F9F738FB0090846A0146A00723D526B10D
:10158000324601A8FBF751FC03E0D1E90001CDE9A7
:10159000010101A92846FAF7B7FBA0B1E00702D084
:1015A0000098C4690DE0BDF80400401EA8800AE060
:1015B00001AA29462046FFF7D5FF2046F9F75AFB36
:1015C000046A002CF4D10098046A6846F9F73AFBE3
:1015D000002CCCD1FEBDFEB516460D46044648E0B3
:1015E0002046F9F7FFFA0090846A0146A0073BD530
:1015F00026B1324601A8FBF718FC03E0D1E900014F
:10160000CDE9010101A92846FAF77EFB00B3E00706
:1016100002D00098C46925E000983EB1B0F90210EC
:10162000B6F90200814203DD084601E0B0F902008C
:10163000B5F90210814205DABDF90600401E03E04B
:10164000E88011E0BDF90A00B5F906108842F7DB21
:101650000AE001AA29462046FFF7BDFF2046F9F718
:1016600009FB046A002CF4D10098046A6846F9F773
:10167000E9FA002CB4D1FEBD2DE9F0410C46C96851
:1016800086B049B306685EB394F83000012829D0CB
:10169000E2696FF00303206803EB8202656810447F
:1016A0006060276A2D1D2846A269FAF70DFF61695F
:1016B0004FF000080291CDE90358CDF81480A169DC
:1016C0000120CDE90001F068E368E26A4568394627
:1016D0003046A847C4F80C80002006B0BDE8F08171
:1016E0000120FAE725686560A76ADCE7F9F7BAB96F
:1016F0002DE9F0470D46B3F9041006461C46914605
:10170000B14220DCB4F90800B0421CDBB4F9060099
:10171000A84218DCB4F90A20AA4214DB2F1A711A65
:1017200088463A466069F9F7A9FD60B1B4F9080046
:10173000B4F90410401A401C00FB0780203454F810
:101740002000BDE8F087D9F800000028F9D0C16872
:101750002A464B693146BDE8F04718470078704784
:10176000012070478068012901D000207047406C3B
:1017700070470000012901D00020704700487047E1
:1017800090800108012901D000207047004870476F
:10179000648A01080D291CD008DC012914D00A290B
:1017A0000CD00B290CD00C2906D10BE016291AD02D
:1017B000172913D0182918D0002070470C487047FB
:1017C0000C4870470C48704700688068D0F8F800F3
:1017D000704700688068D0F8F00070470068806843
:1017E000D0F8F4007047054870470548704700007E
:1017F000C9180108B518010825180108392601087B
:1018000075180108162901D000207047004870475C
:1018100049BB0008162901D00020704700487047D6
:1018200001BA000870B50546F8F714FF4FF4FA70D6
:10183000AC68F9F755F9A066A16B2068C91DC910FD
:101840004843F9F74DF9E06600220121A869F7F74E
:101850005DF80546D4F8041120468847D4F8AC104A
:1018600020468847002D01DD012070BD002070BD9D
:1018700070470000F8B50D4DDDE9066784682868FB
:1018800067B1002809D10096D4F8A4602046B0477B
:1018900054F8A40F286006482060F8BD0028FCD04A
:1018A000C4F8A40000202860F8BD00005C010020FE
:1018B0007118010870B515460C460646F8F7CAFEC1
:1018C000B068C0E9004570BD70B515460C460646C7
:1018D000F8F7C0FEB068C0E9024570BD70B50024DD
:1018E0000D46022807DAF9F7E9FA20B1C1688A6AD9
:1018F000294690470446204670BD80680F292CD2A7
:10190000DFE801F02B080A0C0E2B2B2B10121414FD
:10191000161D240000687047406870478068704753
:10192000C0687047806B7047002070470120704787
:101930000028FCD090F8340000F001007047002827
:10194000FCD090F83400C0F3400070470028FCD071
:1019500090F83400C0F3800070474FF0FF307047BC
:101960000068C268926A1047082901D000207047B9
:101970002020704710B5FBF7D9FDB0F5807F03D06C
:10198000802803D307211AE0082118E0402801D35A
:10199000062114E0202801D3052110E0102801D3EE
:1019A00004210CE0082801D3032108E0042801D316
:1019B000022104E0022801D3012100E000210120DE
:1019C0008840401E10BD4FF0FF3070474FF6FF704B
:1019D000704770B500240646012531462846FFF7BA
:1019E0007DFF844200DA04466D1EF6D5204670BDA8
:1019F0000146054A0F2000BF02EBC003DB6B8B42A0
:101A000001D9401EF8D570474CE500208368D3F813
:101A1000E830184710B50846114601F069FD008806
:101A200010BD10B50846114601F080FD006810BDDC
:101A3000806800220A804A800288521E8A8080883C
:101A4000401EC880704738B50C468068F9F7CAF860
:101A5000009081882180C188618081880289114439
:101A6000491EA180C18840890844401EE080684624
:101A7000F9F7E8F838BD38B50C468068F9F7B2F8E0
:101A8000009081882180C188618081880289114409
:101A9000491EA180C18840890844401EE0806846F4
:101AA000F9F7D0F838BD00000249096848840020E1
:101AB00070470000F800002002490968888400206F
:101AC00070470000F8000020054A904201D1503ACA
:101AD00001E000F1080209B18A4200D010467047C7
:101AE000ECE600200349884202D1A1F13C00704796
:101AF0000C307047C4E700200021FFF7E5BF00006D
:101B0000F0B4124C646814B1A446F0BC6047541E93
:101B100004FB030401EB82000D4DDFF838C0001F09
:101B20002188E41A01F01F06521EAF5DC1F345166D
:101B300005EBD1211CF80660097801EB062101EBC9
:101B4000074140F80419EBD1F0BC7047DC000020DD
:101B5000507001087070010810B50468184410C175
:101B6000521EFAD110BD70B50446FBF7DFFC0546E6
:101B7000FBF7F4FCAC4201D3002070BD0028FCD080
:101B800050F8240070BD000070B5184D0446E86898
:101B9000011DC0E90E01091D00646161417C05F170
:101BA000240050F82100C1680A6B04F10801904735
:101BB0000F48E066A868E061E868083060610120CD
:101BC0002076FCF7B3FBA064032084F870006FF06C
:101BD0007040206360630020FBF798FE6FF07F4049
:101BE000FBF7CCFE0348286170BD0000EC0000202C
:101BF0007C500108B07001082DE9F041244C94F8A4
