:020000040800F2
:1000000000200020750E0008550400085704000861
:100010005B0400085F04000863040008000000009F
:10002000000000000000000000000000670400085D
:100030006904000800000000C92000086B040008E3
:100040008F0E00088F0E00088F0E00088F0E00081C
:100050008F0E00088F0E00087B0400088F0E00082A
:100060008F0E00088F0E00088F0E00088F0E0008FC
:100070008F0E00088F0E00088F0E00088F0E0008EC
:100080008F0E00088F0E00088F0E00088F0E0008DC
:100090008F0E00088F0E00088F0E00088F0E0008CC
:1000A0008F0E00088F0E00088F0E00088F0E0008BC
:1000B0008F0E00088F0E00088F0E00088F0E0008AC
:1000C0008F0E00088F0E00088F0E00088F0E00089C
:1000D0008F0E0008590B00088F0E00088F0E0008C5
:1000E0008F0E00088F0E00088F0E00088F0E00087C
:1000F0008F0E00088F0E00088F0E00088F0E00086C
:100100008F0E00088F0E00088F0E00088F0E00085B
:100110008F0E00088F0E00088F0E00088F0E00084B
:100120008F0E00088F0E00088F0E00088F0E00083B
:100130008F0E00088F0E00088F0E00088F0E00082B
:100140008F0E00088F0E00088F0E00088F0E00081B
:100150008F0E00088F0E00088F0E00088F0E00080B
:100160008F0E00088F0E00088F0E00088F0E0008FB
:100170008F0E00088F0E00088F0E00088F0E0008EB
:100180008F0E00088F0E000800F002F800F092F8C1
:100190000AA090E8000C82448344AAF10107DA45E2
:1001A00001D100F087F8AFF2090EBAE80F0013F0A2
:1001B000010F18BFFB1A43F001031847F45B00005E
:1001C000145C0000103A24BF78C878C1FAD85207EE
:1001D00024BF30C830C144BF04680C6070470000C1
:1001E0000023002400250026103A28BF78C1FBD840
:1001F000520728BF30C148BF0B6070476E2904F01A
:100200008181702904F0C182662905F0BC836529CB
:1002100005F0B983672905F0B6836129AFF3008043
:1002200003681B0A28BF41F08001692904F030816E
:10023000642904F02D81752904F02A816F2904F0C6
:100240004F82782904F08D82E92904F0EB81E429BA
:1002500004F0E881F52904F0E581EF2904F04C82EF
:10026000F82904F08C820368DB0928BF41F0800183
:10027000632904F00C86732904F01186E32904F045
:100280001C86F32904F02186002070471FB505F075
:1002900075FB04F06BFE04000020002105F058FB04
:1002A000401C60600020002105F03CFBE0601FBDA9
:1002B00010B510BD04F02DFE1146FFF7E7FF00F06A
:1002C0004DF804F003FF03B4FFF7F2FF03BC04F0A2
:1002D00047FF000030B52F4800686422B0FBF2F100
:1002E000481EB0F1807F00D31BE0481E4FF0E02293
:1002F000506150170F22002807DA13071D0E264BF6
:1003000000F00F04241F1D5503E013071C0E234BA0
:100310001C5400BF00204FF0E022906107201061C4
:1003200000BF30BD70B50546FFF7D4FF4FF4E13094
:1003300000F0D6FB00F074FC00F037FD00F018FB75
:1003400000F077FB00F039FA00F0D0F800F071F916
:1003500003F039FB044603F0FEF970BD00B585B02B
:1003600000F016FE02F048FC0120AFF24701020245
:100370000B4BCDE90132CDE90310002001230246E9
:1003800008A100900A4802F021FF02F05EFC002064
:1003900005B000BD5400002018ED00E000E400E0CE
:1003A000CC000020496E69745F5461736B000000DB
:1003B000CC040020F0B50C46134605462646102B0B
:1003C0001BD304F00307C7B900F00307AFB92946F0
:1003D000324608E080CA80C180CA80C180CA80C11C
:1003E00080CA80C1103B102BF4D202E080CA80C1C9
:1003F0001B1F042BFAD20D46164603E016F8017BAC
:1004000005F8017B1F00A3F10103F7D1F0BDF0B5A2
:100410000C460546042A15D300F0030696B901469A
:1004200044EA042343EA034304E008C108C108C1C5
:1004300008C1103A102AF8D201E008C1121F042A9C
:10044000FBD20D4601E005F8014B1600A2F10102B6
:10045000F9D1F0BD704700BFFEE700BFFEE700BF67
:10046000FEE700BFFEE77047704710B502F004FEDC
:1004700002F0F7FD02F0C2FD10BD70471CB54FF44D
:10048000FA7532E06B4601AA2946234802F0A3FA26
:100490000446092C03D121A000F0A2FB25E024BBD7
:1004A00025A0DDE9002100F09BFB042228A1019892
:1004B00003F091FE18B9012000F0FAFB15E00422C8
:1004C00025A1019803F087FE18B9022000F0F0FB87
:1004D0000BE0042222A1019803F07DFE28B901203F
:1004E00000F0E6FB022000F0E3FBCBE700B585B0AF
:1004F0000120AFF2770180221B4BCDE90132CDE91B
:10050000031000200A23024618A100901B4802F0A5
:100510005DFE05B000BD00004413002072656365F8
:100520006976652071756575652074696D656F758F
:1005300074210D0A0000000025732C20717565756B
:10054000655F73697A653A2025640D0A0000000032
:100550004B455930000000004B4559310000000068
:100560004B45593200000000240500205461736B94
:100570005F51756575655F53697A650024070020D2
:1005800010B50D2000F0FCFA0A2000F0F9FA10BDB9
:1005900008B532A64CE00024304600F006FB2BE004
:1005A000684600F0CDFA9DF800000D2803D1002028
:1005B0002C49085521E09DF80000082810D1002C96
:1005C0001ADD601EC4B2002026490855082000F03C
:1005D000D7FA202000F0D4FA082000F0D1FA0BE07E
:1005E0009DF8000042B22046611CCCB21D490A545D
:1005F0009DF8000000F0C4FAD2E700BFFFF7C0FF8B
:1006000018480078A0B14FF4806200211648FFF727
:10061000FEFE00BF4FF480621349124803F078FCDD
:10062000C5B2114800F0C1FAFFF7AAFF002DF1D0C2
:10063000B1E700B585B00120AFF2AB0102020B4B70
:10064000CDE90132CDE9031000201123024608A1B3
:1006500000900A4802F0BAFD05B000BD7261772D26
:100660006F732300D40B0020D40C00207C070020E3
:100670005368656C6C205461736B00007C0B002028
:10068000F0B587B005460F4614460020049005904B
:10069000069003AA0121204603F0CBFC0646314612
:1006A00004A8039AFFF786FE002004A9039A885441
:1006B00002A904A800F0F2F803AA0221204603F0E0
:1006C000B8FC0646314604A8039AFFF773FE0020E3
:1006D00004A9039A885401A904A800F0DFF802983D
:1006E000012802D0022826D111E0019820B101286A
:1006F00006D100F0C8FA08E0012000F0AFFA04E0EB
:1007000037A1284603F037FD00BF00BF18E001986D
:1007100010B1012808D103E0022000F09FFA08E0A0
:10072000022000F0B0FA04E02DA1284603F023FDDA
:1007300000BF00BF04E030A1284603F01CFD00BF4D
:1007400000BF012007B0F0BD0BE0012000F0B0FABF
:10075000322002F02FFE022000F0AAFA322002F02E
:1007600029FEF2E770B586B004460D461646012014
:10077000AFF22B018022264BCDE90132CDE90310E7
:1007800000201023024623A10090254802F01EFD00
:10079000012006B070BD70B504460D4616462048CF
:1007A00002F0DCFE012070BD70B504460D46164611
:1007B0001B4802F045FF012070BD10B519491A48C9
:1007C00003F078FB19491A4803F074FB19491A48D9
:1007D00003F070FB19491A4803F06CFB10BD0000D0
:1007E0007061726132206973206572726F72283095
:1007F000206F7220312909007061726131206973A4
:10080000206572726F7228312C32290900000000B5
:10081000D41000204C45445F5461736B000000000D
:10082000D4120020000000208C590008080000208D
:100830009C59000810000020AC5900081800002046
:10084000BC590008F0B503461446002000220DE014
:10085000B3FBF4F604FB1636184F17F806C006462D
:10086000471CF8B201F806C0B3FBF4F3002BEFD13C
:1008700000260E5400B90E70002209E08D5C861A25
:10088000761E8E5D8E54861A761E8D55561CF2B2DB
:1008900000EBD077B2EB670FF0DBF0BD10B50022B4
:1008A00007E010F8014B02EB820304EB4303A3F1D2
:1008B00030020378002BF4D10A6010BD2000002024
:1008C0007CB504460D4616460020009001902FA1ED
:1008D000204603F050FC31208DF800002E208DF8CA
:1008E000010030208DF8020035208DF803003620FD
:1008F0008DF8040000208DF805006946204603F0BD
:100900003AFC01207CBDFEB505460E46174624483C
:10091000006800902248001F0068019020480838B5
:10092000006802901E480A3004881EA0009900F05A
:1009300057F921A0019900F053F921A0029900F084
:100940004FF9214620A000F04BF90120FEBD00BF69
:10095000BFF34F8F2148006800F4E060204908434E
:10096000001D1E490860BFF34F8F00BF00BFFEE7A8
:1009700010B51C491C4803F09DFA1C491C4803F0A3
:1009800099FA1C491C4803F095FA10BD5241572DA5
:100990004F532056657273696F6E3A200000000055
:1009A000187AFF1F636869702069643A202020204C
:1009B00030582530385820002530385820000000A5
:1009C00025303858200D0A00466C61736820536941
:1009D0007A653A202564204B420D0A000CED00E0B8
:1009E0000000FA0530000020CC5900083800002033
:1009F000DC59000840000020EC5900082DE9F843BC
:100A00000746884691460E4804680CE02668A4F123
:100A100020056946284602F074FCE96C09A0009A9A
:100A200000F0DEF8344606488442EFD10120BDE8EC
:100A3000F88310B51049114803F03CFA10BD0000CE
:100A4000B00000207461736B206E616D6520697366
:100A50002025313573202A2A2A207461736B206681
:100A600072656520737461636B2073697A652069B0
:100A7000732025640D0A000048000020FC5900087E
:100A80001CB50121084600F0B1FE072209215E488D
:100A900000F099FC07220A215B4800F094FC4FF417
:100AA000C060009002208DF804008DF805006946B2
:100AB000554800F0FDFB1CBD08B54FF4407000F038
:100AC00001FB25208DF8000000208DF801008DF835
:100AD000020001208DF80300684600F0F8FA08BD16
:100AE0001FB50446FFF7CCFF0121102000F0D8FE0F
:100AF00000940020ADF80400ADF80600ADF8080041
:100B0000ADF80C000C20ADF80A0069463F4801F032
:100B100014F840F227713D4801F07FF9012240F2BC
:100B200025513A4801F047F9FFF7C6FF0121374840
:100B300001F08BF8002236A1384802F009F91FBDF8
:100B400010B504464FF0FF31344802F0A3F92F48A6
:100B500001F0AAF8207010BD10B502F08DFA40F235
:100B600025512A4801F062F938B140F22551274851
:100B700001F097F9294802F04CF902F03FFA10BD54
:100B800010B5044600BF4021204801F039F9002883
:100B9000F9D021461D4801F083F800BF40211B48D1
:100BA00001F02EF90028F9D010BD10B5044600BFA1
:100BB0004021164801F024F90028F9D00CE014F97E
:100BC000012B91B2114801F06BF800BF40210F4892
:100BD00001F016F90028F9D020780028EFD110BDD7
:100BE0000FB400B5ADF5017D83A880906846809A6A
:100BF000829903F0D5FB002080906846FFF7D5FF6F
:100C00000DF5017D5DF814FB00000240001001406D
:100C10005553415254315F53454D00002C13002071
:100C20001CB50121202000F0E1FD4FF4C0600090D0
:100C300001208DF8040000208DF8060001208DF8B9
:100C4000070002208DF805006946264800F030FBB9
:100C50004FF4C061234800F0A7FB1CBD10B504464B
:100C6000012C02D0022C0CD105E04FF400711D487C
:100C700000F09AFB05E04FF480611A4800F094FB05
:100C800000BF00BF10BD10B50446012C02D0022CDD
:100C90000CD105E04FF40071124800F087FB05E02D
:100CA0004FF480610F4800F081FB00BF00BF10BD12
:100CB000012802D0022812D108E00A49143109683B
:100CC00081F40071074A1432116008E005491431BB
:100CD000096881F48061034A1432116000BF00BFCB
:100CE000704700000014024010B504464C480078DC
:100CF00020B1012815D0022854D140E004214948F0
:100D000000F038FB48B10821464800F033FB20B121
:100D10001021444800F02EFB10B901204049087012
:100D200040E004213F4800F025FB40B909223EA1E4
:100D3000404801F0E8FE0220394908701EE0082111
:100D4000384800F017FB40B90A223BA1394801F0AE
:100D5000DAFE02203249087010E01021314800F01C
:100D600009FB40B90B2237A1324801F0CCFE02202A
:100D70002B49087002E000202949087012E0042184
:100D8000284800F0F7FA60B10821264800F0F2FA8E
:100D900038B11021234800F0EDFA10B100202049AD
:100DA000087000BF00BF002010BD00B585B0012154
:100DB000084600F01BFD0121102000F017FD012165
:100DC000880300F06DFD0120039000208DF81000D5
:100DD0008DF8130003A91E4800F06AFA1C20039046
:100DE00000208DF8100001208DF8130003A90D4894
:100DF00000F05EFA0A23174A17A10E4801F04EFDD3
:100E00000120022164220023CDE900210290AFF2EB
:100E1000271214A1164802F059FF05B000BD0000CA
:100E200050000020001002404B455932203132332F
:100E300000000000441300204B455931203132336B
:100E4000340000004B455930203132333435000036
:100E500000000240701300204B45595F5155455525
:100E6000450000004B65795F54696D6572000000B4
:100E7000E81300200948804709480047FEE7FEE7DD
:100E8000FEE7FEE7FEE7FEE7FEE7FEE7FEE7FEE73A
:100E900004480549054A064B70470000910F0008B9
:100EA00089010008001A002000200020001C0020FA
:100EB000001C00200CB500200190009076480068CE
:100EC00040F480307449086000BF7348006800F443
:100ED000003000900198401C0190009818B90198CA
:100EE000B0F5A04FF1D16C48006800F4003010B1AB
:100EF0000120009001E0002000900098012846D1D8
:100F000065484030006840F08050634940310860D7
:100F10006248006840F44040604908605E4808301C
:100F200000685D49083108600846006840F40040E8
:100F300008600846006840F4A05008605848091F3F
:100F40000860081F006840F08070091F086000BF3B
:100F50005148006800F000700028F9D040F20560A8
:100F6000504908604C480830006820F003004A49A6
:100F7000083108600846006840F00200086000BFC1
:100F800045480830006800F00C000828F8D10CBD76
:100F900010B54548006840F47000434908603E4879
:100FA000006840F001003C49086000203A490831DF
:100FB0000860394800683D490840374908603C48A6
:100FC000091D0860081F006820F48020091F0860C0
:100FD000002031490C310860FFF76CFF4FF00060D2
:100FE00031498039086010BD70B50020002202230D
:100FF00000240221284D08352D6805F00C0020B191
:10100000042806D0082834D107E02A4D2A4E35603E
:1010100033E02A4D284E35602FE01F4D2D1D2D68E1
:10102000C5F380541C4D2D1D2D6805F03F0154B1B2
:10103000224DB5FBF1F5184E361D3668C6F38816FD
:1010400005FB06F209E01B4DB5FBF1F5124E361D0E
:101050003668C6F3881605FB06F20F4D2D1D2D6868
:10106000C5F301456D1C6B00B2FBF3F5124E356004
:1010700003E0104D104E356000BF00BF064D08352F
:101080002D68C5F303150E4E705D0B4D2D68C540E0
:10109000094E356070BD000000380240007000400D
:1010A00008544007003C024088ED00E0FFFFF6FED8
:1010B000103000240024F4005400002000127A00B4
:1010C0005800002032490143324A1160704770B520
:1010D000002100230F22C4781CB32E4C246804F492
:1010E000E064C4F5E064C4F30721C1F10404E3B291
:1010F0000A4144789C40E1B28478144021430C07B3
:10110000210E254C05786155047804F01F05012453
:10111000AC4005786D11AD0005F1E025C5F8004142
:1011200009E0047804F01F050124AC401B4D06784B
:10113000761145F8264070BD194A0A400243154B06
:101140001B1F1A60704739B1124A121D1268024300
:10115000104B1B1D1A6006E00E4A121D12688243D6
:101160000C4B1B1D1A607047042808D14FF0E0217A
:10117000096941F004014FF0E022116107E04FF0EE
:10118000E021096921F004014FF0E022116170476C
:101190000000FA050CED00E000E400E080E100E072
:1011A00080FFFF1F10B504469848844208D10121F2
:1011B000084600F086FB0021012000F082FB76E06B
:1011C0009348844208D10121022000F07AFB0021DB
:1011D000022000F076FB6AE08E48844208D10121AB
:1011E000042000F06EFB0021042000F06AFB5EE0AA
:1011F0008948844208D10121082000F062FB0021C7
:10120000082000F05EFB52E08448844208D10121AE
:10121000102000F056FB0021102000F052FB46E0A9
:101220007F48844208D10121202000F04AFB0021A0
:10123000202000F046FB3AE07A48844208D10121A0
:10124000402000F03EFB0021402000F03AFB2EE061
:101250007548844208D10121802000F032FB002132
:10126000802000F02EFB22E07048844208D101214A
:10127000801500F026FB0021A01500F022FB16E0EF
:101280006B48844208D10121401500F01AFB00216F
:10129000601500F016FB0AE06648844207D1012180
:1012A000001500F00EFB0021201500F00AFB10BD18
:1012B000F0B50A4600210023002400BF3DE00125CF
:1012C00005FA01F3156805EA03049C4234D1056868
:1012D0004F000326BE40B543056015794E00B5406A
:1012E0000668354305601579012D02D01579022D68
:1012F00016D185684F000326BE40B54385605579F9
:101300004E00B540866835438560456801268E40AD
:10131000B5434560456896798E40B6B23543456021
:10132000C5684F000326BE40B543C560D5794E0061
:10133000B540C6683543C560491C1029BFD3F0BD10
:101340004FF6FF7101600021017141718171C1711E
:10135000704708B54FF480320092009A0A43009219
:10136000009AC261C161009AC261C2690092C269F9
:10137000009208BD0246002013690B400BB101200A
:1013800000E0002070470146086980B270470246BD
:10139000002053690B400BB1012000E00020704792
:1013A0000146486980B270470183704741837047A6
:1013B0000AB1018300E0418370474161704742698F
:1013C0004A4042617047F0B5002300244D07ED0EFE
:1013D00002FA05F3CE1000F1200555F826504E070D
:1013E000F70E0F26BE40B543CF1000F1200646F899
:1013F0002750CE1000F1200555F8265045EA030489
:10140000CE1000F1200545F82640F0BD0000024056
:101410000004024000080240000C0240001002409C
:101420000014024000180240001C0240002002404C
:101430000024024000280240F948006840F0010002
:10144000F74908600020F64908310860F448006850
:10145000F4490840F2490860F348091D0860F34860
:10146000EF4984310860F0481038091D0860EC48E5
:10147000006820F48020EA4908600020E8490C3127
:101480000860E7498C31086070470021E44A921CEB
:10149000117011460870704710B5014600220023F4
:1014A00000204A11012A02D1DD4C236808E0022AFB
:1014B00003D1DB4C7034236802E0D94C74342368C8
:1014C00001F01F02012494401C400CB1012000E0F7
:1014D000002010BD38B5002000900024002500BF7A
:1014E0003120FFF7D9FF05460098401C0090009876
:1014F000B0F5A04F01D0002DF2D03120FFF7CCFF86
:1015000008B1012400E00024204638BD0146002037
:10151000C34A106820F0F80040EAC100106070472C
:10152000C349086070470021BD4A703211701170C4
:10153000012802D004280AD104E00121B84A7032FF
:10154000117005E00521B64A7032117000E000BF4D
:1015500000BF7047B7490860704770B5049C41EA06
:1015600082150126C6EB530645EA0645054345EAC2
:101570000465AB4E361D356070BDAD4908667047D9
:10158000820142EA0172A64B84331A607047A8496F
:101590008866704710B5830143EA016343EA02732A
:1015A0009F4C8834236010BDA14908677047A0494B
:1015B000C864704702460020994B0833186820F031
:1015C000EC6042EA01031843954B083318607047FA
:1015D00002460020924B0833186820F0784042EA17
:1015E000010318438E4B08331860704701460020F2
:1015F0008B4A0832106820F00300084310607047DF
:1016000087480830006800F00C0070470146002051
:10161000834A0832106820F0F000084310607047D9
:10162000014600207E4A0832106820F4E05008434A
:101630001060704701460020794A0832106820F493
:10164000604040EAC10010607047F0B50021002200
:101650000024022500260223714F08373F6807F057
:101660000C0121B1042905D0082937D105E0724FBA
:10167000076036E0714F076033E0694F3F1D3F68F8
:10168000C7F38056664F3F1D3F6807F03F036EB1BA
:101690006A4FB7FBF3F7DFF888C10CF1040CDCF8F4
:1016A00000C0CCF3881C07FB0CF40CE0624FB7FBC6
:1016B000F3F7DFF86CC10CF1040CDCF800C0CCF3DC
:1016C000881C07FB0CF4564F3F1D3F68C7F30147CA
:1016D0007F1C7D00B4FBF5F7076002E0564F076002
:1016E00000BF00BF4E4F08373F6807F0F0010909FF
:1016F000534F7A5C0768D7404760494F08373F68C7
:1017000007F4E051890A4E4F7A5C4768D7408760FA
:10171000434F08373F6807F46041490B484F7A5CF4
:101720004768D740C760F0BD002100F44072B2F5B1
:10173000407F0AD13A4A0832116821F4F811414A2F
:1017400002401143364A08321160354A703212683D
:10175000C0F30B031A43324B70331A60704735499C
:10176000443908607047334940390860704736494A
:101770000860704701460020294A8C32106820F02A
:101780001F004A1E1043264A8C32106070470146E3
:101790000020234A8C32106820F4F8504A1E40EA98
:1017A00002201F4A8C3210607047014600201C4AFC
:1017B0008C32106820F440100843106070470146D6
:1017C0000020174A8C32106820F440000843106053
:1017D000704701460020124A8C32106820F44030D5
:1017E00008431060704719490860704739B10C4AC6
:1017F0003032126802430A4B30331A6006E0084A5E
:10180000303212688243064B30331A607047F9B1A8
:10181000034A343212680243014B34331A601CE02D
:1018200000380240FFFFF6EA1030002400300020AC
:1018300000004742800E47420024F40000127A0064
:1018400068000020FFFCFF0F5C014742E0114742A7
:10185000854A12688243844B1A60704739B1824AC4
:10186000121D12680243804B1B1D1A6006E07E4A5F
:10187000121D126882437C4B1B1D1A60704739B1E0
:10188000794A0C3212680243774B0C331A6006E037
:10189000754A0C3212688243734B0C331A607047DE
:1018A00039B1714A1032126802436F4B10331A601B
:1018B00006E06D4A1032126882436B4B10331A6097
:1018C000704739B1684A243A12680243664B243B98
:1018D0001A6006E0644A243A12688243624B243B51
:1018E0001A60704739B1604A203A126802435E4B71
:1018F000203B1A6006E05C4A203A126882435A4B49
:10190000203B1A60704739B1574A1C3A12680243AB
:10191000554B1C3B1A6006E0534A1C3A126882433E
:10192000514B1C3B1A60704739B14F4A143A126848
:1019300002434D4B143B1A6006E04B4A143A1268BE
:101940008243494B143B1A60704739B1464A103AFA
:1019500012680243444B103B1A6006E0424A103AB8
:1019600012688243404B103B1A60704739B13E4ABF
:101970001C32126802433C4B1C331A6006E03A4AA0
:101980001C3212688243384B1C331A60704739B1DD
:10199000354A203212680243334B20331A6006E086
:1019A000314A2032126882432F4B20331A6070472D
:1019B00039B12D4A2432126802432B4B24331A606A
:1019C00006E0294A243212688243274B24331A60E6
:1019D000704739B1244A2C3212680243224B2C330F
:1019E0001A6006E0204A2C32126882431E4B2C33C8
:1019F0001A60704739B11C4A3032126802431A4BE0
:101A000030331A6006E0184A303212688243164BAF
:101A100030331A60704739B1134A273A12780243BB
:101A2000114B273B1A7006E00F4A273A127882437F
:101A30000D4B273B1A7070470B484030006840F050
:101A40008070094940310860704701460020064A0D
:101A5000283A12680A400AB1012000E000207047CD
:101A600001492639087070473438024010B50446E1
:101A7000FA48844208D101211020FFF766FF0021B7
:101A80001020FFF762FF57E0F548844209D1012199
:101A90004804FFF749FF00214FF40030FFF744FFEF
:101AA0004AE0F048844209D101218804FFF73CFF55
:101AB00000214FF48020FFF737FF3DE0EA488442E1
:101AC00009D10121C804FFF72FFF00214FF40020A6
:101AD000FFF72AFF30E0E548844209D101210805DB
:101AE000FFF722FF00214FF48010FFF71DFF23E0D6
:101AF000DF48844208D101212020FFF726FF002182
:101B00002020FFF722FF17E0DA48844209D10121A3
:101B10008807FFF709FF00214FF08040FFF704FF1F
:101B20000AE0D548844207D101214005FFF7FCFEB9
:101B300000216005FFF7F8FE10BD2DE9FF470546BF
:101B40000E460024A14600BFA046B08900B100BFE8
:101B50002C8A24F44054F08804432C82AC8941F24E
:101B60000C608443B0883189084371890843044379
:101B7000AC81AC8A24F44074B0890443AC826846DA
:101B8000FFF763FDB548854202D0B948854202D1CE
:101B9000DDF80C9001E0DDF80890A88900F4004021
:101BA00040B109EBC90000EB091031684900B0FBF6
:101BB000F1F707E009EBC90000EB09103168890073
:101BC000B0FBF1F76420B7FBF0F0040120096421B9
:101BD00001FB1078A88900F4004040B1322000EBEE
:101BE000C800B0FBF1F000F00700044308E0322029
:101BF00000EB08106421B0FBF1F000F00F0004438B
:101C00002C81BDE8FF874FF41651016000218180CF
:101C1000C18001810C21418100218181704710B573
:101C200002460020108A20F470600B884C88234301
:101C30008C882343CC8823431843108210BD002195
:101C4000018041808180C180704721B1828942F446
:101C50000052828104E082894DF6FF731A4082812E
:101C60007047028B02F47F420283028B0A43028395
:101C7000704721B1828942F40042828103E0828967
:101C8000C2F30E028281704721B1828A42F400625F
:101C9000828204E0828A4FF2FF731A408282704788
:101CA000C1F308028280704701468888C0F30800AB
:101CB0007047028A4FF6F0731A400282028A0A4382
:101CC0000282704721B1828942F00202828104E0DF
:101CD00082894FF6FD731A408281704782894FF2E4
:101CE000FF731A40828182890A4382817047028A87
:101CF0004FF6DF731A400282028A0A43028270475B
:101D000021B1028A42F48042028204E0028A4BF648
:101D1000FF731A4002827047818941F0010181817D
:101D2000704721B1828A42F00802828204E0828AEE
:101D30004FF6F7731A4082827047028BD2B2028349
:101D4000028B42EA01220283704721B1828A42F06B
:101D50002002828204E0828A4FF6DF731A40828278
:101D6000704721B1828A42F01002828204E0828AA6
:101D70004FF6EF731A4082827047828A4FF6FB73E8
:101D80001A408282828A0A438282704721B1828A03
:101D900042F00202828204E0828A4FF6FD731A400A
:101DA000828270471AB1838A0B43838202E0838A5E
:101DB0008B4383827047F0B503460024002600253C
:101DC000002040F66A17B94200D100BF1846C1F39F
:101DD000421401F01F06012707FA06F5012C01D174
:101DE0000C3004E0022C01D1103000E014301AB1A4
:101DF00007682F43076002E00768AF430760F0BD44
:101E000002460020B1F5007F00D100BF13880B40CF
:101E10000BB1012000E00020704701F40072B2F520
:101E2000007F00D100BFCA430280704770B50246F0
:101E3000002400230025002040F66A16B14200D19C
:101E400000BFC1F3421501F01F03012606FA03F398
:101E5000012D13D19689334017E000000010014096
:101E60000044004000480040004C0040005000404A
:101E70000014014000780040007C0040022D02D197
:101E8000168A334001E0968A33400C12012606FA86
:101E900004F41688344013B10CB1012000E0002096
:101EA00070BD10B50022002340F66A14A14200D193
:101EB00000BF0A1201249440A3B2DC43048010BD89
:101EC000F0B504460D4604EB850121F007010846F4
:101ED000AA27061F304637600A27061F304637609C
:101EE0001527061F304637601427061F3046376017
:101EF0001327061F304637601227061F304637600B
:101F00001127061F304637601027061F30463760FE
:101F10000927061F304637600827061F30463760FE
:101F20000727061F304637600627061F30463760F2
:101F30000527061F304637600427061F30463760E6
:101F40000327061F304637600227061F30463760DA
:101F50000127061F304637600027061F30463760CE
:101F60004FF08077061F30463760061F30463360DB
:101F70006FF00107061F304637604FF01237061F1B
:101F8000304637604FF00337061F304637604FF05A
:101F90000237061F304637607F10061F3046376015
:101FA000061F304632603127061F30463760302723
:101FB000061F304637602927061F3046376028271E
:101FC000061F304637602727061F30463760262712
:101FD000061F304637602527061F30463760242706
:101FE000061F304637602327061F304637602227FA
:101FF000061F304637602127061F304637602027EE
:10200000061F304637601927061F304637601827ED
:10201000061F304637601727061F304637601627E1
:10202000061F304637604FF01137061F30463760C5
:102030004FF01037061F304637604FF00937061F44
:10204000304637604FF00837061F304637604FF094
:102050000737061F304637604FF00637061F3046F9
:1020600037604FF00537061F304637604FF00437B2
:10207000061F30463760F0BDEFF3108072B6704730
:1020800080F31088704772B6704762B670471F4879
:102090004FF0FF010170002080F30988EFF3088002
:1020A000C008C00080F3088819484FF080510160D3
:1020B00062B6FEE716484FF0805101607047144841
:1020C0004FF080510160704772B6EFF3098060B144
:1020D00020ED108B203880E8F00F0E490968086069
:1020E00000B500F06DFF5DF804EB0A480A490A6884
:1020F0000260106890E8F00F2030B0EC108B80F395
:1021000009884EF0040E62B67047000022ED00E030
:1021100004ED00E0800000207C000020002400BFCF
:102120000EE0FFF7A9FF04460648D0E900305A1C2C
:1021300040F100000349C1E900202046FFF7A0FF5D
:10214000EFE700008800002010B504460CB92520F8
:1021500010BD032A05D0022A03D0042A01D01C2076
:10216000F6E700BF2460646000BF00202073A16018
:102170002061606122766376122060730020E7E7B9
:102180002DE9F84F06460F469046B9464FF0000A33
:10219000746D4CB1607B122806D1207E032803D1D8
:1021A000657E554500DDAA464D46F4691BE0207E5C
:1021B000022806D0032810D1657E554500DDAA46C9
:1021C0000CE0A346584600F0C4F928B9DBF800003B
:1021D000001F00900098457E00E000BF00BF4D4505
:1021E00000DAA9466469002CE1D1574504DA1A20C7
:1021F000A8F80000BDE8F88F0020A8F800004846C5
:10220000F8E72DE9F05F05468846AE7EB24605F157
:102210001C0920E0444503D16069C9F800001AE0B8
:10222000207E022804D003280DD194F819A00BE0D9
:102230002746384600F08DF920B93868A0F1040B24
:102240009BF819A000E000BF00BF564500DD5646D0
:1022500004F1140900BFD9F80040002CDAD1687EDF
:10226000B04203D03146284601F0F3F9BDE8F09FB3
:102270002DE9F04104460F46666DBA4800780528FE
:1022800001DDBDE8F081B7480078401CB549087011
:1022900008460078B4490978884203DDB1480078DF
:1022A000B1490870707B122813D1307E022810D1FA
:1022B0003569687E617E884204DD617E284601F0D2
:1022C000C8F906E0687EB84203D100212846FFF72E
:1022D00098FFA4480078401EA249087000BFD0E7CC
:1022E00070B50446656D687B12280BD1287E0228E4
:1022F00008D12E69707E617E884203D1002130466C
:10230000FFF77FFF70BD2DE9F04104460E46002720
:1023100014B92520BDE8F0819448007808B1272041
:10232000F8E700BFFFF7A8FE074600BF607B122852
:1023300006D000BF3846FFF7A3FE00BF3620E9E70E
:102340008B4920690968884209D1A07E401CA0768B
:1023500000BF3846FFF794FE00BF1820DAE7207E62
:1023600003280CD182480068807E617E884206DAAC
:1023700000BF3846FFF784FE00BF1A20CAE7256970
:1023800005BB7B480068206179480068C0696061CE
:1023900077480068C4610120A076207E03280AD116
:1023A00073480068407E617E884204DD617E70482B
:1023B000006801F04EF900BF3846FFF761FE00BF2C
:1023C0000020A7E736B900BF3846FFF759FE00BF27
:1023D00006209FE700BF6748007830B100BF38464D
:1023E000FFF74EFE00BF072094E700BF207E0228C3
:1023F0000BD15F480068407E697E884205DA5C4800
:102400000068417E284601F024F9324658480168A8
:10241000204600F0C9F900BF3846FFF731FE00BF83
:1024200000F0CAFB00215248006800F041FE8046DF
:1024300040466FE72DE9F0410446002714B92520F6
:10244000BDE8F0814948007808B12720F8E700BFCF
:10245000FFF712FE074600BF607B122806D000BFC0
:102460003846FFF70DFE00BF3620E9E740492069F6
:102470000968884206D000BF3846FFF701FE00BF5A
:102480001720DDE7A07E401EA076A07E30B100BF01
:102490003846FFF7F5FD00BF1820D1E72146344844
:1024A0000068FFF7AEFE2646304600F052F840B115
:1024B0000020206100BF3846FFF7E2FD00BF00208A
:1024C000BEE73068051F284600F056F92561E86927
:1024D0006061EC610120A076207E032807D1687E30
:1024E000617E884203DD617E284601F0B2F800BFBC
:1024F0003846FFF7C5FD00BF00F05EFB00209FE7F8
:102500002DE9F0410746D7F81C801DE0D4F814806F
:102510002646304600F01DF8A0B93068051F284651
:1025200000F02AF92561E8696061EC61207E0328EA
:102530000AD1687E617E884206DD617E284601F010
:1025400088F801E0002020615FEA0804DED1BDE8E0
:10255000F08101460868884201D1012070470020BF
:10256000FCE70000AC000020AD0000207B00002054
:10257000800000207A00002042684A6008604268BB
:102580001160416070470146142008700020024627
:1025900008E00B1D03EBC2000060406000BF501C50
:1025A000C0B20246142AF4DB70472DE9F047054615
:1025B0000E462F46A94696F81980D9F8004004E047
:1025C000607D404500DD02E02468BC42F8D100BFD8
:1025D000311D2046FFF7D0FFBDE8F08730B5024639
:1025E00002EBE10201F007050124AC40E3B21478EC
:1025F0001C43147030BD70B504460E46757E211D17
:1026000051F83500311DFFF7B7FF294604F1A4004A
:10261000FFF7E4FF2078A84200DD257070BD70B59B
:1026200004460E46757E211D01EBC500311DFFF7E6
:10263000A3FF294604F1A400FFF7D0FF2078A842A9
:1026400000DD257070BD70B505460C46607E904972
:102650000968497E884204D121462846FFF7DFFFFA
:1026600003E021462846FFF7C6FF70BDF8B50546D2
:102670000F467C7E381D00F004F9291D01EBC400D3
:102680000168814201D1012100E0002101B9F8BDBA
:1026900005F1A400014601EBE40104F0070C01235D
:1026A00003FA0CF3DAB20B7893430B7000BF28786F
:1026B000A04200D0EBE7C4F11402214605F1A400CA
:1026C00000F02EFD0646002E02DBA019287007E060
:1026D0000020009000BF9DF800000028FBD000BF44
:1026E00000BFD4E770B505460C46617E281D00EB9F
:1026F000C106201D00F0C5F8211D3046FFF73CFF44
:1027000070BD10B50278031D53F832100B1F614CD9
:10271000236010BD38B5044694F85000012806D057
:10272000022805D003280FD0052814D10BE000BFE4
:10273000201D00F0A6F821465748FFF784FF00202F
:1027400084F850000FE000BF201D00F09AF804202C
:1027500084F8500007E00020009000BF9DF80000C2
:102760000028FBD000BF00BF204601F084F9002004
:1027700084F85100606538BD10B504462046FFF767
:10278000C9FF10BD70B504460D4665642046FFF7CD
:10279000C1FF70BD70B504460E4615466664A5645B
:1027A0002046FFF7B7FF70BDF8B506460C46154644
:1027B0003DB90020009000BF9DF800000028FBD02C
:1027C00000BF6665681C18B9012084F8500006E057
:1027D0002946204601F03FF9022084F850002146A6
:1027E0002D48FFF743FF307B012804D1211D3046DF
:1027F000FFF7C2FE03E021463046FFF7D6FE002079
:10280000F8BD38B5044694F85000012806D00228D7
:1028100005D003280FD0052814D10BE000BF201DE0
:1028200000F02FF821461C48FFF70DFF002084F828
:1028300050000FE000BF201D00F023F8042084F8B2
:10284000500007E00020009000BF9DF80000002825
:10285000FBD000BF00BF204601F00DF9032084F833
:1028600051000020606538BD70B50446656D287B59
:1028700030B9201D00F005F82146606DFFF795FE88
:1028800070BDD0E900121160D0E90021516070479D
:10289000800000207C0000201414002070B5044645
:1028A0000E460CB9252070BD0AB92320FBE70BB9F1
:1028B0002920F8E700BF2460646000BFA660002004
:1028C0002073A062A0616362226111460D460C353F
:1028D00005E00D600020486088600C310C35581E02
:1028E0000300F6D1086048608860152060730020FE
:1028F000D9E72DE9F84F04460F4690469946DDF892
:1029000028B00020009000BFFFF7B6FB009000BF8A
:10291000607B152807D000BF0098FFF7B1FB00BF10
:102920003620BDE8F88F2646D4E90910884206D340
:1029300000BF0098FFF7A4FB00BF0B20F1E7304673
:1029400000F02BF940B3256928682061A06A10B90E
:10295000E56125620DE0B9F1020F07D1D4F81CA0A2
:10296000CAF8005000202860E56102E0206A286073
:102970002562A06A401CA062A169A06A884201D9B0
:10298000A06AA0616F60C5F8088000BF0098FFF7DB
:1029900077FB00BF0020C4E7BBF1000F0CD005E0BF
:1029A0003168081F42463946FFF7F4FE304600F012
:1029B000F4F80028F4D005E03168081F4246394693
:1029C000FFF7E8FE00BF0098FFF75AFB00BF00F0DA
:1029D000F3F80020A5E72DE9F047044688461546A0
:1029E0001E464FF0000A7148007828B1B8F1000F78
:1029F00002D02720BDE8F0870CB92520FAE70DB9F1
:102A00002320F7E70EB92320F4E700BFFFF734FBDC
:102A1000824600BF607B152806D000BF5046FFF7F6
:102A20002FFB00BF3620E5E7A06AC8B1276A7868A7
:102A30002860B868306038682062206A18B1A06ADF
:102A4000401EA06202E00020E061A06220693860C0
:102A5000276100BF5046FFF713FB00BF0020C9E706
:102A6000B8F1000F09D100202860306000BF504647
:102A7000FFF706FB00BF0620BCE700BF4C4800780C
:102A800048B100202860306000BF5046FFF7F8FAD8
:102A900000BF0720AEE700BF424646480168204617
:102AA000FFF782FE00BF5046FFF7EAFA00BF00F0D2
:102AB00083F800213F48006800F0FAFA8146B9F136
:102AC000000F08D13B480068806C306039480068CE
:102AD000406C286002E0002028603060484689E7AA
:102AE000F8B504460D4616460CB92520F8BD0DB9BB
:102AF0002320FBE700200123324629460090204690
:102B0000FFF7F7FEF2E7F8B504460D4616460CB996
:102B10002520F8BD0DB92320FBE700200223324613
:102B2000294600902046FFF7E4FEF2E7F8B5044698
:102B30000D4616461F460CB92520F8BD0DB92320B9
:102B4000FBE701203B463246294600902046FFF72E
:102B5000D0FEF2E770B5044600260CB9252070BD02
:102B600000BFFFF789FA064600BF607B152806D034
:102B700000BF3046FFF784FA00BF3620EFE7D4E904
:102B80000910884201D3012500E0002500BF30462E
:102B9000FFF776FA00BF2846E1E701460868884259
:102BA00001D1012070470020FCE700007B000020DD
:102BB0007A0000208000002010B5002453480078DF
:102BC00010B95348007800B110BDFFF755FA04461C
:102BD0005048FFF796FD5048006850490968884200
:102BE00003D12046FFF74CFAEEE7FFF763FA2046E1
:102BF000FFF746FA00BFE7E700B585B00520484972
:102C000008704448FFF7BFFC00F020FF4548006013
:102C1000406000BF012044498022444BCDE901328D
:102C2000CDE9031000201323024641A10090434840
:102C300000F0CCFA01F0F1F80023022240A1434851
:102C4000FFF782FA002005B000BD10B534480078C7
:102C500005280CD12F48FFF754FD2F4800682F4955
:102C6000086004202E490870FFF711FA01E00420E3
:102C700010BD0320FCE72DE9F0410646002725485A
:102C8000001D00EBC60500BFFFF7F6F9074600BFC1
:102C900028460168814201D1012100E0002131B1C3
:102CA00000BF3846FFF7ECF900BFBDE8F0812868A7
:102CB000041F207E012805D100BF3846FFF7E0F948
:102CC00000BFF2E728680068A84205D100BF384677
:102CD000FFF7D6F900BFE8E7206910B12069401E70
:102CE0002061206928B100BF3846FFF7C9F900BF4D
:102CF000DBE721460748FFF7F5FC6069206100BF6C
:102D00003846FFF7BDF900BF00BFCEE77B000020CB
:102D10007A000020141400207C0000208000002095
:102D200078000020B00000201D21000814150020AC
:102D300069646C655F7461736B000000BC140020F3
:102D400074696D65725F6D75746578008419002013
:102D500003460BB925207047501C08B91520FAE727
:102D600000BF1B605B6000BF1A6199600020187390
:102D70005861112058730020EDE72DE9F041044619
:102D80000E46002700BFFFF777F9074600BF607BBC
:102D9000112807D000BF3846FFF772F900BF362070
:102DA000BDE8F0812546284600F0FCF8C0B1206956
:102DB000401C30B900BF3846FFF762F900BF15204C
:102DC000EEE72069401C206100BF3846FFF758F944
:102DD00000BF606910B12046616988470020DFE7C5
:102DE00056B103E02968081FFFF7C6FC284600F02B
:102DF000D9F80028F6D003E02968081FFFF7BCFCCB
:102E000000BF3846FFF73CF900BFFFF7D5FE0020B2
:102E1000C6E710B504460CB9252010BD0021204698
:102E2000FFF7ABFFF9E710B504460CB9252010BD3C
:102E300000212046FFF7A1FFF9E710B504460CB9C1
:102E4000252010BD01212046FFF797FFF9E770B557
:102E500004460D4600260CB9252070BD5548007863
:102E600008B12720F9E700BFFFF706F9064600BFC3
:102E7000607B112806D000BF3046FFF701F900BF84
:102E80003620EAE7656100BF3046FFF7F9F800BF7A
:102E90000020E2E72DE9F04104460D46002614B972
:102EA0002520BDE8F0814348007808B12720F8E7E5
:102EB00000BFFFF7E1F8064600BF607B112806D08F
:102EC00000BF3046FFF7DCF800BF3620E9E7206995
:102ED00048B12069401E206100BF3046FFF7D0F89E
:102EE00000BF0020DDE735B900BF3046FFF7C8F866
:102EF00000BF0620D5E700BF2F48007830B100BFE3
:102F00003046FFF7BDF800BF0720CAE700BF2A46DA
:102F10002A4801682046FFF747FC00BF3046FFF70C
:102F2000AFF800BFFFF748FE00212448006800F01A
:102F3000BFF807463846B4E72DE9F04104460D4690
:102F40000027264614B92520BDE8F08119480078ED
:102F500008B12720F8E700BFFFF78EF8074600BF4B
:102F6000607B112806D000BF3846FFF789F800BF04
:102F70003620E9E7206908B125610CE0304600F011
:102F800011F808B1256106E000BF3846FFF778F870
:102F900000BF1620D8E700BF3846FFF771F800BF22
:102FA0000020D1E701460868884201D1012070471E
:102FB0000020FCE77B0000207A0000208000002039
:102FC00008B50D490968C86A016839B10021009146
:102FD00000BF9DF800100029FBD000BF064909681A
:102FE0000968814207D20021009100BF9DF80010BE
:102FF0000029FBD000BF08BD8000002010B50024D0
:10300000FFF73AF804466B48007818B92046FFF7F6
:1030100037F810BD67480078401E664908700846BA
:10302000007818B12046FFF72BF8F2E762480078E5
:1030300018B12046FFF724F8EBE76048FFF761FB83
:103040005F4800685F490968884203D12046FFF75E
:1030500017F8DEE7FFF733F82046FFF711F800BF57
:10306000D7E710B500F012FD56490968487EFFF712
:1030700002FE00F0C3FE10BD10B500244D480078DC
:10308000642801DB412010BD00BFFEF7F5FF0446B8
:1030900000BF48480078401C4649087000BF2046E1
:1030A000FEF7EEFF00BF0020EDE7474800687047DD
:1030B00018B50246002092F8513033B1012B09D0E7
:1030C000022B09D0032B0BD108E009B1546C0C6022
:1030D00000200DE008200BE0092009E00A2007E0AD
:1030E0000024009400BF9DF80040002CFBD000BFDE
:1030F00000BF18BD70B5044600252E48007808B101
:10310000272070BD00BFFEF7B7FF054600BF2E4861
:10311000046000BF2846FEF7B3FF00BF0020F0E7C1
:10312000F0B505460B4616462C46581104EB8004B4
:1031300003F01F0048B103F01F0C012000FA0CF04F
:10314000401E276827EA000200E0226800212BE0E9
:1031500002B311B903F01F00091A90B208B9120C9A
:103160001031D0B208B9120A083102F00F0008B9C4
:103170001209091D02F0030008B99208891C02F027
:10318000010000B9491CB14201DA0846F0BD4FF018
:10319000FF30FBE709B1203103E003F01F00C0F16D
:1031A0002001201D04460268B142D1DB4FF0FF3000
:1031B000ECE700007B0000207A00002014140020BF
:1031C0007C00002080000020900000202DE9FF4FAF
:1031D00081B004468B461D46DDF84890DDE90F6856
:1031E000002000901CB9252005B0BDE8F08F142DFB
:1031F00001DB1320F8E70EB92320F5E7119808B991
:103200002320F1E7FA48007808B12720ECE700BF57
:10321000FEF732FF009000BF132D0CD1F548007867
:1032200030B100BF0098FEF72BFF00BF0120DBE7A5
:103230000120F049087000BF0098FEF721FF00BF91
:10324000582200212046FDF7E2F80E9810B10E98A2
:10325000606101E0322060616069206102202076B7
:10326000B9F1000F03D0002084F8500004E00420DE
:1032700084F850000120E076E66237464FF0000AFD
:1032800003E0002001C70AF1010AC245F9D3414613
:103290003046119B039AFEF713FE2060C4F84CB031
:1032A0006576A576C4F8288000BFFEF7E5FE00909D
:1032B00000BFD14804F1200142684A6008604268BA
:1032C0001160416000BFB9F1000F03D02146CB4827
:1032D000FFF7A5F9CA480078042806D000BF009877
:1032E000FEF7CEFE00BF05207EE700BF0098FEF788
:1032F000C7FE00BFB9F1000F01D0FFF75DFC002051
:1033000072E730B5024600240AB9252030BD09B95C
:103310002320FBE7D36A00E0641C20CB002DFBD008
:103320000C600020F2E710B50024B148007808B125
:10333000272010BDB3480078FA2801D30F20F8E702
:1033400000BFFEF799FE044600BFAE480078401C5F
:10335000AC49087000BF2046FEF792FE00BF002077
:10336000E7E710B50024A248007808B1272010BD77
:10337000A448007808B90E20F9E700BFFEF77CFEEC
:10338000044600BF9F480078401E9E4908700846CA
:10339000007830B100BF2046FEF772FE00BF0D205E
:1033A000E5E700BF2046FEF76BFE00BFFFF704FC19
:1033B0000020DCE770B5044600268D48007808B18F
:1033C000272070BD00BFFEF757FE064600BFDCB1E8
:1033D00000BF8C48007830B100BF3046FEF750FE89
:1033E00000BF0720EDE700BF06208749096881F884
:1033F000500021468448006800F02DFB8248016897
:103400007E48FFF733F904E07F4801687B48FFF707
:1034100069F900BF3046FEF733FE00BFFFF7CCFB73
:1034200034B1002178480068FFF742FE054600E00D
:1034300000252846C5E72DE9F04705460E4690468B
:1034400099466B48007810B12720BDE8F08742F21A
:103450000F70864201D93B20F7E7B5F57A7F01D39B
:103460003A20F2E764244FF4FA70B0FBF4F04844D9
:1034700060434FF47A71B0FBF1F14FF4616068433F
:10348000C6EB061200EB8200404400FB04171FB19C
:103490003846FFF78FFFD8E73C20D6E770B50446E3
:1034A000002500BFFEF7E8FD054600BF564800684E
:1034B00084420BD100BF5348007830B100BF28468A
:1034C000FEF7DEFD00BF072070BD00BF94F850007E
:1034D000082832D2DFE800F004141A2320220E213B
:1034E0000120E076042084F8500021464348FFF78D
:1034F000BDF829E00120E076072084F8500023E0A1
:103500000120E076052084F850001DE00120E076DF
:10351000032084F8500017E000BF00BF00BFE07E2A
:10352000401CE076E07EFA2806D300BF2846FEF76E
:10353000A7FD00BF1120C7E706E000BF2846FEF741
:103540009FFD00BF1020BFE700BF00BF2846FEF769
:1035500097FD00BFFFF730FB0020B5E710B504462C
:103560000CB9252010BD607E132801D12E20F9E76B
:103570002046FFF793FFF5E770B50446002500BF2E
:10358000FEF77AFD054600BF94F85000082846D2A1
:10359000DFE800F00406073C0E24051B00BF00BF57
:1035A00000BF00BF2846FEF76BFD00BF122070BDB4
:1035B000E07E401EE076E07E30B9002084F85000C6
:1035C00021460E48FFF73FF830E0E07E401EE076EF
:1035D000E07E10B9062084F8500027E0E07E401E0F
:1035E000E076E07E10B9012084F850001EE0000073
:1035F0007B00002079000020B0000020141400207F
:10360000780000207A00002080000020E07E401E2C
:10361000E076E07E10B9022084F8500006E000BF9A
:103620002846FEF72DFD00BF1020C0E700BF00BFF9
:103630002846FEF725FD00BFFFF7BEFA0020B6E7DB
:1036400010B504460CB9252010BD2046FFF794FFA5
:10365000FAE770B504460D46002600BF94F8500006
:10366000082829D2DFE800F0041B1C1E181D1719BA
:103670002146F248FEF7FAFF6576F1480068844279
:1036800004D12146ED48FEF7B6FF03E02146EB48A2
:10369000FEF7C5FF12E000BF00BF65760EE000BF79
:1036A00000BF00BF667E65762046FFF7DDF8314635
:1036B0002046FEF7DDFD01E0102070BD00BF0020B8
:1036C000FBE72DE9F84304460D4616460027B846A9
:1036D00000BFDC48007810B12720BDE8F8830CB9A2
:1036E0002520FAE70EB92520F7E7607E132801DBD5
:1036F0002B20F2E7132D01D12B20EEE700BFFEF7C0
:10370000BBFC804600BF6A4629462046FEF738FDCE
:103710000746BDF8000000B115E0A5763D46607E85
:10372000307029462046FFF794FF0090BDF8000056
:1037300000B108E000BF4046FEF7A2FC00BFFFF763
:103740003BFA0020C9E700BF4046FEF799FC00BFE6
:10375000BDF80000C1E770B5044600250CB925206E
:1037600070BDB848007808B12720F9E7607E1328BB
:1037700001D12D20F4E700BFFEF77EFC054600BF17
:10378000AF48006884420BD100BFAF48007830B129
:1037900000BF2846FEF774FC00BF0720E0E700BF2B
:1037A0002046FEF7ADFE94F85000082820D2DFE84E
:1037B00000F0040F111209100A0B21469F48FEF772
:1037C00055FF1CE01BE000BF204600F054F916E056
:1037D00000BF00BF00BF204600F04DF9201D00F0E3
:1037E00026F9082084F850002046FEF779FD06E00F
:1037F00000BF2846FEF744FC00BF1020B0E700BF22
:10380000082084F8500004F1200000F010F900BFF7
:103810002846FEF735FC00BFFFF7CEF900209FE7F2
:103820002DE9F04104460D461646002700BFFEF77D
:1038300023FC074600BF04F10C0040F8265000BFEF
:103840003846FEF71DFC00BFBDE8F081024602F1DC
:103850000C0050F82100704770B504460D46002654
:103860000CB9252070BD7748007808B12720F9E70A
:1038700000BFFEF701FC064600BF0DB1656101E027
:10388000322060616069206100BF3046FEF7F8FBBE
:1038900000BF0020E6E770B505460C4600260DB9CE
:1038A000252070BD012C03D0022C01D02620F8E782
:1038B0006448007808B12720F3E700BFFEF7DCFB7F
:1038C000064600BF2C7600BF3046FEF7D9FB00BF8E
:1038D0000020E6E770B504460D4600260CB9252009
:1038E00070BD0DB92520FBE75648007808B12720A8
:1038F000F6E700BFFEF7C0FB064600BF207E28703B
:1039000000BF3046FEF7BCFB00BF0020E8E770B503
:10391000044600250CB9252070BD4A48007808B13E
:103920002720F9E700BFFEF7A7FB054600BF94F884
:103930005000082836D2DFE800F0041E1F1D051CC9
:103940000D0E36E0002084F8500021463B48FEF77B
:103950007AFE2EE000BF204600F08DF82146374861
:10396000FEF771FE002084F85000012084F8510019
:103970001FE000BF00BF00BF204600F07CF8201D04
:1039800000F055F821462D48FEF75DFE002084F832
:103990005000012084F851002046FEF7A1FC0020D1
:1039A000606506E000BF2846FEF76AFB00BF1020F6
:1039B000B2E700BF00BF2846FEF762FB00BFFFF77B
:1039C000FBF80020A8E71E48006870472DE9F04783
:1039D00004460E4617464FF000091A48007810B109
:1039E0002720BDE8F08700BFFEF746FB814600BFF9
:1039F00025680AE0D5F800800EB1281FB0471FB136
:103A00002168081FFEF7B8FE4546A542F2D100BF67
:103A10004846FEF735FB00BFFFF7CEF80020E0E791
:103A20004FF4457000F520700830801C7047D0E9D5
:103A300000121160D0E90021516070471414002079
:103A4000800000207B0000207A0000206348006096
:103A5000406000BF704770B504460D4655B16048E0
:103A600000682844A063E5635C4E2146304600F0C0
:103A70008FF8266470BD70B50446256C2DB104F135
:103A8000300000F07EF80020206470BD2DE9F8437E
:103A90004FF0000800BFFEF7EFFA804600BF504825
:103AA0000068401C4E4908604C4E356860E0B542E5
:103AB0005DD02F68A5F130044949A06B09688842A0
:103AC00054D194F85000022813D0032827D0062898
:103AD00002D007283FD134E0002084F8510084F858
:103AE00050002046FFF7C7FF21463E48FEF7ABFDDA
:103AF00039E02046FFF7BFFF201D00F042F82146C5
:103B00003848FEF7A0FD022084F85100002084F818
:103B100050002046FEF7E4FB0020606523E02046CD
:103B2000FFF7A9FF201D00F02CF8022084F85100B7
:103B3000042084F850002046FEF7D2FB0020606588
:103B400011E0042084F85000002084F85100204641
:103B5000FFF791FF07E00020009000BF9DF80000F4
:103B60000028FBD000BF00BF3D4601E001E000E0BF
:103B70009DE700BF00BF4046FEF782FA00BFBDE8E8
:103B8000F883D0E900121160D0E90021516070473C
:103B9000F0B502460B4614461746DE6B38680CE05B
:103BA000A0F13005DFF838C0A96BDCF800C0A1EB4C
:103BB0000C01B14200D902E00068A042F0D100BF80
:103BC00003F13001D0F804C0C1F804C00860D0F897
:103BD00004C0CCF80010416000BFF0BD940000208C
:103BE000900000201414002010B59D4800F034F916
:103BF00010BDF0B50246134616468D6930680BE0DD
:103C00000446DFF860C26769DCF800C0A7EB0C0768
:103C1000AF4200D902E000689842F1D100BF00BF76
:103C200047684F60086047683960416000BFF0BD79
:103C3000816849B100BFD0E900231A60D0E90032A1
:103C40005A6000BF002282607047F8B504460E46F5
:103C50000CB92520F8BD8448007808B12720F9E781
:103C600094F82900182801D03620F3E794F82800AA
:103C7000022801D12120EDE794F82800032801D182
:103C80002120E7E766624FF0FF317848FEF73BFB03
:103C900005463DB10020009000BF9DF800000028BF
:103CA000FBD000BF6F49E069096808446061E069C2
:103CB000A0616B48A0602146FFF79BFF022084F8BB
:103CC00028006A48FEF7B6FB0020C3E72DE9F0475D
:103CD00004460F4615461E46DDE9099ADDF82080A8
:103CE00014B92520BDE8F0870DB92320FAE7B8F113
:103CF000000F01D12220F5E75B48007808B12720AA
:103D0000F0E7E76025616662C4F81C80C4F8209083
:103D10000020A0616061012084F828000020A060DC
:103D2000204600F099F8182084F82900BAF1000F15
:103D300003D031462046FFF788FF0020D2E708B5C0
:103D400000214B48FFF7F8F800BF56E04FF0FF3175
:103D50004748FFF79FF84FF0FF314448FEF7D3FA8A
:103D600007463FB10020009000BF9DF800000028EA
:103D7000FBD000BF3B480068401C3A490860384D02
:103D80002E6835E0AE4232D0D6F800903446354940
:103D900060690968884229D12046FFF749FF206AF7
:103DA00060B1206AA0612F49A06909680844606178
:103DB0002B48A0602146FFF71CFF02E0012084F899
:103DC0002800206980B12169606A88478046B8F17F
:103DD000880F09D194F82800012805D02046FFF764
:103DE00027FF012084F828004E4601E001E000E0B2
:103DF000C8E700BF1D48FEF71DFBA7E710B51D482B
:103E00000068401E1B4908600846006820B9012070
:103E100008601748FEF7FDFF10BD00B585B0012012
:103E200014490860FFF7E0FE0120AFF2ED018022A7
:103E3000114BCDE90132CDE90310002005230246E4
:103E40000EA100901148FFF7C1F9002210A1084807
:103E5000FEF77EFF05B000BD0060406070470000C7
:103E60009C000020A40000207B000020841900207A
:103E70006C190020A80000206C17002074696D6583
:103E8000725F6F626A65637400000000141700209F
:103E900074696D65725F73656D00000002461146BE
:103EA00000E0491C087810B108782028F9D1881A58
:103EB000C0B2704708B538B90022009200BF9DF823
:103EC0000020002AFBD000BF39B90022009200BFB9
:103ED0009DF80020002AFBD000BF086000224A6045
:103EE0007A4A12685160794A116008BD0146002083
:103EF000012209E00B78202B04D122B1431C58B2D7
:103F0000002200E00122491C0B78002BF2D17047FF
:103F10002DE9F84F05460E4617464FF000083DB90B
:103F20000020009000BF9DF800000028FBD000BFDB
:103F30003EB90020009000BF9DF800000028FBD093
:103F400000BF3FB90020009000BF9DF8000000288E
:103F5000FBD000BF5E48006878BB5E485C490860E3
:103F600031E05B4800680068D0F800904846FFF7F1
:103F700095FF82462846FFF791FF0446544501DD30
:103F8000A34600E0D3465A464946284600F023F9A6
:103F9000A0B94F480068006890F90C0000280BDBBE
:103FA0002846FFF7A3FF4A490968096891F90C10F0
:103FB000884201D04FF0010809E009E04448006858
:103FC000406843490860424800680028C9D100BFE2
:103FD0003F48006858B1B8F1010F08D13A463E4950
:103FE000304600F0BCF80020394908601EE038482F
:103FF0000068A0B13A4600213046FCF708FA344880
:10400000006800682A4639468368304698478046EB
:10401000B8F1010F0AD100202D49086006E03A46A8
:104020002E49304600F09BF84FF001084046BDE8AD
:10403000F88F30B5034600240020002515601FE0EE
:1040400000E05B1C1D7815B11D78202DF9D100E032
:104050005B1C1D7815B11D78202DF9D01D7875B128
:10406000641C8C420CD1184603E015686D1C156069
:104070005B1C1D7815B11D78202DF6D102E001E002
:104080008C42DDDB00BF30BD2DE9F04106460D4618
:1040900017461348006810B90E48114908601048C7
:1040A000006800682A464168304600F058F80C481D
:1040B000006840680A4908600846006808B9012499
:1040C00000E000242046BDE8F0810000C000002090
:1040D000C4000020B8000020CC5C0008285D000867
:1040E000C800002070B588420BD803460C4603E098
:1040F00014F8015B03F8015B1500A2F10102F7D18E
:104100000EE0034613440C46144405E0651E2C469D
:104110002E785D1E2B462E701500A2F10102F5D1FE
:1041200070BDF0B5034600201C460D4608E0267819
:104130002F78F61B300000D004E0641C6D1C521E6A
:10414000002AF4D800BFF0BD10B50246104600BFEB
:1041500011F8014B02F8014B002CF9D110BD10B53C
:10416000034605E00C781C7004B1491C5B1C521E10
:10417000002AF7D110BD10B50246104600E0521CCF
:104180001378002BFBD100BF11F8014B02F8014B53
:10419000002CF9D110BD30B5034618468AB100E0B5
:1041A0005B1C1C78002CFBD104E0541E220001D1C2
:1041B0001C7005E011F8015B03F8015B002DF4D1E0
:1041C00000BF30BD01460A4600E0521C10780028AE
:1041D000FBD1501A704730B503460C460FE013F878
:1041E000011B14F8015BA94206D0A94202DA4FF084
:1041F000FF3030BD0120FCE701B902E0521E002A69
:10420000EDD100BF0020F4E710B502460B460EE0EA
:1042100012F8011B13F8014BA14206D0A14202DAA9
:104220004FF0FF3010BD0120FCE701B900E0EFE7DF
:1042300000BF0020F6E72DE9F04103460C464EA7EB
:1042400000254FF0010C00E05B1C18782028FBD003
:1042500018780928F8D018782B2804D02D2804D1F4
:104260004FF0FF3C00BF5B1C00BF00BF00BF102A27
:1042700011D1187830280ED15B1C1878612805DB25
:1042800018787A2802DC1878203800E01878582846
:1042900000D01DE05B1CAAB91878302811D15B1C36
:1042A0001878612805DB18787A2802DC187820381D
:1042B00000E01878582802D15B1C102202E0082286
:1042C00000E00A22022A01DB242A00DD0A2200BFC4
:1042D0001CE03E46002110E01878612805DB1878C4
:1042E0007A2802DC1878203800E0187896F80080E8
:1042F000404500D103E0761C491C9142ECDB00BF35
:10430000914200DB06E005FB02155B1C18780028D3
:10431000DFD100BF04B1236005FB0CF0BDE8F081E4
:10432000F0B504460E463046FFF74CFF07461EE048
:1043300020783178884213D1254600E06D1C28781A
:10434000202802DD28782328F8D1281BB84207D17D
:104350003A4631462046FFF7E4FE08B92046F0BD54
:1043600000BF207818B114F8011B0A29F9D1207870
:104370000028DDD100BFF2E7303132333435363733
:1043800038394142434445464748494A4B4C4D4ED3
:104390004F505152535455565758595A0000000027
:1043A0001CB50C46064B7B4469460090204600F045
:1043B000C2F804460020694600F0D0F820461CBD33
:1043C000B301000070477047704770B504468569B7
:1043D0000068C10601D5302600E02026C00707D0BE
:1043E00070BDD4E9012130469047206A401C20620C
:1043F0006D1EF6D570BD70B5044685690078C0079E
:1044000007D170BDD4E9012120209047206A401CCB
:1044100020626D1EF6D570BD09684A0501D540B20F
:104420007047C905FCD500B2704709684A0501D537
:10443000C0B27047C905FCD580B2704770B50C4654
:104440000546012A05D02878800600D5EA690023B0
:1044500002E0012305E05B1C934202D2E05C0028ED
:10446000F9D1A869E618C01AA861286A1844286218
:104470002846FFF7AAFF04E0D5E9012114F8010B53
:104480009047B442F8D32846FFF7B5FF70BD00004F
:104490002DE9F0410646002410687529314615A51E
:1044A00010D0FFF7B9FF002802DA404212A507E05A
:1044B00031688A0701D511A502E0490704D510A586
:1044C000012401E0FFF7B1FF00210A2306F12407D0
:1044D00007E0B0FBF3F203FB1200303078541046D3
:1044E000491C0028F5D123462A463046BDE8F04154
:1044F00000F05FBA000000002D0000002B0000005B
:104500002000000011680268006A530501D5087098
:104510000AE0D30501D5088006E0130603D5C217CB
:10452000C1E9000200E008600120704701694A1CEF
:1045300002610878704700B58FB0CDE901310021E4
:10454000059105497944CDE903101146684600F00C
:1045500027F90FB000BD0000E5FFFFFF0A6802F871
:10456000010B0A60704700002DE9FF5F15468A467F
:104570000446DFF8AC80F8440027D8E900103E4636
:10458000CDE9001010E03AF816106A4602A800F0D3
:10459000A0FC411C07D02178890603D5E2693918AF
:1045A00091420DD80744761C2078800602D5E06938
:1045B000B84205DDAE42E6DB3AF816000028E2D14B
:1045C000A069C01BA0612046FFF7FFFED8E90010DC
:1045D000CDE90010002017E03AF818106A4602A84A
:1045E00000F077FCB0F1FF3F81460BD000250DF1C4
:1045F000080B05E0D4E901211BF8050090476D1C6C
:104600004D45F7D308F10100B0428046E4DB206A53
:10461000384420622046FFF7EEFEBDE8FF9F000011
:10462000A21400002DE9F0418046D21D22F00702BD
:104630000025D2E90002F52914A612D0002A06DAD4
:104640000023D0EB030063EB020211A608E0D8F8C8
:1046500000108B0701D50FA602E0490701D50EA671
:1046600001251146002408F1240704E000F05CF95C
:1046700030323A55641C50EA0102F7D12B463246DB
:1046800021464046BDE8F04100F093B9000000002B
:104690002D0000002B0000002000000030B400219D
:1046A00000F1240408E002F00705D208303542EAA0
:1046B0004372DB086554491C52EA0305F3D10468D0
:1046C000002310A2250708D504F020040C4304D0D1
:1046D000C46901230CA2641EC46130BC00F069B936
:1046E00010B5044621461068FFF79FFE024620469B
:1046F000BDE810400023D1E7D21D22F00701D1E927
:104700000023CBE70000000030000000F0B40D46AD
:104710000188090502D5214C7C4402E01F4C7C44F1
:104720000E34002100F1240608E002F00F07120900
:10473000E75D42EA03721B097754491C52EA0307FA
:10474000F3D102780023120704D5702D06D009B1E9
:10475000022311342246F0BC00F02BB9012310349F
:10476000F8E770B504460D4621461068FFF75DFE78
:10477000024629462046BDE870400023C6E7D21D08
:1047800022F00703D3E90023C0E70368126843F06F
:10479000200303600823C3610023B7E70813000068
:1047A0002DE9F05F894604464FF0000ADFF874B146
:1047B000FB44C0F820A02046E1688847002874D058
:1047C000252806D0D4E901219047206A401C2062A8
:1047D000F1E700265F462046E16888472028054625
:1047E00007DB312D05D2781910F8200C08B10643EB
:1047F000F1E7B00701D526F00406C4F81CA0002795
:10480000C4F818A02A2D09D0284601F083F838B33F
:1048100004EB8708303DC8F8185019E059F8041B1C
:10482000204604EB87029161E1688847012F054625
:1048300018D1E069002820DA26F020061DE0D8F81B
:10484000180000EB800005EB40003038C8F8180075
:104850002046E1688847054601F05CF80028EED163
:10486000012F0AD02E2D08D12046E16888477F1CF1
:104870000546022F46F02006C4DBA069002803DAB3
:10488000404246F00106A061F00701D026F0100674
:104890006C2D0BD0682D09D04C2D39D06A2D35D018
:1048A000742D35D07A2D33D016E038E0E1682F46EC
:1048B00020468847B842054609D16C2F26D04FF4D0
:1048C0008060E168064320468847054604E06C2F77
:1048D0001AD04FF4807006430DB3A5F1410019289A
:1048E00002D8203546F400664A462946204626600E
:1048F0004E46FBF783FC80B101280BD0F61D26F055
:10490000070000F1080956E74020E4E78020D8E7D7
:104910000020D6E706F104094DE7284652E7206A51
:10492000BDE8F09F9812000030B5B0F10A024FEADE
:10493000900E71F100034EEA817EB0EB0E0061EB48
:1049400091014FEA101E4EEA017E10EB0E0041EB82
:1049500011114FEA102E4EEA016E10EB0E0041EBE2
:1049600011214FEA104E4EEA014E10EB0E0041EBC2
:104970001141401841F100014FEAD00040EA417076
:104980004FEAD10110EB80054FEA810444EA9074AC
:1049900044EB01046D1944EB0404521BA3414FF096
:1049A000000348BF0A3200D530BD401C41F1000170
:1049B00030BD2DE9F0470D4699469246044600F178
:1049C00024080168880604D5E06921F010012160FF
:1049D00000E00120A84201DD471B00E00027A1699B
:1049E0007A1902EB0900081AA0612078C00602D4E7
:1049F0002046FFF7EAFC002608E0D4E901211AF876
:104A000006009047206A401C761C20624E45F4DB6D
:104A10002078C0060AD52046FFF7D7FC06E0D4E987
:104A2000012130209047206A401C2062381EA7F1E7
:104A30000107F4DC07E0D4E9012118F805009047EC
:104A4000206A401C2062281EA5F10105F3DC2046E7
:104A5000FFF7D1FC2078000602D50220BDE8F087E0
:104A60000120FBE770472DE9FF4F0C461E464FF033
:104A7000FF378BB0D2E90001DDF860800A908A46EA
:104A8000C1F30A5505B93D46002108464FF0000024
:104A9000BAF1000F00F4400005DA00EB80004FF49B
:104AA000400101EA50004FEA9059B9F1010F00DDD1
:104AB000B9460A9850EA4A000ED044F61050A5F2C2
:104AC000FF3545432F14B8F1000F1ED07542291E43
:104AD0001EDDC9F100021CE0B8F1010F4FF000002B
:104AE00001D0302103E0F24305E02154401CB042E4
:104AF000FBDB30460022002121540B99C1F80880CD
:104B0000C1E900200FB0BDE8F08FBD1B6D1CDEE7D2
:104B10004A4600DA694206A800F06CFA06AB93E850
:104B2000070003AB83E8070050460A9900F01FFB1B
:104B30008DE80700A0F500501F3800900398002D65
:104B400009DD42F21F014A46084403A90390684662
:104B500000F07EFD08E0A0F500504A461F3803A98A
:104B60000390684600F088FD8DE807000004000C03
:104B700003D04FF0FF30410800E01046B8F1000FBD
:104B800003D00022009215461EE0751E05D4FFF7E3
:104B9000CBFE303262556D1EF9D5B3460122084373
:104BA00002D000227F1C04E02078302801D10022AE
:104BB0007F1E002A099786D01DE0112D07DAFFF726
:104BC000B3FE303262556D1C50EA0102F5D1084344
:104BD00002D00098C8B10EE00021681E05E0235CF9
:104BE000625C63542254401E491C8142F7DBAB4691
:104BF000A81B401E0990002004F80B000B98099A8E
:104C0000C0F80880C0E9002B7CE711264FF00008AF
:104C100059E72DE9F04F88460446D21D22F00701DE
:104C200091B0D1E90001CDE90A0100F05BFE024636
:104C30000B98C00F01D02D2007E02068810701D517
:104C40002B2002E0202101EAC000032A099001D0B4
:104C5000072A05DB03464146204600F08BF909E1AF
:104C60002078800601D5E06900E00620B8F1650FE4
:104C7000814606D0B8F1660F18D0B8F1670F70D131
:104C800031E00020B9F1110F009001DB112301E0A8
:104C900009F101030AAA01A90CA8FFF7E4FEDDE966
:104CA0000C70002609F10105834647E001204B46C0
:104CB00000904FF000470AAA01A90CA8FFF7D3FE05
:104CC000DDE90DB00C995D46002610B909F101002F
:104CD0000D18B9EB050003D4C0F1FF3609F1010549
:104CE000A5EB09002BE0B9F1010F01DA4FF0010942
:104CF0000020B9F1110F0090484601DD112300E0BA
:104D000003460AAA01A90CA8FFF7ADFEDDE90C7065
:104D10004D4600268346207800070AD4AB4500DACA
:104D20005D4601A8012D04DD411911F8011C30294F
:104D300007D04F4502DA17F1040F04DA012082464A
:104D40000FE06D1EEEE7002F02DCED1B3E4403E09A
:104D5000781CA84200DD7D1CB81B00F1010A4FF051
:104D600000472078000703D4AA4501DB4FF0FF3A43
:104D70000021B7F1004F0DF143088DF8431022D008
:104D800002202B23002F01DA7F422D234FF00A0C43
:104D9000011EA0F1010000DC47B197FBFCF10CFB08
:104DA00011720F46303208F8012DF1E7A8F1010029
:104DB00003702188090501D5452100E06521A0F196
:104DC000010800F8011C09980FA9A1EB0807FF1DB5
:104DD00000B10120411901EBEA70A1693844081AB9
:104DE000401EA0612078C00602D42046FFF7EDFAED
:104DF000099828B1D4E901219047206A401C20621B
:104E00002078C00622D52046FFF7DFFA1EE0002EEC
:104E100004DBB34502DD01A8805D00E03020D4E969
:104E200001219047206A401C2062761CAAF10100F3
:104E30005FEA000A0AD100F099F8C0680168405C96
:104E4000D4E901219047206A401C2062281EA5F168
:104E50000105DCDC07E0D4E9012118F8010B9047DB
:104E6000206A401C2062381EA7F10107F3DC2046AF
:104E7000FFF7C1FA022011B045E610B5436913B13E
:104E8000AFF3008001E0FFF7D9FA012010BD1278DE
:104E900000F124010A7000224A700122EDE7116836
:104EA0004FF0FF32E9E710B5436913B1AFF300806B
:104EB00001E0FFF759FB012010BD128800F1240129
:104EC00082840022C2840122EDE711684FF0FF3294
:104ED000E9E770B516460C46054600F03FF8036852
:104EE00093F80101012806D0FF2C0FD8185D68B196
:104EF00001202C7070BDD3F80701324621460344CF
:104F00002846BDE8704003F2071318474FF0FF3002
:104F100070BD754600F0E0F8AE46050069465346A0
:104F200020F00700854618B020B5FBF7B1FFBDE8BB
:104F300020404FF000064FF000074FF000084FF000
:104F4000000B21F00701AC46ACE8C009ACE8C00991
:104F5000ACE8C009ACE8C0098D46704710B500F058
:104F600005F8001D10BD00BFE909000000487047AA
:104F7000C01900202DE9F0411F46044603260168B0
:104F8000072A01F4006004DB08B116A505E016A5A8
:104F900003E008B115A500E015A521F01000206080
:104FA000A069C01EA0610FB1401EA0612046FFF79E
:104FB0000CFA4FB1D4E9012138469047206A401CD1
:104FC0002062C01C206206E0206AFAE7D4E90121D1
:104FD00015F8010B9047761EF8D22046FFF70BFA22
:104FE000BDE8F0814E414E006E616E00494E4600B4
:104FF000696E66002DE9F047814616468AB0324850
:1050000078440DC88DE80D002F487844801C03AC0F
:105010000DC884E80D0041F69B303722014491FB16
:10502000F2F0A0F1800502FB10141B3C02D5644293
:10503000012000E00020DFF890A080460027FA441D
:10504000AAF1BA0A0DE0E00709D03246684607EB3C
:1050500047010AEB810100F00FFB8DE807006410A7
:105060007F1C002CEFD1184F7F44A83F18E0E807C1
:1050700014D007EB04100DF1180A90E80E008AE82E
:105080000E00C068F04201D198190890324606A976
:1050900003A800F0F1FA03AB83E807006D10641C6D
:1050A000002DE4D132466946B8F1000F03A802D0C2
:1050B00000F0CEFA01E000F0DFFAC9E90001C9F81A
:1050C00008200AB0BDE8F087D80A00000446AFF314
:1050D00000802046FBF7F7F800487047A019002031
:1050E0004FF0013C50F8042B51F8043B9A4221D177
:1050F000A2EB0C03934313EACC1317D150F8042B03
:1051000051F8043B9A4215D1A2EB0C03934313EAE6
:10511000CC130BD150F8042B51F8043B9A4209D11F
:10512000A2EB0C03934313EACC13DBD04FF0000047
:10513000704700BFD01A01BAB1FA81F101F018012D
:1051400022FA01F0CB40C1F12001DBB2C0B2C01A9B
:105150002CFA01F3D11A914311EAC311E6D1704739
:1051600001491820ABBEFEE72600020070475FEA47
:10517000400C08BF91F0000F4FEA8C234FEAC12288
:1051800043EA51514FEA1C5018BF00F5F0404FEA76
:10519000300018BF41F000415FEA6C5C00F02980EC
:1051A000BCF1FF3F08BF40F080407047130C06BFC2
:1051B00012044FF0100C4FF0000C130E04BF12023B
:1051C0000CF1080C130F04BF12010CF1040C930F27
:1051D00004BF92000CF1020CD30F04BF52000CF17B
:1051E000010C11464FF00002A0F11F00A0EB0C00D3
:1051F000704711F0004F08BF704731F000413FF495
:10520000D5AF0B0C06BF09044FF0100C4FF0000C8B
:105210000B0E04BF09020CF1080C0B0F04BF0901AF
:105220000CF1040C8B0F04BF89000CF1020CCB0FA6
:1052300004BF49000CF1010CCCF12003A0EB0C00E1
:1052400022FA03F302FA0CF241EA030100F1010031
:10525000704720F07F4C80EA030023F07F47ACEBDF
:10526000070303F57C5300F0004003F1FF032DE931
:1052700080494FEA154B09B44FEA144325EA0B4E17
:1052800024EA03480FF2042606EB132749083E7868
:105290005FEA320203FB0667C7F5000707FB06F665
:1052A0004FEA54374FEAD64606F1020607FB066C72
:1052B000CCF1005C4FEA1C472CEA074C07FB06F4D4
:1052C0000CFB06F504EB15464FEA961634BF00209A
:1052D0004FF000404FEAD13706FB07FC4FEA1C4C69
:1052E0000CFB0BF7D21B03FB0CF761EB07010CFB6C
:1052F0000EF7B0EB074072EB17420CFB08F734BF18
:10530000A2EB0742B2EB074261EB17414FEA0C44B4
:105310004FEA910706FB07FC4FEA1C4C0CFB0BF70E
:10532000B0EBC74072EB573203FB0CF734BFA2EB74
:10533000C742B2EBC74261EB57310CFB0EF7B0EB43
:10534000C70072EB57720CFB08F734BFA2EBC70221
:10535000B2EBC70261EB5771039F4FEA816141EAEB
:10536000921104EBCC044FEAD1374FEA826206FB7C
:1053700007FC42EA90124FEA80604FEA1C4C0CFB9B
:105380000BF7D21B03FB0CF761EB07010CFB0EF7CD
:10539000B0EB074072EB17420CFB08F734BFA2EBEF
:1053A0000742B2EB074261EB17414FEA8C554FEAD7
:1053B000910704EB9C2406FB07FC4FEA1C4C0CFBFA
:1053C0000BF7B0EBC74072EB573203FB0CF734BF5F
:1053D000A2EBC742B2EBC74261EB57310CFB0EF7B1
:1053E000B0EBC70072EB57720CFB08F734BFA2EBAF
:1053F000C702B2EBC70261EB577115EB4C254FEAC0
:10540000816141EA92114FEA82624FEAD13742EA62
:10541000901206FB07FC44F100044FEA80604FEA5B
:105420001C4C0CFB0BF7D21B03FB0CF761EB0701C9
:105430000CFB0EF7B0EB074072EB17420CFB08F7C2
:1054400034BFA2EB0742B2EB074261EB174115EB09
:105450001C154FEA813141EA92414FEA823242EA19
:1054600090424FEA80304FEA0C7644F1000448EA5B
:1054700003434EEA0B484FF0000EB2EB080C71EB01
:10548000030724BF624639464EEB0E0E4FF0000B69
:105490000018524149414BEB0B0BB2EB080C71EB7E
:1054A00003077BF1000B24BF624639464EEB0E0E1C
:1054B0004FF0000B0018524149414BEB0B0BB2EB84
:1054C000080C71EB03077BF1000B24BF62463946E1
:1054D0004EEB0E0E51EA020718BF46F0010616EB1E
:1054E0000E7655F1000254F1000103D5BDE88901A3
:1054F000BDE80088BDE88901B619BDE80048524101
:1055000041EB0101A3F10103704780807F7E7D7C28
:105510007B7A7978777676757473727171706F6E45
:105520006E6D6C6C6B6A6A696868676666656464F0
:10553000636362616160605F5F5E5E5D5D5C5C5B7A
:105540005B5A5A59595858575756565555555454E9
:10555000535352525251515050504F4F4F4E4E4D47
:105560004D4D4C4C4C4B4B4B4A4A4A494949484893
:1055700048474747474646464545454444444443D3
:1055800043434342424242414141002B26D47700EB
:1055900021D01CB54FEA370703B44FF010004FF08D
:1055A00010014FF000000FBC0BF1010BBDE81040E3
:1055B000BBF1010F08BF5FEA170722BF12F101021A
:1055C00011F101014FF0004143F1000300F00040F0
:1055D00043EA00007047F9D35708DAE746EA06467F
:1055E00013F1400F4FEA16461FDD13F1200FDFBF06
:1055F00016430A46002120335B42C8D0C3F120077E
:1056000046EA064602FA07F74FEA164646EA070652
:10561000C3F1200722FA03F201FA07F721FA03F196
:105620004FF0000342EA0702B1E746EA020646EA03
:1056300006464FEA164646EA0106BCBF46EA06465B
:10564000360C4FF000034FF000024FF000019EE7D0
:105650002DE9C048934630B491E8380007C831EAD4
:10566000400C48BF34EA430C03D5FFF7F2FDFFF7C7
:105670008CFFF0BCBDE800882DE9C048934630B4EB
:1056800091E8380007C810F0804F08BF13F0804F32
:1056900003D100F005F8FFF778FFF0BCBDE8008803
:1056A00020F07F4780EA030023F07F4C07EB0C03D8
:1056B000A3F57C5300F00040A3F1FE0392F0000F2D
:1056C00000F0B38095F0000F00F077802DE90149DC
:1056D0004FEA11404FEA144621EA004800FB06FC5D
:1056E00024EA064708FB06F607FB08F800FB07F765
:1056F00018EB06484CEB164C4FEA124B18EB0748D8
:105700004FEA15464CEB174022EA0B4E0BFB06FC0A
:1057100025EA06470EFB06F607FB0EFE0BFB07F716
:105720001EEB064E4CEB164C4FF000061EEB074EE0
:105730004CEB174B18EB0B0840F1000018EB0E0B6D
:1057400058EB000840F100008F1A4FF000013CBFF9
:10575000C943661B14BFB5EB040C00213CBFC94311
:10576000F61B4FEA17444EEA8E0E27EA04454FEA2D
:105770001C4704FB07622CEA074C05FB07F70CFBF0
:1057800005F604FB0CFC16EB074642EB174216EB42
:105790000C4642EB1C421BEB060658EB0202414151
:1057A00046EA9E0601D5BDE80189B619524141EB92
:1057B0000101A3F10103BDE801894FEA14454FEA55
:1057C000114724EA054621EA074C05FB07F406FBCE
:1057D00007F70CFB06F105FB0CFC11EB074144EB52
:1057E00017444FEA124711EB0C4144EB1C4422EAE8
:1057F000074C05FB07F206FB07F70CFB06F605FB5B
:105800000CFC16EB074642EB174216EB0C4642EB3C
:105810001C456A1854F1000148BF7047B61952413F
:1058200041EB0101A3F10103704795F0000F37D060
:105830004FEA11424FEA144721EA024624EA074C94
:1058400002FB07F106FB07F70CFB06F402FB0CFC5E
:1058500014EB074441EB17414FEA154714EB0C4496
:1058600041EB1C4125EA074C02FB07F506FB07F755
:105870000CFB06F602FB0CFC16EB074645EB174546
:1058800016EB0C4645EB1C42121951F1000148BFC2
:105890007047B619524141EB0101A3F10103704772
:1058A0004FEA14454FEA114724EA054621EA074C1E
:1058B00005FB07F106FB07F70CFB06F24FF00006AD
:1058C00005FB0CFC12EB074241EB174112EB0C42BB
:1058D00051EB1C4148BF7047921841EB0101A3F105
:1058E0000103704703B401984100009850EAC120B9
:1058F00018BF04204A0D18BF40F0010040F2FF72AB
:10590000B2EB515F08BF40F00200012808BF05203C
:1059100002B0704730380A2801D2012070470020B9
:105920007047000010B500290AD00878002807D079
:1059300005487844FFF7D4FB002801D0002010BDB3
:105940000248784410BD00009E0400009604000048
:1059500010B500290AD00878002807D005487844F7
:10596000FFF7BEFB002801D0002010BD024878449C
:1059700010BD00008E040000860400004FF040704F
:10598000E1EE100A7047FFF744B90000B45B00086D
:10599000F45A00088106000802000000C45B0008F9
:1059A0008C5B00086507000800000000B85B000879
:1059B0003C5B00089707000800000000D05B00086F
:1059C000645B0008A907000800000000845C000870
:1059D0004C5C0008C1080008000000007C5C000866
:1059E000145C000807090008000000008C5C000837
:1059F000DC5B00084F09000800000000C45C0008E0
:105A0000945C0008FD09000800000000A85D000883
:105A10007C5D0008894000080000000000000000D4
:105A200000000000303132333435363738394142E6
:105A300043444546403058003031323334353637F0
:105A4000383961626364656640307800040000089C
:105A50000000000000000002000100001000000033
:105A600002400000000000A000000000054000000F
:105A7000000000C8000000000C4000000000409C36
:105A800000000000194000000020BCBE0000000023
:105A900034400000BFC91B8E00000004B540000068
:105AA000504BCFD06607E2CF010000006C410000F0
:105AB0003E8251AADFEEA73401000000D942000067
:105AC000DCB5A0E23A301F97FFFFFFFFB4450000AE
:105AD000FD25A0C8E9A3C14FFFFFFFFFFF3F000066
:105AE0000000008000000000FF3F00000000008078
:105AF000000000006C65643A202020202020202037
:105B00002020203C6C6564206E756D6265723E20BD
:105B10003C6F6E206F72206F66663E206C6564205D
:105B20006E756D62657228312C32292C6F6E2831AA
:105B3000292C6F66662830292E0000006C65645F92
:105B400073746F703A20202020202073746F7020AF
:105B500020206C6564207761746572207461736BBA
:105B60002E0000006C65645F73746172743A2020CB
:105B7000202020737461727420206C65642077612A
:105B8000746572207461736B2E0000006C65645F35
:105B900077617465723A2020202020437265617419
:105BA00065206C6564207761746572207461736B25
:105BB0002E0000006C6564006C65645F73746F7028
:105BC000000000006C65645F77617465720000001E
:105BD0006C65645F73746172740000007265626F5B
:105BE0006F743A20202020202020206765742074C4
:105BF0006865206368697020393620626974732093
:105C0000696420616E6420666C6173682073697AD0
:105C1000652E0000636869705F69643A2020202067
:105C2000202020676574207468652063686970208F
:105C30003936206269747320696420616E6420665D
:105C40006C6173682073697A652E000076657273E3
:105C5000696F6E3A20202020202020676574207410
:105C60006865207261772D6F73206B65726E656C4D
:105C70002076657273696F6E2E000000636869702C
:105C80005F69640076657273696F6E007265626F3A
:105C90006F740000737461636B3A20202020202011
:105CA00020202073686F7720616C6C2066726565B8
:105CB000207461736B20737461636B2073697A6500
:105CC0000D0A0000737461636B0000000D496E6380
:105CD0006F727265637420636F6D6D616E642070A6
:105CE0006172616D657465722873292E2020456E7E
:105CF000746572202268656C702220746F2076694A
:105D000065772061206C697374206F66206176610D
:105D1000696C61626C6520636F6D6D616E64732E7A
:105D20000D0A0D0A000000000D436F6D6D616E6479
:105D3000206E6F74207265636F676E697365642E81
:105D40002020456E746572202268656C7022207474
:105D50006F20766965772061206C697374206F66A7
:105D600020617661696C61626C6520636F6D6D6145
:105D70006E64732E0D0A0D0A0000000068656C70D9
:105D80003A204C6973747320616C6C2074686520D0
:105D90007265676973746572656420636F6D6D61A8
:105DA0006E64730D0A00000068656C7000000000EE
:105DB000FC5E000800000020CC000000C4010008C8
:105DC000C85F0008CC000020341F0000E00100087C
:105DD0001C00000043000000F8FFFFFF0C00000063
:105DE0000E0000000F0000002E0000001001000057
:105DF00043000000F8FFFFFF0040404040404040AB
:105E0000404041414141414040404040404040408D
:105E10004040404040404040400502020202020231
:105E20000202020202020202022020202020202080
:105E30002020200202020202020290909090909094
:105E40001010101010101010101010101010101052
:105E500010101010020202020202888888888888C6
:105E600008080808080808080808080808080808B2
:105E700008080808020202024000000000000000BA
:105E80000000000000000000000000000000000012
:105E90000000000000000000000000000000000002
:105EA00000000000000000000000000000000000F2
:105EB00000000000000000000000000000000000E2
:105EC00000000000000000000000000000000000D2
:105ED00000000000000000000000000000000000C2
:105EE00000000000000000000000000000000000B2
:105EF00000000000000000000000000000000000A2
:105F00000000000000000000000000000000000091
:105F100000000000000000000000000030313233BB
:105F20003435363738394142434445460000000095
:105F30000000000000000000000000000000000061
:105F40000000000000000000000000000000000051
:105F5000007A030A000000000000000001020304B0
:105F600006070809000000000102030401020304FF
:105F70000607080900000000000000000000000003
:105F80000000000000000000000000000000000011
:105F90000000000000000000000000000000000001
:105FA00000000000000000000000000000000000F1
:105FB000000000000C5A000800000000B80000209B
:085FC0000000000000000000D9
:040000050800018965
:00000001FF
